{
	"contracts/DataContract.sol": {
		"DataContract": {
			"abi": [
				{
					"inputs": [
						{
							"internalType": "string",
							"name": "_name",
							"type": "string"
						},
						{
							"internalType": "string",
							"name": "_description",
							"type": "string"
						},
						{
							"internalType": "string",
							"name": "_dataUrl",
							"type": "string"
						},
						{
							"internalType": "uint256",
							"name": "_priceWei",
							"type": "uint256"
						},
						{
							"internalType": "string",
							"name": "_keywords",
							"type": "string"
						},
						{
							"internalType": "string",
							"name": "_size",
							"type": "string"
						}
					],
					"stateMutability": "nonpayable",
					"type": "constructor"
				},
				{
					"anonymous": false,
					"inputs": [
						{
							"indexed": true,
							"internalType": "address",
							"name": "reporterAddress",
							"type": "address"
						},
						{
							"indexed": false,
							"internalType": "string",
							"name": "reason",
							"type": "string"
						}
					],
					"name": "PageFlagged",
					"type": "event"
				},
				{
					"anonymous": false,
					"inputs": [
						{
							"indexed": true,
							"internalType": "address",
							"name": "purchaseAddress",
							"type": "address"
						}
					],
					"name": "PurchaseCompleted",
					"type": "event"
				},
				{
					"inputs": [],
					"name": "MAX_FLAGS",
					"outputs": [
						{
							"internalType": "uint256",
							"name": "",
							"type": "uint256"
						}
					],
					"stateMutability": "view",
					"type": "function"
				},
				{
					"inputs": [],
					"name": "MIN_PURCHASES",
					"outputs": [
						{
							"internalType": "uint256",
							"name": "",
							"type": "uint256"
						}
					],
					"stateMutability": "view",
					"type": "function"
				},
				{
					"inputs": [],
					"name": "active",
					"outputs": [
						{
							"internalType": "bool",
							"name": "",
							"type": "bool"
						}
					],
					"stateMutability": "view",
					"type": "function"
				},
				{
					"inputs": [],
					"name": "createdAt",
					"outputs": [
						{
							"internalType": "string",
							"name": "",
							"type": "string"
						}
					],
					"stateMutability": "view",
					"type": "function"
				},
				{
					"inputs": [],
					"name": "description",
					"outputs": [
						{
							"internalType": "string",
							"name": "",
							"type": "string"
						}
					],
					"stateMutability": "view",
					"type": "function"
				},
				{
					"inputs": [
						{
							"internalType": "string",
							"name": "reason",
							"type": "string"
						}
					],
					"name": "flagDataset",
					"outputs": [
						{
							"internalType": "uint256",
							"name": "",
							"type": "uint256"
						}
					],
					"stateMutability": "nonpayable",
					"type": "function"
				},
				{
					"inputs": [],
					"name": "getDescription",
					"outputs": [
						{
							"internalType": "string",
							"name": "",
							"type": "string"
						}
					],
					"stateMutability": "view",
					"type": "function"
				},
				{
					"inputs": [],
					"name": "getMetadataString",
					"outputs": [
						{
							"internalType": "string",
							"name": "",
							"type": "string"
						}
					],
					"stateMutability": "view",
					"type": "function"
				},
				{
					"inputs": [],
					"name": "keywords",
					"outputs": [
						{
							"internalType": "string",
							"name": "",
							"type": "string"
						}
					],
					"stateMutability": "view",
					"type": "function"
				},
				{
					"inputs": [],
					"name": "name",
					"outputs": [
						{
							"internalType": "string",
							"name": "",
							"type": "string"
						}
					],
					"stateMutability": "view",
					"type": "function"
				},
				{
					"inputs": [],
					"name": "owner",
					"outputs": [
						{
							"internalType": "address",
							"name": "",
							"type": "address"
						}
					],
					"stateMutability": "view",
					"type": "function"
				},
				{
					"inputs": [],
					"name": "priceWei",
					"outputs": [
						{
							"internalType": "uint256",
							"name": "",
							"type": "uint256"
						}
					],
					"stateMutability": "view",
					"type": "function"
				},
				{
					"inputs": [],
					"name": "purchaseData",
					"outputs": [
						{
							"internalType": "string",
							"name": "",
							"type": "string"
						}
					],
					"stateMutability": "payable",
					"type": "function"
				},
				{
					"inputs": [],
					"name": "purchases",
					"outputs": [
						{
							"internalType": "uint256",
							"name": "",
							"type": "uint256"
						}
					],
					"stateMutability": "view",
					"type": "function"
				},
				{
					"inputs": [
						{
							"internalType": "uint256",
							"name": "_priceWei",
							"type": "uint256"
						}
					],
					"name": "setPrice",
					"outputs": [],
					"stateMutability": "nonpayable",
					"type": "function"
				},
				{
					"inputs": [],
					"name": "size",
					"outputs": [
						{
							"internalType": "string",
							"name": "",
							"type": "string"
						}
					],
					"stateMutability": "view",
					"type": "function"
				},
				{
					"inputs": [],
					"name": "toggleActive",
					"outputs": [],
					"stateMutability": "nonpayable",
					"type": "function"
				}
			],
			"devdoc": {
				"kind": "dev",
				"methods": {},
				"version": 1
			},
			"evm": {
				"assembly": "    /* \"contracts/DataContract.sol\":177:4072  contract DataContract {... */\n  mstore(0x40, 0x80)\n    /* \"contracts/DataContract.sol\":920:921  3 */\n  0x03\n    /* \"contracts/DataContract.sol\":889:921  uint256 public MIN_PURCHASES = 3 */\n  0x09\n  sstore\n    /* \"contracts/DataContract.sol\":1031:1032  3 */\n  0x03\n    /* \"contracts/DataContract.sol\":1004:1032  uint256 public MAX_FLAGS = 3 */\n  0x0a\n  sstore\n    /* \"contracts/DataContract.sol\":1392:1926  constructor(... */\n  callvalue\n  dup1\n  iszero\n  tag_1\n  jumpi\n  0x00\n  dup1\n  revert\ntag_1:\n  pop\n  mload(0x40)\n  sub(codesize, bytecodeSize)\n  dup1\n  bytecodeSize\n  dup4\n  codecopy\n  dup2\n  dup2\n  add\n  0x40\n  mstore\n  dup2\n  add\n  swap1\n  tag_2\n  swap2\n  swap1\n  tag_3\n  jump\t// in\ntag_2:\n    /* \"contracts/DataContract.sol\":1651:1661  msg.sender */\n  caller\n    /* \"contracts/DataContract.sol\":1643:1648  owner */\n  0x07\n  0x00\n    /* \"contracts/DataContract.sol\":1643:1661  owner = msg.sender */\n  0x0100\n  exp\n  dup2\n  sload\n  dup2\n  0xffffffffffffffffffffffffffffffffffffffff\n  mul\n  not\n  and\n  swap1\n  dup4\n  0xffffffffffffffffffffffffffffffffffffffff\n  and\n  mul\n  or\n  swap1\n  sstore\n  pop\n    /* \"contracts/DataContract.sol\":1678:1683  _name */\n  dup6\n    /* \"contracts/DataContract.sol\":1671:1675  name */\n  0x00\n    /* \"contracts/DataContract.sol\":1671:1683  name = _name */\n  swap1\n  dup2\n  tag_6\n  swap2\n  swap1\n  tag_7\n  jump\t// in\ntag_6:\n  pop\n    /* \"contracts/DataContract.sol\":1707:1719  _description */\n  dup5\n    /* \"contracts/DataContract.sol\":1693:1704  description */\n  0x01\n    /* \"contracts/DataContract.sol\":1693:1719  description = _description */\n  swap1\n  dup2\n  tag_8\n  swap2\n  swap1\n  tag_7\n  jump\t// in\ntag_8:\n  pop\n    /* \"contracts/DataContract.sol\":1739:1747  _dataUrl */\n  dup4\n    /* \"contracts/DataContract.sol\":1729:1736  dataUrl */\n  0x08\n    /* \"contracts/DataContract.sol\":1729:1747  dataUrl = _dataUrl */\n  swap1\n  dup2\n  tag_9\n  swap2\n  swap1\n  tag_7\n  jump\t// in\ntag_9:\n  pop\n    /* \"contracts/DataContract.sol\":1768:1777  _priceWei */\n  dup3\n    /* \"contracts/DataContract.sol\":1757:1765  priceWei */\n  0x03\n    /* \"contracts/DataContract.sol\":1757:1777  priceWei = _priceWei */\n  dup2\n  swap1\n  sstore\n  pop\n    /* \"contracts/DataContract.sol\":1833:1842  _keywords */\n  dup2\n    /* \"contracts/DataContract.sol\":1822:1830  keywords */\n  0x05\n    /* \"contracts/DataContract.sol\":1822:1842  keywords = _keywords */\n  swap1\n  dup2\n  tag_10\n  swap2\n  swap1\n  tag_7\n  jump\t// in\ntag_10:\n  pop\n    /* \"contracts/DataContract.sol\":1859:1864  _size */\n  dup1\n    /* \"contracts/DataContract.sol\":1852:1856  size */\n  0x06\n    /* \"contracts/DataContract.sol\":1852:1864  size = _size */\n  swap1\n  dup2\n  tag_11\n  swap2\n  swap1\n  tag_7\n  jump\t// in\ntag_11:\n  pop\n    /* \"contracts/DataContract.sol\":1895:1896  0 */\n  0x00\n    /* \"contracts/DataContract.sol\":1883:1892  purchases */\n  0x04\n    /* \"contracts/DataContract.sol\":1883:1896  purchases = 0 */\n  dup2\n  swap1\n  sstore\n  pop\n    /* \"contracts/DataContract.sol\":1915:1919  true */\n  0x01\n    /* \"contracts/DataContract.sol\":1906:1912  active */\n  0x07\n  0x14\n    /* \"contracts/DataContract.sol\":1906:1919  active = true */\n  0x0100\n  exp\n  dup2\n  sload\n  dup2\n  0xff\n  mul\n  not\n  and\n  swap1\n  dup4\n  iszero\n  iszero\n  mul\n  or\n  swap1\n  sstore\n  pop\n    /* \"contracts/DataContract.sol\":1392:1926  constructor(... */\n  pop\n  pop\n  pop\n  pop\n  pop\n  pop\n    /* \"contracts/DataContract.sol\":177:4072  contract DataContract {... */\n  jump(tag_12)\n    /* \"#utility.yul\":7:82   */\ntag_13:\n    /* \"#utility.yul\":40:46   */\n  0x00\n    /* \"#utility.yul\":73:75   */\n  0x40\n    /* \"#utility.yul\":67:76   */\n  mload\n    /* \"#utility.yul\":57:76   */\n  swap1\n  pop\n    /* \"#utility.yul\":7:82   */\n  swap1\n  jump\t// out\n    /* \"#utility.yul\":88:205   */\ntag_14:\n    /* \"#utility.yul\":197:198   */\n  0x00\n    /* \"#utility.yul\":194:195   */\n  dup1\n    /* \"#utility.yul\":187:199   */\n  revert\n    /* \"#utility.yul\":211:328   */\ntag_15:\n    /* \"#utility.yul\":320:321   */\n  0x00\n    /* \"#utility.yul\":317:318   */\n  dup1\n    /* \"#utility.yul\":310:322   */\n  revert\n    /* \"#utility.yul\":334:451   */\ntag_16:\n    /* \"#utility.yul\":443:444   */\n  0x00\n    /* \"#utility.yul\":440:441   */\n  dup1\n    /* \"#utility.yul\":433:445   */\n  revert\n    /* \"#utility.yul\":457:574   */\ntag_17:\n    /* \"#utility.yul\":566:567   */\n  0x00\n    /* \"#utility.yul\":563:564   */\n  dup1\n    /* \"#utility.yul\":556:568   */\n  revert\n    /* \"#utility.yul\":580:682   */\ntag_18:\n    /* \"#utility.yul\":621:627   */\n  0x00\n    /* \"#utility.yul\":672:674   */\n  0x1f\n    /* \"#utility.yul\":668:675   */\n  not\n    /* \"#utility.yul\":663:665   */\n  0x1f\n    /* \"#utility.yul\":656:661   */\n  dup4\n    /* \"#utility.yul\":652:666   */\n  add\n    /* \"#utility.yul\":648:676   */\n  and\n    /* \"#utility.yul\":638:676   */\n  swap1\n  pop\n    /* \"#utility.yul\":580:682   */\n  swap2\n  swap1\n  pop\n  jump\t// out\n    /* \"#utility.yul\":688:868   */\ntag_19:\n    /* \"#utility.yul\":736:813   */\n  0x4e487b7100000000000000000000000000000000000000000000000000000000\n    /* \"#utility.yul\":733:734   */\n  0x00\n    /* \"#utility.yul\":726:814   */\n  mstore\n    /* \"#utility.yul\":833:837   */\n  0x41\n    /* \"#utility.yul\":830:831   */\n  0x04\n    /* \"#utility.yul\":823:838   */\n  mstore\n    /* \"#utility.yul\":857:861   */\n  0x24\n    /* \"#utility.yul\":854:855   */\n  0x00\n    /* \"#utility.yul\":847:862   */\n  revert\n    /* \"#utility.yul\":874:1155   */\ntag_20:\n    /* \"#utility.yul\":957:984   */\n  tag_56\n    /* \"#utility.yul\":979:983   */\n  dup3\n    /* \"#utility.yul\":957:984   */\n  tag_18\n  jump\t// in\ntag_56:\n    /* \"#utility.yul\":949:955   */\n  dup2\n    /* \"#utility.yul\":945:985   */\n  add\n    /* \"#utility.yul\":1087:1093   */\n  dup2\n    /* \"#utility.yul\":1075:1085   */\n  dup2\n    /* \"#utility.yul\":1072:1094   */\n  lt\n    /* \"#utility.yul\":1051:1069   */\n  0xffffffffffffffff\n    /* \"#utility.yul\":1039:1049   */\n  dup3\n    /* \"#utility.yul\":1036:1070   */\n  gt\n    /* \"#utility.yul\":1033:1095   */\n  or\n    /* \"#utility.yul\":1030:1118   */\n  iszero\n  tag_57\n  jumpi\n    /* \"#utility.yul\":1098:1116   */\n  tag_58\n  tag_19\n  jump\t// in\ntag_58:\n    /* \"#utility.yul\":1030:1118   */\ntag_57:\n    /* \"#utility.yul\":1138:1148   */\n  dup1\n    /* \"#utility.yul\":1134:1136   */\n  0x40\n    /* \"#utility.yul\":1127:1149   */\n  mstore\n    /* \"#utility.yul\":917:1155   */\n  pop\n    /* \"#utility.yul\":874:1155   */\n  pop\n  pop\n  jump\t// out\n    /* \"#utility.yul\":1161:1290   */\ntag_21:\n    /* \"#utility.yul\":1195:1201   */\n  0x00\n    /* \"#utility.yul\":1222:1242   */\n  tag_60\n  tag_13\n  jump\t// in\ntag_60:\n    /* \"#utility.yul\":1212:1242   */\n  swap1\n  pop\n    /* \"#utility.yul\":1251:1284   */\n  tag_61\n    /* \"#utility.yul\":1279:1283   */\n  dup3\n    /* \"#utility.yul\":1271:1277   */\n  dup3\n    /* \"#utility.yul\":1251:1284   */\n  tag_20\n  jump\t// in\ntag_61:\n    /* \"#utility.yul\":1161:1290   */\n  swap2\n  swap1\n  pop\n  jump\t// out\n    /* \"#utility.yul\":1296:1604   */\ntag_22:\n    /* \"#utility.yul\":1358:1362   */\n  0x00\n    /* \"#utility.yul\":1448:1466   */\n  0xffffffffffffffff\n    /* \"#utility.yul\":1440:1446   */\n  dup3\n    /* \"#utility.yul\":1437:1467   */\n  gt\n    /* \"#utility.yul\":1434:1490   */\n  iszero\n  tag_63\n  jumpi\n    /* \"#utility.yul\":1470:1488   */\n  tag_64\n  tag_19\n  jump\t// in\ntag_64:\n    /* \"#utility.yul\":1434:1490   */\ntag_63:\n    /* \"#utility.yul\":1508:1537   */\n  tag_65\n    /* \"#utility.yul\":1530:1536   */\n  dup3\n    /* \"#utility.yul\":1508:1537   */\n  tag_18\n  jump\t// in\ntag_65:\n    /* \"#utility.yul\":1500:1537   */\n  swap1\n  pop\n    /* \"#utility.yul\":1592:1596   */\n  0x20\n    /* \"#utility.yul\":1586:1590   */\n  dup2\n    /* \"#utility.yul\":1582:1597   */\n  add\n    /* \"#utility.yul\":1574:1597   */\n  swap1\n  pop\n    /* \"#utility.yul\":1296:1604   */\n  swap2\n  swap1\n  pop\n  jump\t// out\n    /* \"#utility.yul\":1610:1749   */\ntag_23:\n    /* \"#utility.yul\":1699:1705   */\n  dup3\n    /* \"#utility.yul\":1694:1697   */\n  dup2\n    /* \"#utility.yul\":1689:1692   */\n  dup4\n    /* \"#utility.yul\":1683:1706   */\n  mcopy\n    /* \"#utility.yul\":1740:1741   */\n  0x00\n    /* \"#utility.yul\":1731:1737   */\n  dup4\n    /* \"#utility.yul\":1726:1729   */\n  dup4\n    /* \"#utility.yul\":1722:1738   */\n  add\n    /* \"#utility.yul\":1715:1742   */\n  mstore\n    /* \"#utility.yul\":1610:1749   */\n  pop\n  pop\n  pop\n  jump\t// out\n    /* \"#utility.yul\":1755:2189   */\ntag_24:\n    /* \"#utility.yul\":1844:1849   */\n  0x00\n    /* \"#utility.yul\":1869:1935   */\n  tag_68\n    /* \"#utility.yul\":1885:1934   */\n  tag_69\n    /* \"#utility.yul\":1927:1933   */\n  dup5\n    /* \"#utility.yul\":1885:1934   */\n  tag_22\n  jump\t// in\ntag_69:\n    /* \"#utility.yul\":1869:1935   */\n  tag_21\n  jump\t// in\ntag_68:\n    /* \"#utility.yul\":1860:1935   */\n  swap1\n  pop\n    /* \"#utility.yul\":1958:1964   */\n  dup3\n    /* \"#utility.yul\":1951:1956   */\n  dup2\n    /* \"#utility.yul\":1944:1965   */\n  mstore\n    /* \"#utility.yul\":1996:2000   */\n  0x20\n    /* \"#utility.yul\":1989:1994   */\n  dup2\n    /* \"#utility.yul\":1985:2001   */\n  add\n    /* \"#utility.yul\":2034:2037   */\n  dup5\n    /* \"#utility.yul\":2025:2031   */\n  dup5\n    /* \"#utility.yul\":2020:2023   */\n  dup5\n    /* \"#utility.yul\":2016:2032   */\n  add\n    /* \"#utility.yul\":2013:2038   */\n  gt\n    /* \"#utility.yul\":2010:2122   */\n  iszero\n  tag_70\n  jumpi\n    /* \"#utility.yul\":2041:2120   */\n  tag_71\n  tag_17\n  jump\t// in\ntag_71:\n    /* \"#utility.yul\":2010:2122   */\ntag_70:\n    /* \"#utility.yul\":2131:2183   */\n  tag_72\n    /* \"#utility.yul\":2176:2182   */\n  dup5\n    /* \"#utility.yul\":2171:2174   */\n  dup3\n    /* \"#utility.yul\":2166:2169   */\n  dup6\n    /* \"#utility.yul\":2131:2183   */\n  tag_23\n  jump\t// in\ntag_72:\n    /* \"#utility.yul\":1850:2189   */\n  pop\n    /* \"#utility.yul\":1755:2189   */\n  swap4\n  swap3\n  pop\n  pop\n  pop\n  jump\t// out\n    /* \"#utility.yul\":2209:2564   */\ntag_25:\n    /* \"#utility.yul\":2276:2281   */\n  0x00\n    /* \"#utility.yul\":2325:2328   */\n  dup3\n    /* \"#utility.yul\":2318:2322   */\n  0x1f\n    /* \"#utility.yul\":2310:2316   */\n  dup4\n    /* \"#utility.yul\":2306:2323   */\n  add\n    /* \"#utility.yul\":2302:2329   */\n  slt\n    /* \"#utility.yul\":2292:2414   */\n  tag_74\n  jumpi\n    /* \"#utility.yul\":2333:2412   */\n  tag_75\n  tag_16\n  jump\t// in\ntag_75:\n    /* \"#utility.yul\":2292:2414   */\ntag_74:\n    /* \"#utility.yul\":2443:2449   */\n  dup2\n    /* \"#utility.yul\":2437:2450   */\n  mload\n    /* \"#utility.yul\":2468:2558   */\n  tag_76\n    /* \"#utility.yul\":2554:2557   */\n  dup5\n    /* \"#utility.yul\":2546:2552   */\n  dup3\n    /* \"#utility.yul\":2539:2543   */\n  0x20\n    /* \"#utility.yul\":2531:2537   */\n  dup7\n    /* \"#utility.yul\":2527:2544   */\n  add\n    /* \"#utility.yul\":2468:2558   */\n  tag_24\n  jump\t// in\ntag_76:\n    /* \"#utility.yul\":2459:2558   */\n  swap2\n  pop\n    /* \"#utility.yul\":2282:2564   */\n  pop\n    /* \"#utility.yul\":2209:2564   */\n  swap3\n  swap2\n  pop\n  pop\n  jump\t// out\n    /* \"#utility.yul\":2570:2647   */\ntag_26:\n    /* \"#utility.yul\":2607:2614   */\n  0x00\n    /* \"#utility.yul\":2636:2641   */\n  dup2\n    /* \"#utility.yul\":2625:2641   */\n  swap1\n  pop\n    /* \"#utility.yul\":2570:2647   */\n  swap2\n  swap1\n  pop\n  jump\t// out\n    /* \"#utility.yul\":2653:2775   */\ntag_27:\n    /* \"#utility.yul\":2726:2750   */\n  tag_79\n    /* \"#utility.yul\":2744:2749   */\n  dup2\n    /* \"#utility.yul\":2726:2750   */\n  tag_26\n  jump\t// in\ntag_79:\n    /* \"#utility.yul\":2719:2724   */\n  dup2\n    /* \"#utility.yul\":2716:2751   */\n  eq\n    /* \"#utility.yul\":2706:2769   */\n  tag_80\n  jumpi\n    /* \"#utility.yul\":2765:2766   */\n  0x00\n    /* \"#utility.yul\":2762:2763   */\n  dup1\n    /* \"#utility.yul\":2755:2767   */\n  revert\n    /* \"#utility.yul\":2706:2769   */\ntag_80:\n    /* \"#utility.yul\":2653:2775   */\n  pop\n  jump\t// out\n    /* \"#utility.yul\":2781:2924   */\ntag_28:\n    /* \"#utility.yul\":2838:2843   */\n  0x00\n    /* \"#utility.yul\":2869:2875   */\n  dup2\n    /* \"#utility.yul\":2863:2876   */\n  mload\n    /* \"#utility.yul\":2854:2876   */\n  swap1\n  pop\n    /* \"#utility.yul\":2885:2918   */\n  tag_82\n    /* \"#utility.yul\":2912:2917   */\n  dup2\n    /* \"#utility.yul\":2885:2918   */\n  tag_27\n  jump\t// in\ntag_82:\n    /* \"#utility.yul\":2781:2924   */\n  swap3\n  swap2\n  pop\n  pop\n  jump\t// out\n    /* \"#utility.yul\":2930:4929   */\ntag_3:\n    /* \"#utility.yul\":3095:3101   */\n  0x00\n    /* \"#utility.yul\":3103:3109   */\n  dup1\n    /* \"#utility.yul\":3111:3117   */\n  0x00\n    /* \"#utility.yul\":3119:3125   */\n  dup1\n    /* \"#utility.yul\":3127:3133   */\n  0x00\n    /* \"#utility.yul\":3135:3141   */\n  dup1\n    /* \"#utility.yul\":3184:3187   */\n  0xc0\n    /* \"#utility.yul\":3172:3181   */\n  dup8\n    /* \"#utility.yul\":3163:3170   */\n  dup10\n    /* \"#utility.yul\":3159:3182   */\n  sub\n    /* \"#utility.yul\":3155:3188   */\n  slt\n    /* \"#utility.yul\":3152:3272   */\n  iszero\n  tag_84\n  jumpi\n    /* \"#utility.yul\":3191:3270   */\n  tag_85\n  tag_14\n  jump\t// in\ntag_85:\n    /* \"#utility.yul\":3152:3272   */\ntag_84:\n    /* \"#utility.yul\":3332:3333   */\n  0x00\n    /* \"#utility.yul\":3321:3330   */\n  dup8\n    /* \"#utility.yul\":3317:3334   */\n  add\n    /* \"#utility.yul\":3311:3335   */\n  mload\n    /* \"#utility.yul\":3362:3380   */\n  0xffffffffffffffff\n    /* \"#utility.yul\":3354:3360   */\n  dup2\n    /* \"#utility.yul\":3351:3381   */\n  gt\n    /* \"#utility.yul\":3348:3465   */\n  iszero\n  tag_86\n  jumpi\n    /* \"#utility.yul\":3384:3463   */\n  tag_87\n  tag_15\n  jump\t// in\ntag_87:\n    /* \"#utility.yul\":3348:3465   */\ntag_86:\n    /* \"#utility.yul\":3489:3563   */\n  tag_88\n    /* \"#utility.yul\":3555:3562   */\n  dup10\n    /* \"#utility.yul\":3546:3552   */\n  dup3\n    /* \"#utility.yul\":3535:3544   */\n  dup11\n    /* \"#utility.yul\":3531:3553   */\n  add\n    /* \"#utility.yul\":3489:3563   */\n  tag_25\n  jump\t// in\ntag_88:\n    /* \"#utility.yul\":3479:3563   */\n  swap7\n  pop\n    /* \"#utility.yul\":3282:3573   */\n  pop\n    /* \"#utility.yul\":3633:3635   */\n  0x20\n    /* \"#utility.yul\":3622:3631   */\n  dup8\n    /* \"#utility.yul\":3618:3636   */\n  add\n    /* \"#utility.yul\":3612:3637   */\n  mload\n    /* \"#utility.yul\":3664:3682   */\n  0xffffffffffffffff\n    /* \"#utility.yul\":3656:3662   */\n  dup2\n    /* \"#utility.yul\":3653:3683   */\n  gt\n    /* \"#utility.yul\":3650:3767   */\n  iszero\n  tag_89\n  jumpi\n    /* \"#utility.yul\":3686:3765   */\n  tag_90\n  tag_15\n  jump\t// in\ntag_90:\n    /* \"#utility.yul\":3650:3767   */\ntag_89:\n    /* \"#utility.yul\":3791:3865   */\n  tag_91\n    /* \"#utility.yul\":3857:3864   */\n  dup10\n    /* \"#utility.yul\":3848:3854   */\n  dup3\n    /* \"#utility.yul\":3837:3846   */\n  dup11\n    /* \"#utility.yul\":3833:3855   */\n  add\n    /* \"#utility.yul\":3791:3865   */\n  tag_25\n  jump\t// in\ntag_91:\n    /* \"#utility.yul\":3781:3865   */\n  swap6\n  pop\n    /* \"#utility.yul\":3583:3875   */\n  pop\n    /* \"#utility.yul\":3935:3937   */\n  0x40\n    /* \"#utility.yul\":3924:3933   */\n  dup8\n    /* \"#utility.yul\":3920:3938   */\n  add\n    /* \"#utility.yul\":3914:3939   */\n  mload\n    /* \"#utility.yul\":3966:3984   */\n  0xffffffffffffffff\n    /* \"#utility.yul\":3958:3964   */\n  dup2\n    /* \"#utility.yul\":3955:3985   */\n  gt\n    /* \"#utility.yul\":3952:4069   */\n  iszero\n  tag_92\n  jumpi\n    /* \"#utility.yul\":3988:4067   */\n  tag_93\n  tag_15\n  jump\t// in\ntag_93:\n    /* \"#utility.yul\":3952:4069   */\ntag_92:\n    /* \"#utility.yul\":4093:4167   */\n  tag_94\n    /* \"#utility.yul\":4159:4166   */\n  dup10\n    /* \"#utility.yul\":4150:4156   */\n  dup3\n    /* \"#utility.yul\":4139:4148   */\n  dup11\n    /* \"#utility.yul\":4135:4157   */\n  add\n    /* \"#utility.yul\":4093:4167   */\n  tag_25\n  jump\t// in\ntag_94:\n    /* \"#utility.yul\":4083:4167   */\n  swap5\n  pop\n    /* \"#utility.yul\":3885:4177   */\n  pop\n    /* \"#utility.yul\":4216:4218   */\n  0x60\n    /* \"#utility.yul\":4242:4306   */\n  tag_95\n    /* \"#utility.yul\":4298:4305   */\n  dup10\n    /* \"#utility.yul\":4289:4295   */\n  dup3\n    /* \"#utility.yul\":4278:4287   */\n  dup11\n    /* \"#utility.yul\":4274:4296   */\n  add\n    /* \"#utility.yul\":4242:4306   */\n  tag_28\n  jump\t// in\ntag_95:\n    /* \"#utility.yul\":4232:4306   */\n  swap4\n  pop\n    /* \"#utility.yul\":4187:4316   */\n  pop\n    /* \"#utility.yul\":4376:4379   */\n  0x80\n    /* \"#utility.yul\":4365:4374   */\n  dup8\n    /* \"#utility.yul\":4361:4380   */\n  add\n    /* \"#utility.yul\":4355:4381   */\n  mload\n    /* \"#utility.yul\":4408:4426   */\n  0xffffffffffffffff\n    /* \"#utility.yul\":4400:4406   */\n  dup2\n    /* \"#utility.yul\":4397:4427   */\n  gt\n    /* \"#utility.yul\":4394:4511   */\n  iszero\n  tag_96\n  jumpi\n    /* \"#utility.yul\":4430:4509   */\n  tag_97\n  tag_15\n  jump\t// in\ntag_97:\n    /* \"#utility.yul\":4394:4511   */\ntag_96:\n    /* \"#utility.yul\":4535:4609   */\n  tag_98\n    /* \"#utility.yul\":4601:4608   */\n  dup10\n    /* \"#utility.yul\":4592:4598   */\n  dup3\n    /* \"#utility.yul\":4581:4590   */\n  dup11\n    /* \"#utility.yul\":4577:4599   */\n  add\n    /* \"#utility.yul\":4535:4609   */\n  tag_25\n  jump\t// in\ntag_98:\n    /* \"#utility.yul\":4525:4609   */\n  swap3\n  pop\n    /* \"#utility.yul\":4326:4619   */\n  pop\n    /* \"#utility.yul\":4679:4682   */\n  0xa0\n    /* \"#utility.yul\":4668:4677   */\n  dup8\n    /* \"#utility.yul\":4664:4683   */\n  add\n    /* \"#utility.yul\":4658:4684   */\n  mload\n    /* \"#utility.yul\":4711:4729   */\n  0xffffffffffffffff\n    /* \"#utility.yul\":4703:4709   */\n  dup2\n    /* \"#utility.yul\":4700:4730   */\n  gt\n    /* \"#utility.yul\":4697:4814   */\n  iszero\n  tag_99\n  jumpi\n    /* \"#utility.yul\":4733:4812   */\n  tag_100\n  tag_15\n  jump\t// in\ntag_100:\n    /* \"#utility.yul\":4697:4814   */\ntag_99:\n    /* \"#utility.yul\":4838:4912   */\n  tag_101\n    /* \"#utility.yul\":4904:4911   */\n  dup10\n    /* \"#utility.yul\":4895:4901   */\n  dup3\n    /* \"#utility.yul\":4884:4893   */\n  dup11\n    /* \"#utility.yul\":4880:4902   */\n  add\n    /* \"#utility.yul\":4838:4912   */\n  tag_25\n  jump\t// in\ntag_101:\n    /* \"#utility.yul\":4828:4912   */\n  swap2\n  pop\n    /* \"#utility.yul\":4629:4922   */\n  pop\n    /* \"#utility.yul\":2930:4929   */\n  swap3\n  swap6\n  pop\n  swap3\n  swap6\n  pop\n  swap3\n  swap6\n  jump\t// out\n    /* \"#utility.yul\":4935:5034   */\ntag_29:\n    /* \"#utility.yul\":4987:4993   */\n  0x00\n    /* \"#utility.yul\":5021:5026   */\n  dup2\n    /* \"#utility.yul\":5015:5027   */\n  mload\n    /* \"#utility.yul\":5005:5027   */\n  swap1\n  pop\n    /* \"#utility.yul\":4935:5034   */\n  swap2\n  swap1\n  pop\n  jump\t// out\n    /* \"#utility.yul\":5040:5220   */\ntag_30:\n    /* \"#utility.yul\":5088:5165   */\n  0x4e487b7100000000000000000000000000000000000000000000000000000000\n    /* \"#utility.yul\":5085:5086   */\n  0x00\n    /* \"#utility.yul\":5078:5166   */\n  mstore\n    /* \"#utility.yul\":5185:5189   */\n  0x22\n    /* \"#utility.yul\":5182:5183   */\n  0x04\n    /* \"#utility.yul\":5175:5190   */\n  mstore\n    /* \"#utility.yul\":5209:5213   */\n  0x24\n    /* \"#utility.yul\":5206:5207   */\n  0x00\n    /* \"#utility.yul\":5199:5214   */\n  revert\n    /* \"#utility.yul\":5226:5546   */\ntag_31:\n    /* \"#utility.yul\":5270:5276   */\n  0x00\n    /* \"#utility.yul\":5307:5308   */\n  0x02\n    /* \"#utility.yul\":5301:5305   */\n  dup3\n    /* \"#utility.yul\":5297:5309   */\n  div\n    /* \"#utility.yul\":5287:5309   */\n  swap1\n  pop\n    /* \"#utility.yul\":5354:5355   */\n  0x01\n    /* \"#utility.yul\":5348:5352   */\n  dup3\n    /* \"#utility.yul\":5344:5356   */\n  and\n    /* \"#utility.yul\":5375:5393   */\n  dup1\n    /* \"#utility.yul\":5365:5446   */\n  tag_105\n  jumpi\n    /* \"#utility.yul\":5431:5435   */\n  0x7f\n    /* \"#utility.yul\":5423:5429   */\n  dup3\n    /* \"#utility.yul\":5419:5436   */\n  and\n    /* \"#utility.yul\":5409:5436   */\n  swap2\n  pop\n    /* \"#utility.yul\":5365:5446   */\ntag_105:\n    /* \"#utility.yul\":5493:5495   */\n  0x20\n    /* \"#utility.yul\":5485:5491   */\n  dup3\n    /* \"#utility.yul\":5482:5496   */\n  lt\n    /* \"#utility.yul\":5462:5480   */\n  dup2\n    /* \"#utility.yul\":5459:5497   */\n  sub\n    /* \"#utility.yul\":5456:5540   */\n  tag_106\n  jumpi\n    /* \"#utility.yul\":5512:5530   */\n  tag_107\n  tag_30\n  jump\t// in\ntag_107:\n    /* \"#utility.yul\":5456:5540   */\ntag_106:\n    /* \"#utility.yul\":5277:5546   */\n  pop\n    /* \"#utility.yul\":5226:5546   */\n  swap2\n  swap1\n  pop\n  jump\t// out\n    /* \"#utility.yul\":5552:5693   */\ntag_32:\n    /* \"#utility.yul\":5601:5605   */\n  0x00\n    /* \"#utility.yul\":5624:5627   */\n  dup2\n    /* \"#utility.yul\":5616:5627   */\n  swap1\n  pop\n    /* \"#utility.yul\":5647:5650   */\n  dup2\n    /* \"#utility.yul\":5644:5645   */\n  0x00\n    /* \"#utility.yul\":5637:5651   */\n  mstore\n    /* \"#utility.yul\":5681:5685   */\n  0x20\n    /* \"#utility.yul\":5678:5679   */\n  0x00\n    /* \"#utility.yul\":5668:5686   */\n  keccak256\n    /* \"#utility.yul\":5660:5686   */\n  swap1\n  pop\n    /* \"#utility.yul\":5552:5693   */\n  swap2\n  swap1\n  pop\n  jump\t// out\n    /* \"#utility.yul\":5699:5792   */\ntag_33:\n    /* \"#utility.yul\":5736:5742   */\n  0x00\n    /* \"#utility.yul\":5783:5785   */\n  0x20\n    /* \"#utility.yul\":5778:5780   */\n  0x1f\n    /* \"#utility.yul\":5771:5776   */\n  dup4\n    /* \"#utility.yul\":5767:5781   */\n  add\n    /* \"#utility.yul\":5763:5786   */\n  div\n    /* \"#utility.yul\":5753:5786   */\n  swap1\n  pop\n    /* \"#utility.yul\":5699:5792   */\n  swap2\n  swap1\n  pop\n  jump\t// out\n    /* \"#utility.yul\":5798:5905   */\ntag_34:\n    /* \"#utility.yul\":5842:5850   */\n  0x00\n    /* \"#utility.yul\":5892:5897   */\n  dup3\n    /* \"#utility.yul\":5886:5890   */\n  dup3\n    /* \"#utility.yul\":5882:5898   */\n  shl\n    /* \"#utility.yul\":5861:5898   */\n  swap1\n  pop\n    /* \"#utility.yul\":5798:5905   */\n  swap3\n  swap2\n  pop\n  pop\n  jump\t// out\n    /* \"#utility.yul\":5911:6304   */\ntag_35:\n    /* \"#utility.yul\":5980:5986   */\n  0x00\n    /* \"#utility.yul\":6030:6031   */\n  0x08\n    /* \"#utility.yul\":6018:6028   */\n  dup4\n    /* \"#utility.yul\":6014:6032   */\n  mul\n    /* \"#utility.yul\":6053:6150   */\n  tag_112\n    /* \"#utility.yul\":6083:6149   */\n  0xffffffffffffffffffffffffffffffffffffffffffffffffffffffffffffffff\n    /* \"#utility.yul\":6072:6081   */\n  dup3\n    /* \"#utility.yul\":6053:6150   */\n  tag_34\n  jump\t// in\ntag_112:\n    /* \"#utility.yul\":6171:6210   */\n  tag_113\n    /* \"#utility.yul\":6201:6209   */\n  dup7\n    /* \"#utility.yul\":6190:6199   */\n  dup4\n    /* \"#utility.yul\":6171:6210   */\n  tag_34\n  jump\t// in\ntag_113:\n    /* \"#utility.yul\":6159:6210   */\n  swap6\n  pop\n    /* \"#utility.yul\":6243:6247   */\n  dup1\n    /* \"#utility.yul\":6239:6248   */\n  not\n    /* \"#utility.yul\":6232:6237   */\n  dup5\n    /* \"#utility.yul\":6228:6249   */\n  and\n    /* \"#utility.yul\":6219:6249   */\n  swap4\n  pop\n    /* \"#utility.yul\":6292:6296   */\n  dup1\n    /* \"#utility.yul\":6282:6290   */\n  dup7\n    /* \"#utility.yul\":6278:6297   */\n  and\n    /* \"#utility.yul\":6271:6276   */\n  dup5\n    /* \"#utility.yul\":6268:6298   */\n  or\n    /* \"#utility.yul\":6258:6298   */\n  swap3\n  pop\n    /* \"#utility.yul\":5987:6304   */\n  pop\n  pop\n    /* \"#utility.yul\":5911:6304   */\n  swap4\n  swap3\n  pop\n  pop\n  pop\n  jump\t// out\n    /* \"#utility.yul\":6310:6370   */\ntag_36:\n    /* \"#utility.yul\":6338:6341   */\n  0x00\n    /* \"#utility.yul\":6359:6364   */\n  dup2\n    /* \"#utility.yul\":6352:6364   */\n  swap1\n  pop\n    /* \"#utility.yul\":6310:6370   */\n  swap2\n  swap1\n  pop\n  jump\t// out\n    /* \"#utility.yul\":6376:6518   */\ntag_37:\n    /* \"#utility.yul\":6426:6435   */\n  0x00\n    /* \"#utility.yul\":6459:6512   */\n  tag_116\n    /* \"#utility.yul\":6477:6511   */\n  tag_117\n    /* \"#utility.yul\":6486:6510   */\n  tag_118\n    /* \"#utility.yul\":6504:6509   */\n  dup5\n    /* \"#utility.yul\":6486:6510   */\n  tag_26\n  jump\t// in\ntag_118:\n    /* \"#utility.yul\":6477:6511   */\n  tag_36\n  jump\t// in\ntag_117:\n    /* \"#utility.yul\":6459:6512   */\n  tag_26\n  jump\t// in\ntag_116:\n    /* \"#utility.yul\":6446:6512   */\n  swap1\n  pop\n    /* \"#utility.yul\":6376:6518   */\n  swap2\n  swap1\n  pop\n  jump\t// out\n    /* \"#utility.yul\":6524:6599   */\ntag_38:\n    /* \"#utility.yul\":6567:6570   */\n  0x00\n    /* \"#utility.yul\":6588:6593   */\n  dup2\n    /* \"#utility.yul\":6581:6593   */\n  swap1\n  pop\n    /* \"#utility.yul\":6524:6599   */\n  swap2\n  swap1\n  pop\n  jump\t// out\n    /* \"#utility.yul\":6605:6874   */\ntag_39:\n    /* \"#utility.yul\":6715:6754   */\n  tag_121\n    /* \"#utility.yul\":6746:6753   */\n  dup4\n    /* \"#utility.yul\":6715:6754   */\n  tag_37\n  jump\t// in\ntag_121:\n    /* \"#utility.yul\":6776:6867   */\n  tag_122\n    /* \"#utility.yul\":6825:6866   */\n  tag_123\n    /* \"#utility.yul\":6849:6865   */\n  dup3\n    /* \"#utility.yul\":6825:6866   */\n  tag_38\n  jump\t// in\ntag_123:\n    /* \"#utility.yul\":6817:6823   */\n  dup5\n    /* \"#utility.yul\":6810:6814   */\n  dup5\n    /* \"#utility.yul\":6804:6815   */\n  sload\n    /* \"#utility.yul\":6776:6867   */\n  tag_35\n  jump\t// in\ntag_122:\n    /* \"#utility.yul\":6770:6774   */\n  dup3\n    /* \"#utility.yul\":6763:6868   */\n  sstore\n    /* \"#utility.yul\":6681:6874   */\n  pop\n    /* \"#utility.yul\":6605:6874   */\n  pop\n  pop\n  pop\n  jump\t// out\n    /* \"#utility.yul\":6880:6953   */\ntag_40:\n    /* \"#utility.yul\":6925:6928   */\n  0x00\n    /* \"#utility.yul\":6880:6953   */\n  swap1\n  jump\t// out\n    /* \"#utility.yul\":6959:7148   */\ntag_41:\n    /* \"#utility.yul\":7036:7068   */\n  tag_126\n  tag_40\n  jump\t// in\ntag_126:\n    /* \"#utility.yul\":7077:7142   */\n  tag_127\n    /* \"#utility.yul\":7135:7141   */\n  dup2\n    /* \"#utility.yul\":7127:7133   */\n  dup5\n    /* \"#utility.yul\":7121:7125   */\n  dup5\n    /* \"#utility.yul\":7077:7142   */\n  tag_39\n  jump\t// in\ntag_127:\n    /* \"#utility.yul\":7012:7148   */\n  pop\n    /* \"#utility.yul\":6959:7148   */\n  pop\n  pop\n  jump\t// out\n    /* \"#utility.yul\":7154:7340   */\ntag_42:\n    /* \"#utility.yul\":7214:7334   */\ntag_129:\n    /* \"#utility.yul\":7231:7234   */\n  dup2\n    /* \"#utility.yul\":7224:7229   */\n  dup2\n    /* \"#utility.yul\":7221:7235   */\n  lt\n    /* \"#utility.yul\":7214:7334   */\n  iszero\n  tag_131\n  jumpi\n    /* \"#utility.yul\":7285:7324   */\n  tag_132\n    /* \"#utility.yul\":7322:7323   */\n  0x00\n    /* \"#utility.yul\":7315:7320   */\n  dup3\n    /* \"#utility.yul\":7285:7324   */\n  tag_41\n  jump\t// in\ntag_132:\n    /* \"#utility.yul\":7258:7259   */\n  0x01\n    /* \"#utility.yul\":7251:7256   */\n  dup2\n    /* \"#utility.yul\":7247:7260   */\n  add\n    /* \"#utility.yul\":7238:7260   */\n  swap1\n  pop\n    /* \"#utility.yul\":7214:7334   */\n  jump(tag_129)\ntag_131:\n    /* \"#utility.yul\":7154:7340   */\n  pop\n  pop\n  jump\t// out\n    /* \"#utility.yul\":7346:7889   */\ntag_43:\n    /* \"#utility.yul\":7447:7449   */\n  0x1f\n    /* \"#utility.yul\":7442:7445   */\n  dup3\n    /* \"#utility.yul\":7439:7450   */\n  gt\n    /* \"#utility.yul\":7436:7882   */\n  iszero\n  tag_134\n  jumpi\n    /* \"#utility.yul\":7481:7519   */\n  tag_135\n    /* \"#utility.yul\":7513:7518   */\n  dup2\n    /* \"#utility.yul\":7481:7519   */\n  tag_32\n  jump\t// in\ntag_135:\n    /* \"#utility.yul\":7565:7594   */\n  tag_136\n    /* \"#utility.yul\":7583:7593   */\n  dup5\n    /* \"#utility.yul\":7565:7594   */\n  tag_33\n  jump\t// in\ntag_136:\n    /* \"#utility.yul\":7555:7563   */\n  dup2\n    /* \"#utility.yul\":7551:7595   */\n  add\n    /* \"#utility.yul\":7748:7750   */\n  0x20\n    /* \"#utility.yul\":7736:7746   */\n  dup6\n    /* \"#utility.yul\":7733:7751   */\n  lt\n    /* \"#utility.yul\":7730:7779   */\n  iszero\n  tag_137\n  jumpi\n    /* \"#utility.yul\":7769:7777   */\n  dup2\n    /* \"#utility.yul\":7754:7777   */\n  swap1\n  pop\n    /* \"#utility.yul\":7730:7779   */\ntag_137:\n    /* \"#utility.yul\":7792:7872   */\n  tag_138\n    /* \"#utility.yul\":7848:7870   */\n  tag_139\n    /* \"#utility.yul\":7866:7869   */\n  dup6\n    /* \"#utility.yul\":7848:7870   */\n  tag_33\n  jump\t// in\ntag_139:\n    /* \"#utility.yul\":7838:7846   */\n  dup4\n    /* \"#utility.yul\":7834:7871   */\n  add\n    /* \"#utility.yul\":7821:7832   */\n  dup3\n    /* \"#utility.yul\":7792:7872   */\n  tag_42\n  jump\t// in\ntag_138:\n    /* \"#utility.yul\":7451:7882   */\n  pop\n  pop\n    /* \"#utility.yul\":7436:7882   */\ntag_134:\n    /* \"#utility.yul\":7346:7889   */\n  pop\n  pop\n  pop\n  jump\t// out\n    /* \"#utility.yul\":7895:8012   */\ntag_44:\n    /* \"#utility.yul\":7949:7957   */\n  0x00\n    /* \"#utility.yul\":7999:8004   */\n  dup3\n    /* \"#utility.yul\":7993:7997   */\n  dup3\n    /* \"#utility.yul\":7989:8005   */\n  shr\n    /* \"#utility.yul\":7968:8005   */\n  swap1\n  pop\n    /* \"#utility.yul\":7895:8012   */\n  swap3\n  swap2\n  pop\n  pop\n  jump\t// out\n    /* \"#utility.yul\":8018:8187   */\ntag_45:\n    /* \"#utility.yul\":8062:8068   */\n  0x00\n    /* \"#utility.yul\":8095:8146   */\n  tag_142\n    /* \"#utility.yul\":8143:8144   */\n  0x00\n    /* \"#utility.yul\":8139:8145   */\n  not\n    /* \"#utility.yul\":8131:8136   */\n  dup5\n    /* \"#utility.yul\":8128:8129   */\n  0x08\n    /* \"#utility.yul\":8124:8137   */\n  mul\n    /* \"#utility.yul\":8095:8146   */\n  tag_44\n  jump\t// in\ntag_142:\n    /* \"#utility.yul\":8091:8147   */\n  not\n    /* \"#utility.yul\":8176:8180   */\n  dup1\n    /* \"#utility.yul\":8170:8174   */\n  dup4\n    /* \"#utility.yul\":8166:8181   */\n  and\n    /* \"#utility.yul\":8156:8181   */\n  swap2\n  pop\n    /* \"#utility.yul\":8069:8187   */\n  pop\n    /* \"#utility.yul\":8018:8187   */\n  swap3\n  swap2\n  pop\n  pop\n  jump\t// out\n    /* \"#utility.yul\":8192:8487   */\ntag_46:\n    /* \"#utility.yul\":8268:8272   */\n  0x00\n    /* \"#utility.yul\":8414:8443   */\n  tag_144\n    /* \"#utility.yul\":8439:8442   */\n  dup4\n    /* \"#utility.yul\":8433:8437   */\n  dup4\n    /* \"#utility.yul\":8414:8443   */\n  tag_45\n  jump\t// in\ntag_144:\n    /* \"#utility.yul\":8406:8443   */\n  swap2\n  pop\n    /* \"#utility.yul\":8476:8479   */\n  dup3\n    /* \"#utility.yul\":8473:8474   */\n  0x02\n    /* \"#utility.yul\":8469:8480   */\n  mul\n    /* \"#utility.yul\":8463:8467   */\n  dup3\n    /* \"#utility.yul\":8460:8481   */\n  or\n    /* \"#utility.yul\":8452:8481   */\n  swap1\n  pop\n    /* \"#utility.yul\":8192:8487   */\n  swap3\n  swap2\n  pop\n  pop\n  jump\t// out\n    /* \"#utility.yul\":8492:9887   */\ntag_7:\n    /* \"#utility.yul\":8609:8646   */\n  tag_146\n    /* \"#utility.yul\":8642:8645   */\n  dup3\n    /* \"#utility.yul\":8609:8646   */\n  tag_29\n  jump\t// in\ntag_146:\n    /* \"#utility.yul\":8711:8729   */\n  0xffffffffffffffff\n    /* \"#utility.yul\":8703:8709   */\n  dup2\n    /* \"#utility.yul\":8700:8730   */\n  gt\n    /* \"#utility.yul\":8697:8753   */\n  iszero\n  tag_147\n  jumpi\n    /* \"#utility.yul\":8733:8751   */\n  tag_148\n  tag_19\n  jump\t// in\ntag_148:\n    /* \"#utility.yul\":8697:8753   */\ntag_147:\n    /* \"#utility.yul\":8777:8815   */\n  tag_149\n    /* \"#utility.yul\":8809:8813   */\n  dup3\n    /* \"#utility.yul\":8803:8814   */\n  sload\n    /* \"#utility.yul\":8777:8815   */\n  tag_31\n  jump\t// in\ntag_149:\n    /* \"#utility.yul\":8862:8929   */\n  tag_150\n    /* \"#utility.yul\":8922:8928   */\n  dup3\n    /* \"#utility.yul\":8914:8920   */\n  dup3\n    /* \"#utility.yul\":8908:8912   */\n  dup6\n    /* \"#utility.yul\":8862:8929   */\n  tag_43\n  jump\t// in\ntag_150:\n    /* \"#utility.yul\":8956:8957   */\n  0x00\n    /* \"#utility.yul\":8980:8984   */\n  0x20\n    /* \"#utility.yul\":8967:8984   */\n  swap1\n  pop\n    /* \"#utility.yul\":9012:9014   */\n  0x1f\n    /* \"#utility.yul\":9004:9010   */\n  dup4\n    /* \"#utility.yul\":9001:9015   */\n  gt\n    /* \"#utility.yul\":9029:9030   */\n  0x01\n    /* \"#utility.yul\":9024:9642   */\n  dup2\n  eq\n  tag_152\n  jumpi\n    /* \"#utility.yul\":9686:9687   */\n  0x00\n    /* \"#utility.yul\":9703:9709   */\n  dup5\n    /* \"#utility.yul\":9700:9777   */\n  iszero\n  tag_153\n  jumpi\n    /* \"#utility.yul\":9752:9761   */\n  dup3\n    /* \"#utility.yul\":9747:9750   */\n  dup8\n    /* \"#utility.yul\":9743:9762   */\n  add\n    /* \"#utility.yul\":9737:9763   */\n  mload\n    /* \"#utility.yul\":9728:9763   */\n  swap1\n  pop\n    /* \"#utility.yul\":9700:9777   */\ntag_153:\n    /* \"#utility.yul\":9803:9870   */\n  tag_154\n    /* \"#utility.yul\":9863:9869   */\n  dup6\n    /* \"#utility.yul\":9856:9861   */\n  dup3\n    /* \"#utility.yul\":9803:9870   */\n  tag_46\n  jump\t// in\ntag_154:\n    /* \"#utility.yul\":9797:9801   */\n  dup7\n    /* \"#utility.yul\":9790:9871   */\n  sstore\n    /* \"#utility.yul\":9659:9881   */\n  pop\n    /* \"#utility.yul\":8994:9881   */\n  jump(tag_151)\n    /* \"#utility.yul\":9024:9642   */\ntag_152:\n    /* \"#utility.yul\":9076:9080   */\n  0x1f\n    /* \"#utility.yul\":9072:9081   */\n  not\n    /* \"#utility.yul\":9064:9070   */\n  dup5\n    /* \"#utility.yul\":9060:9082   */\n  and\n    /* \"#utility.yul\":9110:9147   */\n  tag_155\n    /* \"#utility.yul\":9142:9146   */\n  dup7\n    /* \"#utility.yul\":9110:9147   */\n  tag_32\n  jump\t// in\ntag_155:\n    /* \"#utility.yul\":9169:9170   */\n  0x00\n    /* \"#utility.yul\":9183:9391   */\ntag_156:\n    /* \"#utility.yul\":9197:9204   */\n  dup3\n    /* \"#utility.yul\":9194:9195   */\n  dup2\n    /* \"#utility.yul\":9191:9205   */\n  lt\n    /* \"#utility.yul\":9183:9391   */\n  iszero\n  tag_158\n  jumpi\n    /* \"#utility.yul\":9276:9285   */\n  dup5\n    /* \"#utility.yul\":9271:9274   */\n  dup10\n    /* \"#utility.yul\":9267:9286   */\n  add\n    /* \"#utility.yul\":9261:9287   */\n  mload\n    /* \"#utility.yul\":9253:9259   */\n  dup3\n    /* \"#utility.yul\":9246:9288   */\n  sstore\n    /* \"#utility.yul\":9327:9328   */\n  0x01\n    /* \"#utility.yul\":9319:9325   */\n  dup3\n    /* \"#utility.yul\":9315:9329   */\n  add\n    /* \"#utility.yul\":9305:9329   */\n  swap2\n  pop\n    /* \"#utility.yul\":9374:9376   */\n  0x20\n    /* \"#utility.yul\":9363:9372   */\n  dup6\n    /* \"#utility.yul\":9359:9377   */\n  add\n    /* \"#utility.yul\":9346:9377   */\n  swap5\n  pop\n    /* \"#utility.yul\":9220:9224   */\n  0x20\n    /* \"#utility.yul\":9217:9218   */\n  dup2\n    /* \"#utility.yul\":9213:9225   */\n  add\n    /* \"#utility.yul\":9208:9225   */\n  swap1\n  pop\n    /* \"#utility.yul\":9183:9391   */\n  jump(tag_156)\ntag_158:\n    /* \"#utility.yul\":9419:9425   */\n  dup7\n    /* \"#utility.yul\":9410:9417   */\n  dup4\n    /* \"#utility.yul\":9407:9426   */\n  lt\n    /* \"#utility.yul\":9404:9583   */\n  iszero\n  tag_159\n  jumpi\n    /* \"#utility.yul\":9477:9486   */\n  dup5\n    /* \"#utility.yul\":9472:9475   */\n  dup10\n    /* \"#utility.yul\":9468:9487   */\n  add\n    /* \"#utility.yul\":9462:9488   */\n  mload\n    /* \"#utility.yul\":9520:9568   */\n  tag_160\n    /* \"#utility.yul\":9562:9566   */\n  0x1f\n    /* \"#utility.yul\":9554:9560   */\n  dup10\n    /* \"#utility.yul\":9550:9567   */\n  and\n    /* \"#utility.yul\":9539:9548   */\n  dup3\n    /* \"#utility.yul\":9520:9568   */\n  tag_45\n  jump\t// in\ntag_160:\n    /* \"#utility.yul\":9512:9518   */\n  dup4\n    /* \"#utility.yul\":9505:9569   */\n  sstore\n    /* \"#utility.yul\":9427:9583   */\n  pop\n    /* \"#utility.yul\":9404:9583   */\ntag_159:\n    /* \"#utility.yul\":9629:9630   */\n  0x01\n    /* \"#utility.yul\":9625:9626   */\n  0x02\n    /* \"#utility.yul\":9617:9623   */\n  dup9\n    /* \"#utility.yul\":9613:9627   */\n  mul\n    /* \"#utility.yul\":9609:9631   */\n  add\n    /* \"#utility.yul\":9603:9607   */\n  dup9\n    /* \"#utility.yul\":9596:9632   */\n  sstore\n    /* \"#utility.yul\":9031:9642   */\n  pop\n  pop\n  pop\n    /* \"#utility.yul\":8994:9881   */\ntag_151:\n  pop\n    /* \"#utility.yul\":8584:9887   */\n  pop\n  pop\n  pop\n    /* \"#utility.yul\":8492:9887   */\n  pop\n  pop\n  jump\t// out\n    /* \"contracts/DataContract.sol\":177:4072  contract DataContract {... */\ntag_12:\n  dataSize(sub_0)\n  dup1\n  dataOffset(sub_0)\n  0x00\n  codecopy\n  0x00\n  return\nstop\n\nsub_0: assembly {\n        /* \"contracts/DataContract.sol\":177:4072  contract DataContract {... */\n      mstore(0x40, 0x80)\n      jumpi(tag_1, lt(calldatasize, 0x04))\n      shr(0xe0, calldataload(0x00))\n      dup1\n      0x83784b0b\n      gt\n      tag_19\n      jumpi\n      dup1\n      0xb7ec2086\n      gt\n      tag_20\n      jumpi\n      dup1\n      0xb7ec2086\n      eq\n      tag_14\n      jumpi\n      dup1\n      0xca5dbfef\n      eq\n      tag_15\n      jumpi\n      dup1\n      0xcf09e0d0\n      eq\n      tag_16\n      jumpi\n      dup1\n      0xee3def0e\n      eq\n      tag_17\n      jumpi\n      dup1\n      0xfd48e8e3\n      eq\n      tag_18\n      jumpi\n      jump(tag_1)\n    tag_20:\n      dup1\n      0x83784b0b\n      eq\n      tag_10\n      jumpi\n      dup1\n      0x8da5cb5b\n      eq\n      tag_11\n      jumpi\n      dup1\n      0x91b7f5ed\n      eq\n      tag_12\n      jumpi\n      dup1\n      0x949d225d\n      eq\n      tag_13\n      jumpi\n      jump(tag_1)\n    tag_19:\n      dup1\n      0x29c68dc1\n      gt\n      tag_21\n      jumpi\n      dup1\n      0x29c68dc1\n      eq\n      tag_6\n      jumpi\n      dup1\n      0x551caa7c\n      eq\n      tag_7\n      jumpi\n      dup1\n      0x7284e416\n      eq\n      tag_8\n      jumpi\n      dup1\n      0x729acff4\n      eq\n      tag_9\n      jumpi\n      jump(tag_1)\n    tag_21:\n      dup1\n      0x02fb0c5e\n      eq\n      tag_2\n      jumpi\n      dup1\n      0x06fdde03\n      eq\n      tag_3\n      jumpi\n      dup1\n      0x1a092541\n      eq\n      tag_4\n      jumpi\n      dup1\n      0x20c4fd31\n      eq\n      tag_5\n      jumpi\n    tag_1:\n      0x00\n      dup1\n      revert\n        /* \"contracts/DataContract.sol\":751:769  bool public active */\n    tag_2:\n      callvalue\n      dup1\n      iszero\n      tag_22\n      jumpi\n      0x00\n      dup1\n      revert\n    tag_22:\n      pop\n      tag_23\n      tag_24\n      jump\t// in\n    tag_23:\n      mload(0x40)\n      tag_25\n      swap2\n      swap1\n      tag_26\n      jump\t// in\n    tag_25:\n      mload(0x40)\n      dup1\n      swap2\n      sub\n      swap1\n      return\n        /* \"contracts/DataContract.sol\":233:251  string public name */\n    tag_3:\n      callvalue\n      dup1\n      iszero\n      tag_27\n      jumpi\n      0x00\n      dup1\n      revert\n    tag_27:\n      pop\n      tag_28\n      tag_29\n      jump\t// in\n    tag_28:\n      mload(0x40)\n      tag_30\n      swap2\n      swap1\n      tag_31\n      jump\t// in\n    tag_30:\n      mload(0x40)\n      dup1\n      swap2\n      sub\n      swap1\n      return\n        /* \"contracts/DataContract.sol\":3404:3502  function getDescription() public view returns (string memory) {... */\n    tag_4:\n      callvalue\n      dup1\n      iszero\n      tag_32\n      jumpi\n      0x00\n      dup1\n      revert\n    tag_32:\n      pop\n      tag_33\n      tag_34\n      jump\t// in\n    tag_33:\n      mload(0x40)\n      tag_35\n      swap2\n      swap1\n      tag_31\n      jump\t// in\n    tag_35:\n      mload(0x40)\n      dup1\n      swap2\n      sub\n      swap1\n      return\n        /* \"contracts/DataContract.sol\":1004:1032  uint256 public MAX_FLAGS = 3 */\n    tag_5:\n      callvalue\n      dup1\n      iszero\n      tag_36\n      jumpi\n      0x00\n      dup1\n      revert\n    tag_36:\n      pop\n      tag_37\n      tag_38\n      jump\t// in\n    tag_37:\n      mload(0x40)\n      tag_39\n      swap2\n      swap1\n      tag_40\n      jump\t// in\n    tag_39:\n      mload(0x40)\n      dup1\n      swap2\n      sub\n      swap1\n      return\n        /* \"contracts/DataContract.sol\":3210:3396  function toggleActive() public {... */\n    tag_6:\n      callvalue\n      dup1\n      iszero\n      tag_41\n      jumpi\n      0x00\n      dup1\n      revert\n    tag_41:\n      pop\n      tag_42\n      tag_43\n      jump\t// in\n    tag_42:\n      stop\n        /* \"contracts/DataContract.sol\":1932:2674  function purchaseData() public payable returns (string memory) {... */\n    tag_7:\n      tag_44\n      tag_45\n      jump\t// in\n    tag_44:\n      mload(0x40)\n      tag_46\n      swap2\n      swap1\n      tag_31\n      jump\t// in\n    tag_46:\n      mload(0x40)\n      dup1\n      swap2\n      sub\n      swap1\n      return\n        /* \"contracts/DataContract.sol\":303:328  string public description */\n    tag_8:\n      callvalue\n      dup1\n      iszero\n      tag_47\n      jumpi\n      0x00\n      dup1\n      revert\n    tag_47:\n      pop\n      tag_48\n      tag_49\n      jump\t// in\n    tag_48:\n      mload(0x40)\n      tag_50\n      swap2\n      swap1\n      tag_31\n      jump\t// in\n    tag_50:\n      mload(0x40)\n      dup1\n      swap2\n      sub\n      swap1\n      return\n        /* \"contracts/DataContract.sol\":588:610  string public keywords */\n    tag_9:\n      callvalue\n      dup1\n      iszero\n      tag_51\n      jumpi\n      0x00\n      dup1\n      revert\n    tag_51:\n      pop\n      tag_52\n      tag_53\n      jump\t// in\n    tag_52:\n      mload(0x40)\n      tag_54\n      swap2\n      swap1\n      tag_31\n      jump\t// in\n    tag_54:\n      mload(0x40)\n      dup1\n      swap2\n      sub\n      swap1\n      return\n        /* \"contracts/DataContract.sol\":2889:3204  function flagDataset(string memory reason) public returns (uint256) {... */\n    tag_10:\n      callvalue\n      dup1\n      iszero\n      tag_55\n      jumpi\n      0x00\n      dup1\n      revert\n    tag_55:\n      pop\n      tag_56\n      0x04\n      dup1\n      calldatasize\n      sub\n      dup2\n      add\n      swap1\n      tag_57\n      swap2\n      swap1\n      tag_58\n      jump\t// in\n    tag_57:\n      tag_59\n      jump\t// in\n    tag_56:\n      mload(0x40)\n      tag_60\n      swap2\n      swap1\n      tag_40\n      jump\t// in\n    tag_60:\n      mload(0x40)\n      dup1\n      swap2\n      sub\n      swap1\n      return\n        /* \"contracts/DataContract.sol\":696:716  address public owner */\n    tag_11:\n      callvalue\n      dup1\n      iszero\n      tag_61\n      jumpi\n      0x00\n      dup1\n      revert\n    tag_61:\n      pop\n      tag_62\n      tag_63\n      jump\t// in\n    tag_62:\n      mload(0x40)\n      tag_64\n      swap2\n      swap1\n      tag_65\n      jump\t// in\n    tag_64:\n      mload(0x40)\n      dup1\n      swap2\n      sub\n      swap1\n      return\n        /* \"contracts/DataContract.sol\":2680:2883  function setPrice(uint256 _priceWei) public {... */\n    tag_12:\n      callvalue\n      dup1\n      iszero\n      tag_66\n      jumpi\n      0x00\n      dup1\n      revert\n    tag_66:\n      pop\n      tag_67\n      0x04\n      dup1\n      calldatasize\n      sub\n      dup2\n      add\n      swap1\n      tag_68\n      swap2\n      swap1\n      tag_69\n      jump\t// in\n    tag_68:\n      tag_70\n      jump\t// in\n    tag_67:\n      stop\n        /* \"contracts/DataContract.sol\":652:670  string public size */\n    tag_13:\n      callvalue\n      dup1\n      iszero\n      tag_71\n      jumpi\n      0x00\n      dup1\n      revert\n    tag_71:\n      pop\n      tag_72\n      tag_73\n      jump\t// in\n    tag_72:\n      mload(0x40)\n      tag_74\n      swap2\n      swap1\n      tag_31\n      jump\t// in\n    tag_74:\n      mload(0x40)\n      dup1\n      swap2\n      sub\n      swap1\n      return\n        /* \"contracts/DataContract.sol\":456:479  uint256 public priceWei */\n    tag_14:\n      callvalue\n      dup1\n      iszero\n      tag_75\n      jumpi\n      0x00\n      dup1\n      revert\n    tag_75:\n      pop\n      tag_76\n      tag_77\n      jump\t// in\n    tag_76:\n      mload(0x40)\n      tag_78\n      swap2\n      swap1\n      tag_40\n      jump\t// in\n    tag_78:\n      mload(0x40)\n      dup1\n      swap2\n      sub\n      swap1\n      return\n        /* \"contracts/DataContract.sol\":3508:4070  function getMetadataString() public view returns (string memory) {... */\n    tag_15:\n      callvalue\n      dup1\n      iszero\n      tag_79\n      jumpi\n      0x00\n      dup1\n      revert\n    tag_79:\n      pop\n      tag_80\n      tag_81\n      jump\t// in\n    tag_80:\n      mload(0x40)\n      tag_82\n      swap2\n      swap1\n      tag_31\n      jump\t// in\n    tag_82:\n      mload(0x40)\n      dup1\n      swap2\n      sub\n      swap1\n      return\n        /* \"contracts/DataContract.sol\":386:409  string public createdAt */\n    tag_16:\n      callvalue\n      dup1\n      iszero\n      tag_83\n      jumpi\n      0x00\n      dup1\n      revert\n    tag_83:\n      pop\n      tag_84\n      tag_85\n      jump\t// in\n    tag_84:\n      mload(0x40)\n      tag_86\n      swap2\n      swap1\n      tag_31\n      jump\t// in\n    tag_86:\n      mload(0x40)\n      dup1\n      swap2\n      sub\n      swap1\n      return\n        /* \"contracts/DataContract.sol\":524:548  uint256 public purchases */\n    tag_17:\n      callvalue\n      dup1\n      iszero\n      tag_87\n      jumpi\n      0x00\n      dup1\n      revert\n    tag_87:\n      pop\n      tag_88\n      tag_89\n      jump\t// in\n    tag_88:\n      mload(0x40)\n      tag_90\n      swap2\n      swap1\n      tag_40\n      jump\t// in\n    tag_90:\n      mload(0x40)\n      dup1\n      swap2\n      sub\n      swap1\n      return\n        /* \"contracts/DataContract.sol\":889:921  uint256 public MIN_PURCHASES = 3 */\n    tag_18:\n      callvalue\n      dup1\n      iszero\n      tag_91\n      jumpi\n      0x00\n      dup1\n      revert\n    tag_91:\n      pop\n      tag_92\n      tag_93\n      jump\t// in\n    tag_92:\n      mload(0x40)\n      tag_94\n      swap2\n      swap1\n      tag_40\n      jump\t// in\n    tag_94:\n      mload(0x40)\n      dup1\n      swap2\n      sub\n      swap1\n      return\n        /* \"contracts/DataContract.sol\":751:769  bool public active */\n    tag_24:\n      0x07\n      0x14\n      swap1\n      sload\n      swap1\n      0x0100\n      exp\n      swap1\n      div\n      0xff\n      and\n      dup2\n      jump\t// out\n        /* \"contracts/DataContract.sol\":233:251  string public name */\n    tag_29:\n      0x00\n      dup1\n      sload\n      tag_95\n      swap1\n      tag_96\n      jump\t// in\n    tag_95:\n      dup1\n      0x1f\n      add\n      0x20\n      dup1\n      swap2\n      div\n      mul\n      0x20\n      add\n      mload(0x40)\n      swap1\n      dup2\n      add\n      0x40\n      mstore\n      dup1\n      swap3\n      swap2\n      swap1\n      dup2\n      dup2\n      mstore\n      0x20\n      add\n      dup3\n      dup1\n      sload\n      tag_97\n      swap1\n      tag_96\n      jump\t// in\n    tag_97:\n      dup1\n      iszero\n      tag_98\n      jumpi\n      dup1\n      0x1f\n      lt\n      tag_99\n      jumpi\n      0x0100\n      dup1\n      dup4\n      sload\n      div\n      mul\n      dup4\n      mstore\n      swap2\n      0x20\n      add\n      swap2\n      jump(tag_98)\n    tag_99:\n      dup3\n      add\n      swap2\n      swap1\n      0x00\n      mstore\n      keccak256(0x00, 0x20)\n      swap1\n    tag_100:\n      dup2\n      sload\n      dup2\n      mstore\n      swap1\n      0x01\n      add\n      swap1\n      0x20\n      add\n      dup1\n      dup4\n      gt\n      tag_100\n      jumpi\n      dup3\n      swap1\n      sub\n      0x1f\n      and\n      dup3\n      add\n      swap2\n    tag_98:\n      pop\n      pop\n      pop\n      pop\n      pop\n      dup2\n      jump\t// out\n        /* \"contracts/DataContract.sol\":3404:3502  function getDescription() public view returns (string memory) {... */\n    tag_34:\n        /* \"contracts/DataContract.sol\":3451:3464  string memory */\n      0x60\n        /* \"contracts/DataContract.sol\":3483:3494  description */\n      0x01\n        /* \"contracts/DataContract.sol\":3476:3494  return description */\n      dup1\n      sload\n      tag_102\n      swap1\n      tag_96\n      jump\t// in\n    tag_102:\n      dup1\n      0x1f\n      add\n      0x20\n      dup1\n      swap2\n      div\n      mul\n      0x20\n      add\n      mload(0x40)\n      swap1\n      dup2\n      add\n      0x40\n      mstore\n      dup1\n      swap3\n      swap2\n      swap1\n      dup2\n      dup2\n      mstore\n      0x20\n      add\n      dup3\n      dup1\n      sload\n      tag_103\n      swap1\n      tag_96\n      jump\t// in\n    tag_103:\n      dup1\n      iszero\n      tag_104\n      jumpi\n      dup1\n      0x1f\n      lt\n      tag_105\n      jumpi\n      0x0100\n      dup1\n      dup4\n      sload\n      div\n      mul\n      dup4\n      mstore\n      swap2\n      0x20\n      add\n      swap2\n      jump(tag_104)\n    tag_105:\n      dup3\n      add\n      swap2\n      swap1\n      0x00\n      mstore\n      keccak256(0x00, 0x20)\n      swap1\n    tag_106:\n      dup2\n      sload\n      dup2\n      mstore\n      swap1\n      0x01\n      add\n      swap1\n      0x20\n      add\n      dup1\n      dup4\n      gt\n      tag_106\n      jumpi\n      dup3\n      swap1\n      sub\n      0x1f\n      and\n      dup3\n      add\n      swap2\n    tag_104:\n      pop\n      pop\n      pop\n      pop\n      pop\n      swap1\n      pop\n        /* \"contracts/DataContract.sol\":3404:3502  function getDescription() public view returns (string memory) {... */\n      swap1\n      jump\t// out\n        /* \"contracts/DataContract.sol\":1004:1032  uint256 public MAX_FLAGS = 3 */\n    tag_38:\n      sload(0x0a)\n      dup2\n      jump\t// out\n        /* \"contracts/DataContract.sol\":3210:3396  function toggleActive() public {... */\n    tag_43:\n        /* \"contracts/DataContract.sol\":3286:3291  owner */\n      0x07\n      0x00\n      swap1\n      sload\n      swap1\n      0x0100\n      exp\n      swap1\n      div\n      0xffffffffffffffffffffffffffffffffffffffff\n      and\n        /* \"contracts/DataContract.sol\":3272:3291  msg.sender == owner */\n      0xffffffffffffffffffffffffffffffffffffffff\n      and\n        /* \"contracts/DataContract.sol\":3272:3282  msg.sender */\n      caller\n        /* \"contracts/DataContract.sol\":3272:3291  msg.sender == owner */\n      0xffffffffffffffffffffffffffffffffffffffff\n      and\n      eq\n        /* \"contracts/DataContract.sol\":3251:3363  require(... */\n      tag_108\n      jumpi\n      mload(0x40)\n      0x08c379a000000000000000000000000000000000000000000000000000000000\n      dup2\n      mstore\n      0x04\n      add\n      tag_109\n      swap1\n      tag_110\n      jump\t// in\n    tag_109:\n      mload(0x40)\n      dup1\n      swap2\n      sub\n      swap1\n      revert\n    tag_108:\n        /* \"contracts/DataContract.sol\":3383:3389  active */\n      0x07\n      0x14\n      swap1\n      sload\n      swap1\n      0x0100\n      exp\n      swap1\n      div\n      0xff\n      and\n        /* \"contracts/DataContract.sol\":3382:3389  !active */\n      iszero\n        /* \"contracts/DataContract.sol\":3373:3379  active */\n      0x07\n      0x14\n        /* \"contracts/DataContract.sol\":3373:3389  active = !active */\n      0x0100\n      exp\n      dup2\n      sload\n      dup2\n      0xff\n      mul\n      not\n      and\n      swap1\n      dup4\n      iszero\n      iszero\n      mul\n      or\n      swap1\n      sstore\n      pop\n        /* \"contracts/DataContract.sol\":3210:3396  function toggleActive() public {... */\n      jump\t// out\n        /* \"contracts/DataContract.sol\":1932:2674  function purchaseData() public payable returns (string memory) {... */\n    tag_45:\n        /* \"contracts/DataContract.sol\":1980:1993  string memory */\n      0x60\n        /* \"contracts/DataContract.sol\":2035:2044  MAX_FLAGS */\n      sload(0x0a)\n        /* \"contracts/DataContract.sol\":2026:2031  flags */\n      sload(0x0b)\n        /* \"contracts/DataContract.sol\":2026:2044  flags <= MAX_FLAGS */\n      gt\n      iszero\n        /* \"contracts/DataContract.sol\":2005:2122  require(... */\n      tag_112\n      jumpi\n      mload(0x40)\n      0x08c379a000000000000000000000000000000000000000000000000000000000\n      dup2\n      mstore\n      0x04\n      add\n      tag_113\n      swap1\n      tag_114\n      jump\t// in\n    tag_113:\n      mload(0x40)\n      dup1\n      swap2\n      sub\n      swap1\n      revert\n    tag_112:\n        /* \"contracts/DataContract.sol\":2166:2174  priceWei */\n      sload(0x03)\n        /* \"contracts/DataContract.sol\":2153:2162  msg.value */\n      callvalue\n        /* \"contracts/DataContract.sol\":2153:2174  msg.value == priceWei */\n      eq\n        /* \"contracts/DataContract.sol\":2132:2240  require(... */\n      tag_115\n      jumpi\n      mload(0x40)\n      0x08c379a000000000000000000000000000000000000000000000000000000000\n      dup2\n      mstore\n      0x04\n      add\n      tag_116\n      swap1\n      tag_117\n      jump\t// in\n    tag_116:\n      mload(0x40)\n      dup1\n      swap2\n      sub\n      swap1\n      revert\n    tag_115:\n        /* \"contracts/DataContract.sol\":2268:2281  MIN_PURCHASES */\n      sload(0x09)\n        /* \"contracts/DataContract.sol\":2255:2264  purchases */\n      sload(0x04)\n        /* \"contracts/DataContract.sol\":2255:2281  purchases == MIN_PURCHASES */\n      sub\n        /* \"contracts/DataContract.sol\":2251:2575  if (purchases == MIN_PURCHASES) {... */\n      tag_118\n      jumpi\n        /* \"contracts/DataContract.sol\":2360:2365  owner */\n      0x07\n      0x00\n      swap1\n      sload\n      swap1\n      0x0100\n      exp\n      swap1\n      div\n      0xffffffffffffffffffffffffffffffffffffffff\n      and\n        /* \"contracts/DataContract.sol\":2352:2375  payable(owner).transfer */\n      0xffffffffffffffffffffffffffffffffffffffff\n      and\n        /* \"contracts/DataContract.sol\":2352:2398  payable(owner).transfer(address(this).balance) */\n      0x08fc\n        /* \"contracts/DataContract.sol\":2376:2397  address(this).balance */\n      selfbalance\n        /* \"contracts/DataContract.sol\":2352:2398  payable(owner).transfer(address(this).balance) */\n      swap1\n      dup2\n      iszero\n      mul\n      swap1\n      mload(0x40)\n      0x00\n      mload(0x40)\n      dup1\n      dup4\n      sub\n      dup2\n      dup6\n      dup9\n      dup9\n      call\n      swap4\n      pop\n      pop\n      pop\n      pop\n      iszero\n      dup1\n      iszero\n      tag_120\n      jumpi\n      returndatasize\n      0x00\n      dup1\n      returndatacopy\n      revert(0x00, returndatasize)\n    tag_120:\n      pop\n        /* \"contracts/DataContract.sol\":2251:2575  if (purchases == MIN_PURCHASES) {... */\n      jump(tag_121)\n    tag_118:\n        /* \"contracts/DataContract.sol\":2431:2444  MIN_PURCHASES */\n      sload(0x09)\n        /* \"contracts/DataContract.sol\":2419:2428  purchases */\n      sload(0x04)\n        /* \"contracts/DataContract.sol\":2419:2444  purchases > MIN_PURCHASES */\n      gt\n        /* \"contracts/DataContract.sol\":2415:2575  if (purchases > MIN_PURCHASES) {... */\n      iszero\n      tag_122\n      jumpi\n        /* \"contracts/DataContract.sol\":2538:2543  owner */\n      0x07\n      0x00\n      swap1\n      sload\n      swap1\n      0x0100\n      exp\n      swap1\n      div\n      0xffffffffffffffffffffffffffffffffffffffff\n      and\n        /* \"contracts/DataContract.sol\":2530:2553  payable(owner).transfer */\n      0xffffffffffffffffffffffffffffffffffffffff\n      and\n        /* \"contracts/DataContract.sol\":2530:2564  payable(owner).transfer(msg.value) */\n      0x08fc\n        /* \"contracts/DataContract.sol\":2554:2563  msg.value */\n      callvalue\n        /* \"contracts/DataContract.sol\":2530:2564  payable(owner).transfer(msg.value) */\n      swap1\n      dup2\n      iszero\n      mul\n      swap1\n      mload(0x40)\n      0x00\n      mload(0x40)\n      dup1\n      dup4\n      sub\n      dup2\n      dup6\n      dup9\n      dup9\n      call\n      swap4\n      pop\n      pop\n      pop\n      pop\n      iszero\n      dup1\n      iszero\n      tag_124\n      jumpi\n      returndatasize\n      0x00\n      dup1\n      returndatacopy\n      revert(0x00, returndatasize)\n    tag_124:\n      pop\n        /* \"contracts/DataContract.sol\":2415:2575  if (purchases > MIN_PURCHASES) {... */\n    tag_122:\n        /* \"contracts/DataContract.sol\":2251:2575  if (purchases == MIN_PURCHASES) {... */\n    tag_121:\n        /* \"contracts/DataContract.sol\":2598:2599  1 */\n      0x01\n        /* \"contracts/DataContract.sol\":2585:2594  purchases */\n      0x04\n      0x00\n        /* \"contracts/DataContract.sol\":2585:2599  purchases += 1 */\n      dup3\n      dup3\n      sload\n      tag_125\n      swap2\n      swap1\n      tag_126\n      jump\t// in\n    tag_125:\n      swap3\n      pop\n      pop\n      dup2\n      swap1\n      sstore\n      pop\n        /* \"contracts/DataContract.sol\":2632:2642  msg.sender */\n      caller\n        /* \"contracts/DataContract.sol\":2614:2643  PurchaseCompleted(msg.sender) */\n      0xffffffffffffffffffffffffffffffffffffffff\n      and\n      0x4a017353a6a671c5595f31469f50dc962e14c1a712ba8971a058ac0460731bd1\n      mload(0x40)\n      mload(0x40)\n      dup1\n      swap2\n      sub\n      swap1\n      log2\n        /* \"contracts/DataContract.sol\":2660:2667  dataUrl */\n      0x08\n        /* \"contracts/DataContract.sol\":2653:2667  return dataUrl */\n      dup1\n      sload\n      tag_127\n      swap1\n      tag_96\n      jump\t// in\n    tag_127:\n      dup1\n      0x1f\n      add\n      0x20\n      dup1\n      swap2\n      div\n      mul\n      0x20\n      add\n      mload(0x40)\n      swap1\n      dup2\n      add\n      0x40\n      mstore\n      dup1\n      swap3\n      swap2\n      swap1\n      dup2\n      dup2\n      mstore\n      0x20\n      add\n      dup3\n      dup1\n      sload\n      tag_128\n      swap1\n      tag_96\n      jump\t// in\n    tag_128:\n      dup1\n      iszero\n      tag_129\n      jumpi\n      dup1\n      0x1f\n      lt\n      tag_130\n      jumpi\n      0x0100\n      dup1\n      dup4\n      sload\n      div\n      mul\n      dup4\n      mstore\n      swap2\n      0x20\n      add\n      swap2\n      jump(tag_129)\n    tag_130:\n      dup3\n      add\n      swap2\n      swap1\n      0x00\n      mstore\n      keccak256(0x00, 0x20)\n      swap1\n    tag_131:\n      dup2\n      sload\n      dup2\n      mstore\n      swap1\n      0x01\n      add\n      swap1\n      0x20\n      add\n      dup1\n      dup4\n      gt\n      tag_131\n      jumpi\n      dup3\n      swap1\n      sub\n      0x1f\n      and\n      dup3\n      add\n      swap2\n    tag_129:\n      pop\n      pop\n      pop\n      pop\n      pop\n      swap1\n      pop\n        /* \"contracts/DataContract.sol\":1932:2674  function purchaseData() public payable returns (string memory) {... */\n      swap1\n      jump\t// out\n        /* \"contracts/DataContract.sol\":303:328  string public description */\n    tag_49:\n      0x01\n      dup1\n      sload\n      tag_132\n      swap1\n      tag_96\n      jump\t// in\n    tag_132:\n      dup1\n      0x1f\n      add\n      0x20\n      dup1\n      swap2\n      div\n      mul\n      0x20\n      add\n      mload(0x40)\n      swap1\n      dup2\n      add\n      0x40\n      mstore\n      dup1\n      swap3\n      swap2\n      swap1\n      dup2\n      dup2\n      mstore\n      0x20\n      add\n      dup3\n      dup1\n      sload\n      tag_133\n      swap1\n      tag_96\n      jump\t// in\n    tag_133:\n      dup1\n      iszero\n      tag_134\n      jumpi\n      dup1\n      0x1f\n      lt\n      tag_135\n      jumpi\n      0x0100\n      dup1\n      dup4\n      sload\n      div\n      mul\n      dup4\n      mstore\n      swap2\n      0x20\n      add\n      swap2\n      jump(tag_134)\n    tag_135:\n      dup3\n      add\n      swap2\n      swap1\n      0x00\n      mstore\n      keccak256(0x00, 0x20)\n      swap1\n    tag_136:\n      dup2\n      sload\n      dup2\n      mstore\n      swap1\n      0x01\n      add\n      swap1\n      0x20\n      add\n      dup1\n      dup4\n      gt\n      tag_136\n      jumpi\n      dup3\n      swap1\n      sub\n      0x1f\n      and\n      dup3\n      add\n      swap2\n    tag_134:\n      pop\n      pop\n      pop\n      pop\n      pop\n      dup2\n      jump\t// out\n        /* \"contracts/DataContract.sol\":588:610  string public keywords */\n    tag_53:\n      0x05\n      dup1\n      sload\n      tag_137\n      swap1\n      tag_96\n      jump\t// in\n    tag_137:\n      dup1\n      0x1f\n      add\n      0x20\n      dup1\n      swap2\n      div\n      mul\n      0x20\n      add\n      mload(0x40)\n      swap1\n      dup2\n      add\n      0x40\n      mstore\n      dup1\n      swap3\n      swap2\n      swap1\n      dup2\n      dup2\n      mstore\n      0x20\n      add\n      dup3\n      dup1\n      sload\n      tag_138\n      swap1\n      tag_96\n      jump\t// in\n    tag_138:\n      dup1\n      iszero\n      tag_139\n      jumpi\n      dup1\n      0x1f\n      lt\n      tag_140\n      jumpi\n      0x0100\n      dup1\n      dup4\n      sload\n      div\n      mul\n      dup4\n      mstore\n      swap2\n      0x20\n      add\n      swap2\n      jump(tag_139)\n    tag_140:\n      dup3\n      add\n      swap2\n      swap1\n      0x00\n      mstore\n      keccak256(0x00, 0x20)\n      swap1\n    tag_141:\n      dup2\n      sload\n      dup2\n      mstore\n      swap1\n      0x01\n      add\n      swap1\n      0x20\n      add\n      dup1\n      dup4\n      gt\n      tag_141\n      jumpi\n      dup3\n      swap1\n      sub\n      0x1f\n      and\n      dup3\n      add\n      swap2\n    tag_139:\n      pop\n      pop\n      pop\n      pop\n      pop\n      dup2\n      jump\t// out\n        /* \"contracts/DataContract.sol\":2889:3204  function flagDataset(string memory reason) public returns (uint256) {... */\n    tag_59:\n        /* \"contracts/DataContract.sol\":2948:2955  uint256 */\n      0x00\n        /* \"contracts/DataContract.sol\":2967:2979  bool flagged */\n      dup1\n        /* \"contracts/DataContract.sol\":2982:2992  flaggedMap */\n      0x0c\n        /* \"contracts/DataContract.sol\":2982:3004  flaggedMap[msg.sender] */\n      0x00\n        /* \"contracts/DataContract.sol\":2993:3003  msg.sender */\n      caller\n        /* \"contracts/DataContract.sol\":2982:3004  flaggedMap[msg.sender] */\n      0xffffffffffffffffffffffffffffffffffffffff\n      and\n      0xffffffffffffffffffffffffffffffffffffffff\n      and\n      dup2\n      mstore\n      0x20\n      add\n      swap1\n      dup2\n      mstore\n      0x20\n      add\n      0x00\n      keccak256\n      0x00\n      swap1\n      sload\n      swap1\n      0x0100\n      exp\n      swap1\n      div\n      0xff\n      and\n        /* \"contracts/DataContract.sol\":2967:3004  bool flagged = flaggedMap[msg.sender] */\n      swap1\n      pop\n        /* \"contracts/DataContract.sol\":3023:3030  flagged */\n      dup1\n        /* \"contracts/DataContract.sol\":3022:3030  !flagged */\n      iszero\n        /* \"contracts/DataContract.sol\":3014:3069  require(!flagged, \"You have already flagged this page\") */\n      tag_143\n      jumpi\n      mload(0x40)\n      0x08c379a000000000000000000000000000000000000000000000000000000000\n      dup2\n      mstore\n      0x04\n      add\n      tag_144\n      swap1\n      tag_145\n      jump\t// in\n    tag_144:\n      mload(0x40)\n      dup1\n      swap2\n      sub\n      swap1\n      revert\n    tag_143:\n        /* \"contracts/DataContract.sol\":3105:3109  true */\n      0x01\n        /* \"contracts/DataContract.sol\":3080:3090  flaggedMap */\n      0x0c\n        /* \"contracts/DataContract.sol\":3080:3102  flaggedMap[msg.sender] */\n      0x00\n        /* \"contracts/DataContract.sol\":3091:3101  msg.sender */\n      caller\n        /* \"contracts/DataContract.sol\":3080:3102  flaggedMap[msg.sender] */\n      0xffffffffffffffffffffffffffffffffffffffff\n      and\n      0xffffffffffffffffffffffffffffffffffffffff\n      and\n      dup2\n      mstore\n      0x20\n      add\n      swap1\n      dup2\n      mstore\n      0x20\n      add\n      0x00\n      keccak256\n      0x00\n        /* \"contracts/DataContract.sol\":3080:3109  flaggedMap[msg.sender] = true */\n      0x0100\n      exp\n      dup2\n      sload\n      dup2\n      0xff\n      mul\n      not\n      and\n      swap1\n      dup4\n      iszero\n      iszero\n      mul\n      or\n      swap1\n      sstore\n      pop\n        /* \"contracts/DataContract.sol\":3128:3129  1 */\n      0x01\n        /* \"contracts/DataContract.sol\":3119:3124  flags */\n      0x0b\n      0x00\n        /* \"contracts/DataContract.sol\":3119:3129  flags += 1 */\n      dup3\n      dup3\n      sload\n      tag_146\n      swap2\n      swap1\n      tag_126\n      jump\t// in\n    tag_146:\n      swap3\n      pop\n      pop\n      dup2\n      swap1\n      sstore\n      pop\n        /* \"contracts/DataContract.sol\":3156:3166  msg.sender */\n      caller\n        /* \"contracts/DataContract.sol\":3144:3175  PageFlagged(msg.sender, reason) */\n      0xffffffffffffffffffffffffffffffffffffffff\n      and\n      0xab041670eb9e6e047417d6b20c2560283f97944f712ed0fad739be1a8574b5cd\n        /* \"contracts/DataContract.sol\":3168:3174  reason */\n      dup5\n        /* \"contracts/DataContract.sol\":3144:3175  PageFlagged(msg.sender, reason) */\n      mload(0x40)\n      tag_147\n      swap2\n      swap1\n      tag_31\n      jump\t// in\n    tag_147:\n      mload(0x40)\n      dup1\n      swap2\n      sub\n      swap1\n      log2\n        /* \"contracts/DataContract.sol\":3192:3197  flags */\n      sload(0x0b)\n        /* \"contracts/DataContract.sol\":3185:3197  return flags */\n      swap2\n      pop\n      pop\n        /* \"contracts/DataContract.sol\":2889:3204  function flagDataset(string memory reason) public returns (uint256) {... */\n      swap2\n      swap1\n      pop\n      jump\t// out\n        /* \"contracts/DataContract.sol\":696:716  address public owner */\n    tag_63:\n      0x07\n      0x00\n      swap1\n      sload\n      swap1\n      0x0100\n      exp\n      swap1\n      div\n      0xffffffffffffffffffffffffffffffffffffffff\n      and\n      dup2\n      jump\t// out\n        /* \"contracts/DataContract.sol\":2680:2883  function setPrice(uint256 _priceWei) public {... */\n    tag_70:\n        /* \"contracts/DataContract.sol\":2769:2774  owner */\n      0x07\n      0x00\n      swap1\n      sload\n      swap1\n      0x0100\n      exp\n      swap1\n      div\n      0xffffffffffffffffffffffffffffffffffffffff\n      and\n        /* \"contracts/DataContract.sol\":2755:2774  msg.sender == owner */\n      0xffffffffffffffffffffffffffffffffffffffff\n      and\n        /* \"contracts/DataContract.sol\":2755:2765  msg.sender */\n      caller\n        /* \"contracts/DataContract.sol\":2755:2774  msg.sender == owner */\n      0xffffffffffffffffffffffffffffffffffffffff\n      and\n      eq\n        /* \"contracts/DataContract.sol\":2734:2846  require(... */\n      tag_149\n      jumpi\n      mload(0x40)\n      0x08c379a000000000000000000000000000000000000000000000000000000000\n      dup2\n      mstore\n      0x04\n      add\n      tag_150\n      swap1\n      tag_110\n      jump\t// in\n    tag_150:\n      mload(0x40)\n      dup1\n      swap2\n      sub\n      swap1\n      revert\n    tag_149:\n        /* \"contracts/DataContract.sol\":2867:2876  _priceWei */\n      dup1\n        /* \"contracts/DataContract.sol\":2856:2864  priceWei */\n      0x03\n        /* \"contracts/DataContract.sol\":2856:2876  priceWei = _priceWei */\n      dup2\n      swap1\n      sstore\n      pop\n        /* \"contracts/DataContract.sol\":2680:2883  function setPrice(uint256 _priceWei) public {... */\n      pop\n      jump\t// out\n        /* \"contracts/DataContract.sol\":652:670  string public size */\n    tag_73:\n      0x06\n      dup1\n      sload\n      tag_151\n      swap1\n      tag_96\n      jump\t// in\n    tag_151:\n      dup1\n      0x1f\n      add\n      0x20\n      dup1\n      swap2\n      div\n      mul\n      0x20\n      add\n      mload(0x40)\n      swap1\n      dup2\n      add\n      0x40\n      mstore\n      dup1\n      swap3\n      swap2\n      swap1\n      dup2\n      dup2\n      mstore\n      0x20\n      add\n      dup3\n      dup1\n      sload\n      tag_152\n      swap1\n      tag_96\n      jump\t// in\n    tag_152:\n      dup1\n      iszero\n      tag_153\n      jumpi\n      dup1\n      0x1f\n      lt\n      tag_154\n      jumpi\n      0x0100\n      dup1\n      dup4\n      sload\n      div\n      mul\n      dup4\n      mstore\n      swap2\n      0x20\n      add\n      swap2\n      jump(tag_153)\n    tag_154:\n      dup3\n      add\n      swap2\n      swap1\n      0x00\n      mstore\n      keccak256(0x00, 0x20)\n      swap1\n    tag_155:\n      dup2\n      sload\n      dup2\n      mstore\n      swap1\n      0x01\n      add\n      swap1\n      0x20\n      add\n      dup1\n      dup4\n      gt\n      tag_155\n      jumpi\n      dup3\n      swap1\n      sub\n      0x1f\n      and\n      dup3\n      add\n      swap2\n    tag_153:\n      pop\n      pop\n      pop\n      pop\n      pop\n      dup2\n      jump\t// out\n        /* \"contracts/DataContract.sol\":456:479  uint256 public priceWei */\n    tag_77:\n      sload(0x03)\n      dup2\n      jump\t// out\n        /* \"contracts/DataContract.sol\":3508:4070  function getMetadataString() public view returns (string memory) {... */\n    tag_81:\n        /* \"contracts/DataContract.sol\":3558:3571  string memory */\n      0x60\n        /* \"contracts/DataContract.sol\":3633:3637  name */\n      0x00\n        /* \"contracts/DataContract.sol\":3676:3687  description */\n      0x01\n        /* \"contracts/DataContract.sol\":3726:3752  Strings.toString(priceWei) */\n      tag_157\n        /* \"contracts/DataContract.sol\":3743:3751  priceWei */\n      sload(0x03)\n        /* \"contracts/DataContract.sol\":3726:3742  Strings.toString */\n      tag_158\n        /* \"contracts/DataContract.sol\":3726:3752  Strings.toString(priceWei) */\n      jump\t// in\n    tag_157:\n        /* \"contracts/DataContract.sol\":3791:3818  Strings.toString(purchases) */\n      tag_159\n        /* \"contracts/DataContract.sol\":3808:3817  purchases */\n      sload(0x04)\n        /* \"contracts/DataContract.sol\":3791:3807  Strings.toString */\n      tag_158\n        /* \"contracts/DataContract.sol\":3791:3818  Strings.toString(purchases) */\n      jump\t// in\n    tag_159:\n        /* \"contracts/DataContract.sol\":3857:3865  keywords */\n      0x05\n        /* \"contracts/DataContract.sol\":3904:3908  size */\n      0x06\n        /* \"contracts/DataContract.sol\":3947:3956  createdAt */\n      0x02\n        /* \"contracts/DataContract.sol\":3996:4002  active */\n      0x07\n      0x14\n      swap1\n      sload\n      swap1\n      0x0100\n      exp\n      swap1\n      div\n      0xff\n      and\n        /* \"contracts/DataContract.sol\":3996:4024  active && flags <= MAX_FLAGS */\n      dup1\n      iszero\n      tag_160\n      jumpi\n      pop\n        /* \"contracts/DataContract.sol\":4015:4024  MAX_FLAGS */\n      sload(0x0a)\n        /* \"contracts/DataContract.sol\":4006:4011  flags */\n      sload(0x0b)\n        /* \"contracts/DataContract.sol\":4006:4024  flags <= MAX_FLAGS */\n      gt\n      iszero\n        /* \"contracts/DataContract.sol\":3996:4024  active && flags <= MAX_FLAGS */\n    tag_160:\n        /* \"contracts/DataContract.sol\":3995:4049  (active && flags <= MAX_FLAGS) ? \"active\" : \"inactive\" */\n      tag_161\n      jumpi\n      mload(0x40)\n      dup1\n      0x40\n      add\n      0x40\n      mstore\n      dup1\n      0x08\n      dup2\n      mstore\n      0x20\n      add\n      0x696e616374697665000000000000000000000000000000000000000000000000\n      dup2\n      mstore\n      pop\n      jump(tag_162)\n    tag_161:\n      mload(0x40)\n      dup1\n      0x40\n      add\n      0x40\n      mstore\n      dup1\n      0x06\n      dup2\n      mstore\n      0x20\n      add\n      0x6163746976650000000000000000000000000000000000000000000000000000\n      dup2\n      mstore\n      pop\n    tag_162:\n        /* \"contracts/DataContract.sol\":3602:4063  string.concat(... */\n      add(0x20, mload(0x40))\n      tag_163\n      swap9\n      swap8\n      swap7\n      swap6\n      swap5\n      swap4\n      swap3\n      swap2\n      swap1\n      tag_164\n      jump\t// in\n    tag_163:\n      mload(0x40)\n      0x20\n      dup2\n      dup4\n      sub\n      sub\n      dup2\n      mstore\n      swap1\n      0x40\n      mstore\n        /* \"contracts/DataContract.sol\":3583:4063  return... */\n      swap1\n      pop\n        /* \"contracts/DataContract.sol\":3508:4070  function getMetadataString() public view returns (string memory) {... */\n      swap1\n      jump\t// out\n        /* \"contracts/DataContract.sol\":386:409  string public createdAt */\n    tag_85:\n      0x02\n      dup1\n      sload\n      tag_165\n      swap1\n      tag_96\n      jump\t// in\n    tag_165:\n      dup1\n      0x1f\n      add\n      0x20\n      dup1\n      swap2\n      div\n      mul\n      0x20\n      add\n      mload(0x40)\n      swap1\n      dup2\n      add\n      0x40\n      mstore\n      dup1\n      swap3\n      swap2\n      swap1\n      dup2\n      dup2\n      mstore\n      0x20\n      add\n      dup3\n      dup1\n      sload\n      tag_166\n      swap1\n      tag_96\n      jump\t// in\n    tag_166:\n      dup1\n      iszero\n      tag_167\n      jumpi\n      dup1\n      0x1f\n      lt\n      tag_168\n      jumpi\n      0x0100\n      dup1\n      dup4\n      sload\n      div\n      mul\n      dup4\n      mstore\n      swap2\n      0x20\n      add\n      swap2\n      jump(tag_167)\n    tag_168:\n      dup3\n      add\n      swap2\n      swap1\n      0x00\n      mstore\n      keccak256(0x00, 0x20)\n      swap1\n    tag_169:\n      dup2\n      sload\n      dup2\n      mstore\n      swap1\n      0x01\n      add\n      swap1\n      0x20\n      add\n      dup1\n      dup4\n      gt\n      tag_169\n      jumpi\n      dup3\n      swap1\n      sub\n      0x1f\n      and\n      dup3\n      add\n      swap2\n    tag_167:\n      pop\n      pop\n      pop\n      pop\n      pop\n      dup2\n      jump\t// out\n        /* \"contracts/DataContract.sol\":524:548  uint256 public purchases */\n    tag_89:\n      sload(0x04)\n      dup2\n      jump\t// out\n        /* \"contracts/DataContract.sol\":889:921  uint256 public MIN_PURCHASES = 3 */\n    tag_93:\n      sload(0x09)\n      dup2\n      jump\t// out\n        /* \"@openzeppelin/contracts/utils/Strings.sol\":637:1335  function toString(uint256 value) internal pure returns (string memory) {... */\n    tag_158:\n        /* \"@openzeppelin/contracts/utils/Strings.sol\":693:706  string memory */\n      0x60\n        /* \"@openzeppelin/contracts/utils/Strings.sol\":742:756  uint256 length */\n      0x00\n        /* \"@openzeppelin/contracts/utils/Strings.sol\":779:780  1 */\n      0x01\n        /* \"@openzeppelin/contracts/utils/Strings.sol\":759:776  Math.log10(value) */\n      tag_171\n        /* \"@openzeppelin/contracts/utils/Strings.sol\":770:775  value */\n      dup5\n        /* \"@openzeppelin/contracts/utils/Strings.sol\":759:769  Math.log10 */\n      tag_172\n        /* \"@openzeppelin/contracts/utils/Strings.sol\":759:776  Math.log10(value) */\n      jump\t// in\n    tag_171:\n        /* \"@openzeppelin/contracts/utils/Strings.sol\":759:780  Math.log10(value) + 1 */\n      add\n        /* \"@openzeppelin/contracts/utils/Strings.sol\":742:780  uint256 length = Math.log10(value) + 1 */\n      swap1\n      pop\n        /* \"@openzeppelin/contracts/utils/Strings.sol\":794:814  string memory buffer */\n      0x00\n        /* \"@openzeppelin/contracts/utils/Strings.sol\":828:834  length */\n      dup2\n        /* \"@openzeppelin/contracts/utils/Strings.sol\":817:835  new string(length) */\n      0xffffffffffffffff\n      dup2\n      gt\n      iszero\n      tag_173\n      jumpi\n      tag_174\n      tag_175\n      jump\t// in\n    tag_174:\n    tag_173:\n      mload(0x40)\n      swap1\n      dup1\n      dup3\n      mstore\n      dup1\n      0x1f\n      add\n      not(0x1f)\n      and\n      0x20\n      add\n      dup3\n      add\n      0x40\n      mstore\n      dup1\n      iszero\n      tag_176\n      jumpi\n      dup2\n      0x20\n      add\n      0x01\n      dup3\n      mul\n      dup1\n      calldatasize\n      dup4\n      calldatacopy\n      dup1\n      dup3\n      add\n      swap2\n      pop\n      pop\n      swap1\n      pop\n    tag_176:\n      pop\n        /* \"@openzeppelin/contracts/utils/Strings.sol\":794:835  string memory buffer = new string(length) */\n      swap1\n      pop\n        /* \"@openzeppelin/contracts/utils/Strings.sol\":849:860  uint256 ptr */\n      0x00\n        /* \"@openzeppelin/contracts/utils/Strings.sol\":975:981  length */\n      dup3\n        /* \"@openzeppelin/contracts/utils/Strings.sol\":971:973  32 */\n      0x20\n        /* \"@openzeppelin/contracts/utils/Strings.sol\":967:982  add(32, length) */\n      add\n        /* \"@openzeppelin/contracts/utils/Strings.sol\":959:965  buffer */\n      dup3\n        /* \"@openzeppelin/contracts/utils/Strings.sol\":955:983  add(buffer, add(32, length)) */\n      add\n        /* \"@openzeppelin/contracts/utils/Strings.sol\":948:983  ptr := add(buffer, add(32, length)) */\n      swap1\n      pop\n        /* \"@openzeppelin/contracts/utils/Strings.sol\":1010:1292  while (true) {... */\n    tag_177:\n        /* \"@openzeppelin/contracts/utils/Strings.sol\":1017:1021  true */\n      0x01\n        /* \"@openzeppelin/contracts/utils/Strings.sol\":1010:1292  while (true) {... */\n      iszero\n      tag_178\n      jumpi\n        /* \"@openzeppelin/contracts/utils/Strings.sol\":1041:1046  ptr-- */\n      dup1\n      dup1\n      0x01\n      swap1\n      sub\n      swap2\n      pop\n      pop\n        /* \"@openzeppelin/contracts/utils/Strings.sol\":1180:1190  HEX_DIGITS */\n      0x3031323334353637383961626364656600000000000000000000000000000000\n        /* \"@openzeppelin/contracts/utils/Strings.sol\":1175:1177  10 */\n      0x0a\n        /* \"@openzeppelin/contracts/utils/Strings.sol\":1168:1173  value */\n      dup7\n        /* \"@openzeppelin/contracts/utils/Strings.sol\":1164:1178  mod(value, 10) */\n      mod\n        /* \"@openzeppelin/contracts/utils/Strings.sol\":1159:1191  byte(mod(value, 10), HEX_DIGITS) */\n      byte\n        /* \"@openzeppelin/contracts/utils/Strings.sol\":1154:1157  ptr */\n      dup2\n        /* \"@openzeppelin/contracts/utils/Strings.sol\":1146:1192  mstore8(ptr, byte(mod(value, 10), HEX_DIGITS)) */\n      mstore8\n        /* \"@openzeppelin/contracts/utils/Strings.sol\":1236:1238  10 */\n      0x0a\n        /* \"@openzeppelin/contracts/utils/Strings.sol\":1227:1238  value /= 10 */\n      dup6\n      dup2\n      tag_179\n      jumpi\n      tag_180\n      tag_181\n      jump\t// in\n    tag_180:\n    tag_179:\n      div\n      swap5\n      pop\n        /* \"@openzeppelin/contracts/utils/Strings.sol\":1269:1270  0 */\n      0x00\n        /* \"@openzeppelin/contracts/utils/Strings.sol\":1260:1265  value */\n      dup6\n        /* \"@openzeppelin/contracts/utils/Strings.sol\":1260:1270  value == 0 */\n      sub\n        /* \"@openzeppelin/contracts/utils/Strings.sol\":1010:1292  while (true) {... */\n      tag_177\n        /* \"@openzeppelin/contracts/utils/Strings.sol\":1256:1277  if (value == 0) break */\n      jumpi\n        /* \"@openzeppelin/contracts/utils/Strings.sol\":1010:1292  while (true) {... */\n    tag_178:\n        /* \"@openzeppelin/contracts/utils/Strings.sol\":1312:1318  buffer */\n      dup2\n        /* \"@openzeppelin/contracts/utils/Strings.sol\":1305:1318  return buffer */\n      swap4\n      pop\n      pop\n      pop\n      pop\n        /* \"@openzeppelin/contracts/utils/Strings.sol\":637:1335  function toString(uint256 value) internal pure returns (string memory) {... */\n      swap2\n      swap1\n      pop\n      jump\t// out\n        /* \"@openzeppelin/contracts/utils/math/Math.sol\":12214:13130  function log10(uint256 value) internal pure returns (uint256) {... */\n    tag_172:\n        /* \"@openzeppelin/contracts/utils/math/Math.sol\":12267:12274  uint256 */\n      0x00\n        /* \"@openzeppelin/contracts/utils/math/Math.sol\":12286:12300  uint256 result */\n      dup1\n        /* \"@openzeppelin/contracts/utils/math/Math.sol\":12303:12304  0 */\n      0x00\n        /* \"@openzeppelin/contracts/utils/math/Math.sol\":12286:12304  uint256 result = 0 */\n      swap1\n      pop\n        /* \"@openzeppelin/contracts/utils/math/Math.sol\":12351:12359  10 ** 64 */\n      0x184f03e93ff9f4daa797ed6e38ed64bf6a1f010000000000000000\n        /* \"@openzeppelin/contracts/utils/math/Math.sol\":12342:12347  value */\n      dup4\n        /* \"@openzeppelin/contracts/utils/math/Math.sol\":12342:12359  value >= 10 ** 64 */\n      lt\n        /* \"@openzeppelin/contracts/utils/math/Math.sol\":12338:12441  if (value >= 10 ** 64) {... */\n      tag_184\n      jumpi\n        /* \"@openzeppelin/contracts/utils/math/Math.sol\":12388:12396  10 ** 64 */\n      0x184f03e93ff9f4daa797ed6e38ed64bf6a1f010000000000000000\n        /* \"@openzeppelin/contracts/utils/math/Math.sol\":12379:12396  value /= 10 ** 64 */\n      dup4\n      dup2\n      tag_185\n      jumpi\n      tag_186\n      tag_181\n      jump\t// in\n    tag_186:\n    tag_185:\n      div\n      swap3\n      pop\n        /* \"@openzeppelin/contracts/utils/math/Math.sol\":12424:12426  64 */\n      0x40\n        /* \"@openzeppelin/contracts/utils/math/Math.sol\":12414:12426  result += 64 */\n      dup2\n      add\n      swap1\n      pop\n        /* \"@openzeppelin/contracts/utils/math/Math.sol\":12338:12441  if (value >= 10 ** 64) {... */\n    tag_184:\n        /* \"@openzeppelin/contracts/utils/math/Math.sol\":12467:12475  10 ** 32 */\n      0x04ee2d6d415b85acef8100000000\n        /* \"@openzeppelin/contracts/utils/math/Math.sol\":12458:12463  value */\n      dup4\n        /* \"@openzeppelin/contracts/utils/math/Math.sol\":12458:12475  value >= 10 ** 32 */\n      lt\n        /* \"@openzeppelin/contracts/utils/math/Math.sol\":12454:12557  if (value >= 10 ** 32) {... */\n      tag_187\n      jumpi\n        /* \"@openzeppelin/contracts/utils/math/Math.sol\":12504:12512  10 ** 32 */\n      0x04ee2d6d415b85acef8100000000\n        /* \"@openzeppelin/contracts/utils/math/Math.sol\":12495:12512  value /= 10 ** 32 */\n      dup4\n      dup2\n      tag_188\n      jumpi\n      tag_189\n      tag_181\n      jump\t// in\n    tag_189:\n    tag_188:\n      div\n      swap3\n      pop\n        /* \"@openzeppelin/contracts/utils/math/Math.sol\":12540:12542  32 */\n      0x20\n        /* \"@openzeppelin/contracts/utils/math/Math.sol\":12530:12542  result += 32 */\n      dup2\n      add\n      swap1\n      pop\n        /* \"@openzeppelin/contracts/utils/math/Math.sol\":12454:12557  if (value >= 10 ** 32) {... */\n    tag_187:\n        /* \"@openzeppelin/contracts/utils/math/Math.sol\":12583:12591  10 ** 16 */\n      0x2386f26fc10000\n        /* \"@openzeppelin/contracts/utils/math/Math.sol\":12574:12579  value */\n      dup4\n        /* \"@openzeppelin/contracts/utils/math/Math.sol\":12574:12591  value >= 10 ** 16 */\n      lt\n        /* \"@openzeppelin/contracts/utils/math/Math.sol\":12570:12673  if (value >= 10 ** 16) {... */\n      tag_190\n      jumpi\n        /* \"@openzeppelin/contracts/utils/math/Math.sol\":12620:12628  10 ** 16 */\n      0x2386f26fc10000\n        /* \"@openzeppelin/contracts/utils/math/Math.sol\":12611:12628  value /= 10 ** 16 */\n      dup4\n      dup2\n      tag_191\n      jumpi\n      tag_192\n      tag_181\n      jump\t// in\n    tag_192:\n    tag_191:\n      div\n      swap3\n      pop\n        /* \"@openzeppelin/contracts/utils/math/Math.sol\":12656:12658  16 */\n      0x10\n        /* \"@openzeppelin/contracts/utils/math/Math.sol\":12646:12658  result += 16 */\n      dup2\n      add\n      swap1\n      pop\n        /* \"@openzeppelin/contracts/utils/math/Math.sol\":12570:12673  if (value >= 10 ** 16) {... */\n    tag_190:\n        /* \"@openzeppelin/contracts/utils/math/Math.sol\":12699:12706  10 ** 8 */\n      0x05f5e100\n        /* \"@openzeppelin/contracts/utils/math/Math.sol\":12690:12695  value */\n      dup4\n        /* \"@openzeppelin/contracts/utils/math/Math.sol\":12690:12706  value >= 10 ** 8 */\n      lt\n        /* \"@openzeppelin/contracts/utils/math/Math.sol\":12686:12786  if (value >= 10 ** 8) {... */\n      tag_193\n      jumpi\n        /* \"@openzeppelin/contracts/utils/math/Math.sol\":12735:12742  10 ** 8 */\n      0x05f5e100\n        /* \"@openzeppelin/contracts/utils/math/Math.sol\":12726:12742  value /= 10 ** 8 */\n      dup4\n      dup2\n      tag_194\n      jumpi\n      tag_195\n      tag_181\n      jump\t// in\n    tag_195:\n    tag_194:\n      div\n      swap3\n      pop\n        /* \"@openzeppelin/contracts/utils/math/Math.sol\":12770:12771  8 */\n      0x08\n        /* \"@openzeppelin/contracts/utils/math/Math.sol\":12760:12771  result += 8 */\n      dup2\n      add\n      swap1\n      pop\n        /* \"@openzeppelin/contracts/utils/math/Math.sol\":12686:12786  if (value >= 10 ** 8) {... */\n    tag_193:\n        /* \"@openzeppelin/contracts/utils/math/Math.sol\":12812:12819  10 ** 4 */\n      0x2710\n        /* \"@openzeppelin/contracts/utils/math/Math.sol\":12803:12808  value */\n      dup4\n        /* \"@openzeppelin/contracts/utils/math/Math.sol\":12803:12819  value >= 10 ** 4 */\n      lt\n        /* \"@openzeppelin/contracts/utils/math/Math.sol\":12799:12899  if (value >= 10 ** 4) {... */\n      tag_196\n      jumpi\n        /* \"@openzeppelin/contracts/utils/math/Math.sol\":12848:12855  10 ** 4 */\n      0x2710\n        /* \"@openzeppelin/contracts/utils/math/Math.sol\":12839:12855  value /= 10 ** 4 */\n      dup4\n      dup2\n      tag_197\n      jumpi\n      tag_198\n      tag_181\n      jump\t// in\n    tag_198:\n    tag_197:\n      div\n      swap3\n      pop\n        /* \"@openzeppelin/contracts/utils/math/Math.sol\":12883:12884  4 */\n      0x04\n        /* \"@openzeppelin/contracts/utils/math/Math.sol\":12873:12884  result += 4 */\n      dup2\n      add\n      swap1\n      pop\n        /* \"@openzeppelin/contracts/utils/math/Math.sol\":12799:12899  if (value >= 10 ** 4) {... */\n    tag_196:\n        /* \"@openzeppelin/contracts/utils/math/Math.sol\":12925:12932  10 ** 2 */\n      0x64\n        /* \"@openzeppelin/contracts/utils/math/Math.sol\":12916:12921  value */\n      dup4\n        /* \"@openzeppelin/contracts/utils/math/Math.sol\":12916:12932  value >= 10 ** 2 */\n      lt\n        /* \"@openzeppelin/contracts/utils/math/Math.sol\":12912:13012  if (value >= 10 ** 2) {... */\n      tag_199\n      jumpi\n        /* \"@openzeppelin/contracts/utils/math/Math.sol\":12961:12968  10 ** 2 */\n      0x64\n        /* \"@openzeppelin/contracts/utils/math/Math.sol\":12952:12968  value /= 10 ** 2 */\n      dup4\n      dup2\n      tag_200\n      jumpi\n      tag_201\n      tag_181\n      jump\t// in\n    tag_201:\n    tag_200:\n      div\n      swap3\n      pop\n        /* \"@openzeppelin/contracts/utils/math/Math.sol\":12996:12997  2 */\n      0x02\n        /* \"@openzeppelin/contracts/utils/math/Math.sol\":12986:12997  result += 2 */\n      dup2\n      add\n      swap1\n      pop\n        /* \"@openzeppelin/contracts/utils/math/Math.sol\":12912:13012  if (value >= 10 ** 2) {... */\n    tag_199:\n        /* \"@openzeppelin/contracts/utils/math/Math.sol\":13038:13045  10 ** 1 */\n      0x0a\n        /* \"@openzeppelin/contracts/utils/math/Math.sol\":13029:13034  value */\n      dup4\n        /* \"@openzeppelin/contracts/utils/math/Math.sol\":13029:13045  value >= 10 ** 1 */\n      lt\n        /* \"@openzeppelin/contracts/utils/math/Math.sol\":13025:13091  if (value >= 10 ** 1) {... */\n      tag_202\n      jumpi\n        /* \"@openzeppelin/contracts/utils/math/Math.sol\":13075:13076  1 */\n      0x01\n        /* \"@openzeppelin/contracts/utils/math/Math.sol\":13065:13076  result += 1 */\n      dup2\n      add\n      swap1\n      pop\n        /* \"@openzeppelin/contracts/utils/math/Math.sol\":13025:13091  if (value >= 10 ** 1) {... */\n    tag_202:\n        /* \"@openzeppelin/contracts/utils/math/Math.sol\":13117:13123  result */\n      dup1\n        /* \"@openzeppelin/contracts/utils/math/Math.sol\":13110:13123  return result */\n      swap2\n      pop\n      pop\n        /* \"@openzeppelin/contracts/utils/math/Math.sol\":12214:13130  function log10(uint256 value) internal pure returns (uint256) {... */\n      swap2\n      swap1\n      pop\n      jump\t// out\n        /* \"#utility.yul\":7:97   */\n    tag_203:\n        /* \"#utility.yul\":41:48   */\n      0x00\n        /* \"#utility.yul\":84:89   */\n      dup2\n        /* \"#utility.yul\":77:90   */\n      iszero\n        /* \"#utility.yul\":70:91   */\n      iszero\n        /* \"#utility.yul\":59:91   */\n      swap1\n      pop\n        /* \"#utility.yul\":7:97   */\n      swap2\n      swap1\n      pop\n      jump\t// out\n        /* \"#utility.yul\":103:212   */\n    tag_204:\n        /* \"#utility.yul\":184:205   */\n      tag_246\n        /* \"#utility.yul\":199:204   */\n      dup2\n        /* \"#utility.yul\":184:205   */\n      tag_203\n      jump\t// in\n    tag_246:\n        /* \"#utility.yul\":179:182   */\n      dup3\n        /* \"#utility.yul\":172:206   */\n      mstore\n        /* \"#utility.yul\":103:212   */\n      pop\n      pop\n      jump\t// out\n        /* \"#utility.yul\":218:428   */\n    tag_26:\n        /* \"#utility.yul\":305:309   */\n      0x00\n        /* \"#utility.yul\":343:345   */\n      0x20\n        /* \"#utility.yul\":332:341   */\n      dup3\n        /* \"#utility.yul\":328:346   */\n      add\n        /* \"#utility.yul\":320:346   */\n      swap1\n      pop\n        /* \"#utility.yul\":356:421   */\n      tag_248\n        /* \"#utility.yul\":418:419   */\n      0x00\n        /* \"#utility.yul\":407:416   */\n      dup4\n        /* \"#utility.yul\":403:420   */\n      add\n        /* \"#utility.yul\":394:400   */\n      dup5\n        /* \"#utility.yul\":356:421   */\n      tag_204\n      jump\t// in\n    tag_248:\n        /* \"#utility.yul\":218:428   */\n      swap3\n      swap2\n      pop\n      pop\n      jump\t// out\n        /* \"#utility.yul\":434:533   */\n    tag_205:\n        /* \"#utility.yul\":486:492   */\n      0x00\n        /* \"#utility.yul\":520:525   */\n      dup2\n        /* \"#utility.yul\":514:526   */\n      mload\n        /* \"#utility.yul\":504:526   */\n      swap1\n      pop\n        /* \"#utility.yul\":434:533   */\n      swap2\n      swap1\n      pop\n      jump\t// out\n        /* \"#utility.yul\":539:708   */\n    tag_206:\n        /* \"#utility.yul\":623:634   */\n      0x00\n        /* \"#utility.yul\":657:663   */\n      dup3\n        /* \"#utility.yul\":652:655   */\n      dup3\n        /* \"#utility.yul\":645:664   */\n      mstore\n        /* \"#utility.yul\":697:701   */\n      0x20\n        /* \"#utility.yul\":692:695   */\n      dup3\n        /* \"#utility.yul\":688:702   */\n      add\n        /* \"#utility.yul\":673:702   */\n      swap1\n      pop\n        /* \"#utility.yul\":539:708   */\n      swap3\n      swap2\n      pop\n      pop\n      jump\t// out\n        /* \"#utility.yul\":714:853   */\n    tag_207:\n        /* \"#utility.yul\":803:809   */\n      dup3\n        /* \"#utility.yul\":798:801   */\n      dup2\n        /* \"#utility.yul\":793:796   */\n      dup4\n        /* \"#utility.yul\":787:810   */\n      mcopy\n        /* \"#utility.yul\":844:845   */\n      0x00\n        /* \"#utility.yul\":835:841   */\n      dup4\n        /* \"#utility.yul\":830:833   */\n      dup4\n        /* \"#utility.yul\":826:842   */\n      add\n        /* \"#utility.yul\":819:846   */\n      mstore\n        /* \"#utility.yul\":714:853   */\n      pop\n      pop\n      pop\n      jump\t// out\n        /* \"#utility.yul\":859:961   */\n    tag_208:\n        /* \"#utility.yul\":900:906   */\n      0x00\n        /* \"#utility.yul\":951:953   */\n      0x1f\n        /* \"#utility.yul\":947:954   */\n      not\n        /* \"#utility.yul\":942:944   */\n      0x1f\n        /* \"#utility.yul\":935:940   */\n      dup4\n        /* \"#utility.yul\":931:945   */\n      add\n        /* \"#utility.yul\":927:955   */\n      and\n        /* \"#utility.yul\":917:955   */\n      swap1\n      pop\n        /* \"#utility.yul\":859:961   */\n      swap2\n      swap1\n      pop\n      jump\t// out\n        /* \"#utility.yul\":967:1344   */\n    tag_209:\n        /* \"#utility.yul\":1055:1058   */\n      0x00\n        /* \"#utility.yul\":1083:1122   */\n      tag_254\n        /* \"#utility.yul\":1116:1121   */\n      dup3\n        /* \"#utility.yul\":1083:1122   */\n      tag_205\n      jump\t// in\n    tag_254:\n        /* \"#utility.yul\":1138:1209   */\n      tag_255\n        /* \"#utility.yul\":1202:1208   */\n      dup2\n        /* \"#utility.yul\":1197:1200   */\n      dup6\n        /* \"#utility.yul\":1138:1209   */\n      tag_206\n      jump\t// in\n    tag_255:\n        /* \"#utility.yul\":1131:1209   */\n      swap4\n      pop\n        /* \"#utility.yul\":1218:1283   */\n      tag_256\n        /* \"#utility.yul\":1276:1282   */\n      dup2\n        /* \"#utility.yul\":1271:1274   */\n      dup6\n        /* \"#utility.yul\":1264:1268   */\n      0x20\n        /* \"#utility.yul\":1257:1262   */\n      dup7\n        /* \"#utility.yul\":1253:1269   */\n      add\n        /* \"#utility.yul\":1218:1283   */\n      tag_207\n      jump\t// in\n    tag_256:\n        /* \"#utility.yul\":1308:1337   */\n      tag_257\n        /* \"#utility.yul\":1330:1336   */\n      dup2\n        /* \"#utility.yul\":1308:1337   */\n      tag_208\n      jump\t// in\n    tag_257:\n        /* \"#utility.yul\":1303:1306   */\n      dup5\n        /* \"#utility.yul\":1299:1338   */\n      add\n        /* \"#utility.yul\":1292:1338   */\n      swap2\n      pop\n        /* \"#utility.yul\":1059:1344   */\n      pop\n        /* \"#utility.yul\":967:1344   */\n      swap3\n      swap2\n      pop\n      pop\n      jump\t// out\n        /* \"#utility.yul\":1350:1663   */\n    tag_31:\n        /* \"#utility.yul\":1463:1467   */\n      0x00\n        /* \"#utility.yul\":1501:1503   */\n      0x20\n        /* \"#utility.yul\":1490:1499   */\n      dup3\n        /* \"#utility.yul\":1486:1504   */\n      add\n        /* \"#utility.yul\":1478:1504   */\n      swap1\n      pop\n        /* \"#utility.yul\":1550:1559   */\n      dup2\n        /* \"#utility.yul\":1544:1548   */\n      dup2\n        /* \"#utility.yul\":1540:1560   */\n      sub\n        /* \"#utility.yul\":1536:1537   */\n      0x00\n        /* \"#utility.yul\":1525:1534   */\n      dup4\n        /* \"#utility.yul\":1521:1538   */\n      add\n        /* \"#utility.yul\":1514:1561   */\n      mstore\n        /* \"#utility.yul\":1578:1656   */\n      tag_259\n        /* \"#utility.yul\":1651:1655   */\n      dup2\n        /* \"#utility.yul\":1642:1648   */\n      dup5\n        /* \"#utility.yul\":1578:1656   */\n      tag_209\n      jump\t// in\n    tag_259:\n        /* \"#utility.yul\":1570:1656   */\n      swap1\n      pop\n        /* \"#utility.yul\":1350:1663   */\n      swap3\n      swap2\n      pop\n      pop\n      jump\t// out\n        /* \"#utility.yul\":1669:1746   */\n    tag_210:\n        /* \"#utility.yul\":1706:1713   */\n      0x00\n        /* \"#utility.yul\":1735:1740   */\n      dup2\n        /* \"#utility.yul\":1724:1740   */\n      swap1\n      pop\n        /* \"#utility.yul\":1669:1746   */\n      swap2\n      swap1\n      pop\n      jump\t// out\n        /* \"#utility.yul\":1752:1870   */\n    tag_211:\n        /* \"#utility.yul\":1839:1863   */\n      tag_262\n        /* \"#utility.yul\":1857:1862   */\n      dup2\n        /* \"#utility.yul\":1839:1863   */\n      tag_210\n      jump\t// in\n    tag_262:\n        /* \"#utility.yul\":1834:1837   */\n      dup3\n        /* \"#utility.yul\":1827:1864   */\n      mstore\n        /* \"#utility.yul\":1752:1870   */\n      pop\n      pop\n      jump\t// out\n        /* \"#utility.yul\":1876:2098   */\n    tag_40:\n        /* \"#utility.yul\":1969:1973   */\n      0x00\n        /* \"#utility.yul\":2007:2009   */\n      0x20\n        /* \"#utility.yul\":1996:2005   */\n      dup3\n        /* \"#utility.yul\":1992:2010   */\n      add\n        /* \"#utility.yul\":1984:2010   */\n      swap1\n      pop\n        /* \"#utility.yul\":2020:2091   */\n      tag_264\n        /* \"#utility.yul\":2088:2089   */\n      0x00\n        /* \"#utility.yul\":2077:2086   */\n      dup4\n        /* \"#utility.yul\":2073:2090   */\n      add\n        /* \"#utility.yul\":2064:2070   */\n      dup5\n        /* \"#utility.yul\":2020:2091   */\n      tag_211\n      jump\t// in\n    tag_264:\n        /* \"#utility.yul\":1876:2098   */\n      swap3\n      swap2\n      pop\n      pop\n      jump\t// out\n        /* \"#utility.yul\":2104:2179   */\n    tag_212:\n        /* \"#utility.yul\":2137:2143   */\n      0x00\n        /* \"#utility.yul\":2170:2172   */\n      0x40\n        /* \"#utility.yul\":2164:2173   */\n      mload\n        /* \"#utility.yul\":2154:2173   */\n      swap1\n      pop\n        /* \"#utility.yul\":2104:2179   */\n      swap1\n      jump\t// out\n        /* \"#utility.yul\":2185:2302   */\n    tag_213:\n        /* \"#utility.yul\":2294:2295   */\n      0x00\n        /* \"#utility.yul\":2291:2292   */\n      dup1\n        /* \"#utility.yul\":2284:2296   */\n      revert\n        /* \"#utility.yul\":2308:2425   */\n    tag_214:\n        /* \"#utility.yul\":2417:2418   */\n      0x00\n        /* \"#utility.yul\":2414:2415   */\n      dup1\n        /* \"#utility.yul\":2407:2419   */\n      revert\n        /* \"#utility.yul\":2431:2548   */\n    tag_215:\n        /* \"#utility.yul\":2540:2541   */\n      0x00\n        /* \"#utility.yul\":2537:2538   */\n      dup1\n        /* \"#utility.yul\":2530:2542   */\n      revert\n        /* \"#utility.yul\":2554:2671   */\n    tag_216:\n        /* \"#utility.yul\":2663:2664   */\n      0x00\n        /* \"#utility.yul\":2660:2661   */\n      dup1\n        /* \"#utility.yul\":2653:2665   */\n      revert\n        /* \"#utility.yul\":2677:2857   */\n    tag_175:\n        /* \"#utility.yul\":2725:2802   */\n      0x4e487b7100000000000000000000000000000000000000000000000000000000\n        /* \"#utility.yul\":2722:2723   */\n      0x00\n        /* \"#utility.yul\":2715:2803   */\n      mstore\n        /* \"#utility.yul\":2822:2826   */\n      0x41\n        /* \"#utility.yul\":2819:2820   */\n      0x04\n        /* \"#utility.yul\":2812:2827   */\n      mstore\n        /* \"#utility.yul\":2846:2850   */\n      0x24\n        /* \"#utility.yul\":2843:2844   */\n      0x00\n        /* \"#utility.yul\":2836:2851   */\n      revert\n        /* \"#utility.yul\":2863:3144   */\n    tag_217:\n        /* \"#utility.yul\":2946:2973   */\n      tag_272\n        /* \"#utility.yul\":2968:2972   */\n      dup3\n        /* \"#utility.yul\":2946:2973   */\n      tag_208\n      jump\t// in\n    tag_272:\n        /* \"#utility.yul\":2938:2944   */\n      dup2\n        /* \"#utility.yul\":2934:2974   */\n      add\n        /* \"#utility.yul\":3076:3082   */\n      dup2\n        /* \"#utility.yul\":3064:3074   */\n      dup2\n        /* \"#utility.yul\":3061:3083   */\n      lt\n        /* \"#utility.yul\":3040:3058   */\n      0xffffffffffffffff\n        /* \"#utility.yul\":3028:3038   */\n      dup3\n        /* \"#utility.yul\":3025:3059   */\n      gt\n        /* \"#utility.yul\":3022:3084   */\n      or\n        /* \"#utility.yul\":3019:3107   */\n      iszero\n      tag_273\n      jumpi\n        /* \"#utility.yul\":3087:3105   */\n      tag_274\n      tag_175\n      jump\t// in\n    tag_274:\n        /* \"#utility.yul\":3019:3107   */\n    tag_273:\n        /* \"#utility.yul\":3127:3137   */\n      dup1\n        /* \"#utility.yul\":3123:3125   */\n      0x40\n        /* \"#utility.yul\":3116:3138   */\n      mstore\n        /* \"#utility.yul\":2906:3144   */\n      pop\n        /* \"#utility.yul\":2863:3144   */\n      pop\n      pop\n      jump\t// out\n        /* \"#utility.yul\":3150:3279   */\n    tag_218:\n        /* \"#utility.yul\":3184:3190   */\n      0x00\n        /* \"#utility.yul\":3211:3231   */\n      tag_276\n      tag_212\n      jump\t// in\n    tag_276:\n        /* \"#utility.yul\":3201:3231   */\n      swap1\n      pop\n        /* \"#utility.yul\":3240:3273   */\n      tag_277\n        /* \"#utility.yul\":3268:3272   */\n      dup3\n        /* \"#utility.yul\":3260:3266   */\n      dup3\n        /* \"#utility.yul\":3240:3273   */\n      tag_217\n      jump\t// in\n    tag_277:\n        /* \"#utility.yul\":3150:3279   */\n      swap2\n      swap1\n      pop\n      jump\t// out\n        /* \"#utility.yul\":3285:3593   */\n    tag_219:\n        /* \"#utility.yul\":3347:3351   */\n      0x00\n        /* \"#utility.yul\":3437:3455   */\n      0xffffffffffffffff\n        /* \"#utility.yul\":3429:3435   */\n      dup3\n        /* \"#utility.yul\":3426:3456   */\n      gt\n        /* \"#utility.yul\":3423:3479   */\n      iszero\n      tag_279\n      jumpi\n        /* \"#utility.yul\":3459:3477   */\n      tag_280\n      tag_175\n      jump\t// in\n    tag_280:\n        /* \"#utility.yul\":3423:3479   */\n    tag_279:\n        /* \"#utility.yul\":3497:3526   */\n      tag_281\n        /* \"#utility.yul\":3519:3525   */\n      dup3\n        /* \"#utility.yul\":3497:3526   */\n      tag_208\n      jump\t// in\n    tag_281:\n        /* \"#utility.yul\":3489:3526   */\n      swap1\n      pop\n        /* \"#utility.yul\":3581:3585   */\n      0x20\n        /* \"#utility.yul\":3575:3579   */\n      dup2\n        /* \"#utility.yul\":3571:3586   */\n      add\n        /* \"#utility.yul\":3563:3586   */\n      swap1\n      pop\n        /* \"#utility.yul\":3285:3593   */\n      swap2\n      swap1\n      pop\n      jump\t// out\n        /* \"#utility.yul\":3599:3747   */\n    tag_220:\n        /* \"#utility.yul\":3697:3703   */\n      dup3\n        /* \"#utility.yul\":3692:3695   */\n      dup2\n        /* \"#utility.yul\":3687:3690   */\n      dup4\n        /* \"#utility.yul\":3674:3704   */\n      calldatacopy\n        /* \"#utility.yul\":3738:3739   */\n      0x00\n        /* \"#utility.yul\":3729:3735   */\n      dup4\n        /* \"#utility.yul\":3724:3727   */\n      dup4\n        /* \"#utility.yul\":3720:3736   */\n      add\n        /* \"#utility.yul\":3713:3740   */\n      mstore\n        /* \"#utility.yul\":3599:3747   */\n      pop\n      pop\n      pop\n      jump\t// out\n        /* \"#utility.yul\":3753:4178   */\n    tag_221:\n        /* \"#utility.yul\":3831:3836   */\n      0x00\n        /* \"#utility.yul\":3856:3922   */\n      tag_284\n        /* \"#utility.yul\":3872:3921   */\n      tag_285\n        /* \"#utility.yul\":3914:3920   */\n      dup5\n        /* \"#utility.yul\":3872:3921   */\n      tag_219\n      jump\t// in\n    tag_285:\n        /* \"#utility.yul\":3856:3922   */\n      tag_218\n      jump\t// in\n    tag_284:\n        /* \"#utility.yul\":3847:3922   */\n      swap1\n      pop\n        /* \"#utility.yul\":3945:3951   */\n      dup3\n        /* \"#utility.yul\":3938:3943   */\n      dup2\n        /* \"#utility.yul\":3931:3952   */\n      mstore\n        /* \"#utility.yul\":3983:3987   */\n      0x20\n        /* \"#utility.yul\":3976:3981   */\n      dup2\n        /* \"#utility.yul\":3972:3988   */\n      add\n        /* \"#utility.yul\":4021:4024   */\n      dup5\n        /* \"#utility.yul\":4012:4018   */\n      dup5\n        /* \"#utility.yul\":4007:4010   */\n      dup5\n        /* \"#utility.yul\":4003:4019   */\n      add\n        /* \"#utility.yul\":4000:4025   */\n      gt\n        /* \"#utility.yul\":3997:4109   */\n      iszero\n      tag_286\n      jumpi\n        /* \"#utility.yul\":4028:4107   */\n      tag_287\n      tag_216\n      jump\t// in\n    tag_287:\n        /* \"#utility.yul\":3997:4109   */\n    tag_286:\n        /* \"#utility.yul\":4118:4172   */\n      tag_288\n        /* \"#utility.yul\":4165:4171   */\n      dup5\n        /* \"#utility.yul\":4160:4163   */\n      dup3\n        /* \"#utility.yul\":4155:4158   */\n      dup6\n        /* \"#utility.yul\":4118:4172   */\n      tag_220\n      jump\t// in\n    tag_288:\n        /* \"#utility.yul\":3837:4178   */\n      pop\n        /* \"#utility.yul\":3753:4178   */\n      swap4\n      swap3\n      pop\n      pop\n      pop\n      jump\t// out\n        /* \"#utility.yul\":4198:4538   */\n    tag_222:\n        /* \"#utility.yul\":4254:4259   */\n      0x00\n        /* \"#utility.yul\":4303:4306   */\n      dup3\n        /* \"#utility.yul\":4296:4300   */\n      0x1f\n        /* \"#utility.yul\":4288:4294   */\n      dup4\n        /* \"#utility.yul\":4284:4301   */\n      add\n        /* \"#utility.yul\":4280:4307   */\n      slt\n        /* \"#utility.yul\":4270:4392   */\n      tag_290\n      jumpi\n        /* \"#utility.yul\":4311:4390   */\n      tag_291\n      tag_215\n      jump\t// in\n    tag_291:\n        /* \"#utility.yul\":4270:4392   */\n    tag_290:\n        /* \"#utility.yul\":4428:4434   */\n      dup2\n        /* \"#utility.yul\":4415:4435   */\n      calldataload\n        /* \"#utility.yul\":4453:4532   */\n      tag_292\n        /* \"#utility.yul\":4528:4531   */\n      dup5\n        /* \"#utility.yul\":4520:4526   */\n      dup3\n        /* \"#utility.yul\":4513:4517   */\n      0x20\n        /* \"#utility.yul\":4505:4511   */\n      dup7\n        /* \"#utility.yul\":4501:4518   */\n      add\n        /* \"#utility.yul\":4453:4532   */\n      tag_221\n      jump\t// in\n    tag_292:\n        /* \"#utility.yul\":4444:4532   */\n      swap2\n      pop\n        /* \"#utility.yul\":4260:4538   */\n      pop\n        /* \"#utility.yul\":4198:4538   */\n      swap3\n      swap2\n      pop\n      pop\n      jump\t// out\n        /* \"#utility.yul\":4544:5053   */\n    tag_58:\n        /* \"#utility.yul\":4613:4619   */\n      0x00\n        /* \"#utility.yul\":4662:4664   */\n      0x20\n        /* \"#utility.yul\":4650:4659   */\n      dup3\n        /* \"#utility.yul\":4641:4648   */\n      dup5\n        /* \"#utility.yul\":4637:4660   */\n      sub\n        /* \"#utility.yul\":4633:4665   */\n      slt\n        /* \"#utility.yul\":4630:4749   */\n      iszero\n      tag_294\n      jumpi\n        /* \"#utility.yul\":4668:4747   */\n      tag_295\n      tag_213\n      jump\t// in\n    tag_295:\n        /* \"#utility.yul\":4630:4749   */\n    tag_294:\n        /* \"#utility.yul\":4816:4817   */\n      0x00\n        /* \"#utility.yul\":4805:4814   */\n      dup3\n        /* \"#utility.yul\":4801:4818   */\n      add\n        /* \"#utility.yul\":4788:4819   */\n      calldataload\n        /* \"#utility.yul\":4846:4864   */\n      0xffffffffffffffff\n        /* \"#utility.yul\":4838:4844   */\n      dup2\n        /* \"#utility.yul\":4835:4865   */\n      gt\n        /* \"#utility.yul\":4832:4949   */\n      iszero\n      tag_296\n      jumpi\n        /* \"#utility.yul\":4868:4947   */\n      tag_297\n      tag_214\n      jump\t// in\n    tag_297:\n        /* \"#utility.yul\":4832:4949   */\n    tag_296:\n        /* \"#utility.yul\":4973:5036   */\n      tag_298\n        /* \"#utility.yul\":5028:5035   */\n      dup5\n        /* \"#utility.yul\":5019:5025   */\n      dup3\n        /* \"#utility.yul\":5008:5017   */\n      dup6\n        /* \"#utility.yul\":5004:5026   */\n      add\n        /* \"#utility.yul\":4973:5036   */\n      tag_222\n      jump\t// in\n    tag_298:\n        /* \"#utility.yul\":4963:5036   */\n      swap2\n      pop\n        /* \"#utility.yul\":4759:5046   */\n      pop\n        /* \"#utility.yul\":4544:5053   */\n      swap3\n      swap2\n      pop\n      pop\n      jump\t// out\n        /* \"#utility.yul\":5059:5185   */\n    tag_223:\n        /* \"#utility.yul\":5096:5103   */\n      0x00\n        /* \"#utility.yul\":5136:5178   */\n      0xffffffffffffffffffffffffffffffffffffffff\n        /* \"#utility.yul\":5129:5134   */\n      dup3\n        /* \"#utility.yul\":5125:5179   */\n      and\n        /* \"#utility.yul\":5114:5179   */\n      swap1\n      pop\n        /* \"#utility.yul\":5059:5185   */\n      swap2\n      swap1\n      pop\n      jump\t// out\n        /* \"#utility.yul\":5191:5287   */\n    tag_224:\n        /* \"#utility.yul\":5228:5235   */\n      0x00\n        /* \"#utility.yul\":5257:5281   */\n      tag_301\n        /* \"#utility.yul\":5275:5280   */\n      dup3\n        /* \"#utility.yul\":5257:5281   */\n      tag_223\n      jump\t// in\n    tag_301:\n        /* \"#utility.yul\":5246:5281   */\n      swap1\n      pop\n        /* \"#utility.yul\":5191:5287   */\n      swap2\n      swap1\n      pop\n      jump\t// out\n        /* \"#utility.yul\":5293:5411   */\n    tag_225:\n        /* \"#utility.yul\":5380:5404   */\n      tag_303\n        /* \"#utility.yul\":5398:5403   */\n      dup2\n        /* \"#utility.yul\":5380:5404   */\n      tag_224\n      jump\t// in\n    tag_303:\n        /* \"#utility.yul\":5375:5378   */\n      dup3\n        /* \"#utility.yul\":5368:5405   */\n      mstore\n        /* \"#utility.yul\":5293:5411   */\n      pop\n      pop\n      jump\t// out\n        /* \"#utility.yul\":5417:5639   */\n    tag_65:\n        /* \"#utility.yul\":5510:5514   */\n      0x00\n        /* \"#utility.yul\":5548:5550   */\n      0x20\n        /* \"#utility.yul\":5537:5546   */\n      dup3\n        /* \"#utility.yul\":5533:5551   */\n      add\n        /* \"#utility.yul\":5525:5551   */\n      swap1\n      pop\n        /* \"#utility.yul\":5561:5632   */\n      tag_305\n        /* \"#utility.yul\":5629:5630   */\n      0x00\n        /* \"#utility.yul\":5618:5627   */\n      dup4\n        /* \"#utility.yul\":5614:5631   */\n      add\n        /* \"#utility.yul\":5605:5611   */\n      dup5\n        /* \"#utility.yul\":5561:5632   */\n      tag_225\n      jump\t// in\n    tag_305:\n        /* \"#utility.yul\":5417:5639   */\n      swap3\n      swap2\n      pop\n      pop\n      jump\t// out\n        /* \"#utility.yul\":5645:5767   */\n    tag_226:\n        /* \"#utility.yul\":5718:5742   */\n      tag_307\n        /* \"#utility.yul\":5736:5741   */\n      dup2\n        /* \"#utility.yul\":5718:5742   */\n      tag_210\n      jump\t// in\n    tag_307:\n        /* \"#utility.yul\":5711:5716   */\n      dup2\n        /* \"#utility.yul\":5708:5743   */\n      eq\n        /* \"#utility.yul\":5698:5761   */\n      tag_308\n      jumpi\n        /* \"#utility.yul\":5757:5758   */\n      0x00\n        /* \"#utility.yul\":5754:5755   */\n      dup1\n        /* \"#utility.yul\":5747:5759   */\n      revert\n        /* \"#utility.yul\":5698:5761   */\n    tag_308:\n        /* \"#utility.yul\":5645:5767   */\n      pop\n      jump\t// out\n        /* \"#utility.yul\":5773:5912   */\n    tag_227:\n        /* \"#utility.yul\":5819:5824   */\n      0x00\n        /* \"#utility.yul\":5857:5863   */\n      dup2\n        /* \"#utility.yul\":5844:5864   */\n      calldataload\n        /* \"#utility.yul\":5835:5864   */\n      swap1\n      pop\n        /* \"#utility.yul\":5873:5906   */\n      tag_310\n        /* \"#utility.yul\":5900:5905   */\n      dup2\n        /* \"#utility.yul\":5873:5906   */\n      tag_226\n      jump\t// in\n    tag_310:\n        /* \"#utility.yul\":5773:5912   */\n      swap3\n      swap2\n      pop\n      pop\n      jump\t// out\n        /* \"#utility.yul\":5918:6247   */\n    tag_69:\n        /* \"#utility.yul\":5977:5983   */\n      0x00\n        /* \"#utility.yul\":6026:6028   */\n      0x20\n        /* \"#utility.yul\":6014:6023   */\n      dup3\n        /* \"#utility.yul\":6005:6012   */\n      dup5\n        /* \"#utility.yul\":6001:6024   */\n      sub\n        /* \"#utility.yul\":5997:6029   */\n      slt\n        /* \"#utility.yul\":5994:6113   */\n      iszero\n      tag_312\n      jumpi\n        /* \"#utility.yul\":6032:6111   */\n      tag_313\n      tag_213\n      jump\t// in\n    tag_313:\n        /* \"#utility.yul\":5994:6113   */\n    tag_312:\n        /* \"#utility.yul\":6152:6153   */\n      0x00\n        /* \"#utility.yul\":6177:6230   */\n      tag_314\n        /* \"#utility.yul\":6222:6229   */\n      dup5\n        /* \"#utility.yul\":6213:6219   */\n      dup3\n        /* \"#utility.yul\":6202:6211   */\n      dup6\n        /* \"#utility.yul\":6198:6220   */\n      add\n        /* \"#utility.yul\":6177:6230   */\n      tag_227\n      jump\t// in\n    tag_314:\n        /* \"#utility.yul\":6167:6230   */\n      swap2\n      pop\n        /* \"#utility.yul\":6123:6240   */\n      pop\n        /* \"#utility.yul\":5918:6247   */\n      swap3\n      swap2\n      pop\n      pop\n      jump\t// out\n        /* \"#utility.yul\":6253:6433   */\n    tag_228:\n        /* \"#utility.yul\":6301:6378   */\n      0x4e487b7100000000000000000000000000000000000000000000000000000000\n        /* \"#utility.yul\":6298:6299   */\n      0x00\n        /* \"#utility.yul\":6291:6379   */\n      mstore\n        /* \"#utility.yul\":6398:6402   */\n      0x22\n        /* \"#utility.yul\":6395:6396   */\n      0x04\n        /* \"#utility.yul\":6388:6403   */\n      mstore\n        /* \"#utility.yul\":6422:6426   */\n      0x24\n        /* \"#utility.yul\":6419:6420   */\n      0x00\n        /* \"#utility.yul\":6412:6427   */\n      revert\n        /* \"#utility.yul\":6439:6759   */\n    tag_96:\n        /* \"#utility.yul\":6483:6489   */\n      0x00\n        /* \"#utility.yul\":6520:6521   */\n      0x02\n        /* \"#utility.yul\":6514:6518   */\n      dup3\n        /* \"#utility.yul\":6510:6522   */\n      div\n        /* \"#utility.yul\":6500:6522   */\n      swap1\n      pop\n        /* \"#utility.yul\":6567:6568   */\n      0x01\n        /* \"#utility.yul\":6561:6565   */\n      dup3\n        /* \"#utility.yul\":6557:6569   */\n      and\n        /* \"#utility.yul\":6588:6606   */\n      dup1\n        /* \"#utility.yul\":6578:6659   */\n      tag_317\n      jumpi\n        /* \"#utility.yul\":6644:6648   */\n      0x7f\n        /* \"#utility.yul\":6636:6642   */\n      dup3\n        /* \"#utility.yul\":6632:6649   */\n      and\n        /* \"#utility.yul\":6622:6649   */\n      swap2\n      pop\n        /* \"#utility.yul\":6578:6659   */\n    tag_317:\n        /* \"#utility.yul\":6706:6708   */\n      0x20\n        /* \"#utility.yul\":6698:6704   */\n      dup3\n        /* \"#utility.yul\":6695:6709   */\n      lt\n        /* \"#utility.yul\":6675:6693   */\n      dup2\n        /* \"#utility.yul\":6672:6710   */\n      sub\n        /* \"#utility.yul\":6669:6753   */\n      tag_318\n      jumpi\n        /* \"#utility.yul\":6725:6743   */\n      tag_319\n      tag_228\n      jump\t// in\n    tag_319:\n        /* \"#utility.yul\":6669:6753   */\n    tag_318:\n        /* \"#utility.yul\":6490:6759   */\n      pop\n        /* \"#utility.yul\":6439:6759   */\n      swap2\n      swap1\n      pop\n      jump\t// out\n        /* \"#utility.yul\":6765:6998   */\n    tag_229:\n        /* \"#utility.yul\":6905:6939   */\n      0x4f6e6c792074686520636f6e7472616374206f776e6572206d61792063616c6c\n        /* \"#utility.yul\":6901:6902   */\n      0x00\n        /* \"#utility.yul\":6893:6899   */\n      dup3\n        /* \"#utility.yul\":6889:6903   */\n      add\n        /* \"#utility.yul\":6882:6940   */\n      mstore\n        /* \"#utility.yul\":6974:6990   */\n      0x20746869732066756e6374696f6e000000000000000000000000000000000000\n        /* \"#utility.yul\":6969:6971   */\n      0x20\n        /* \"#utility.yul\":6961:6967   */\n      dup3\n        /* \"#utility.yul\":6957:6972   */\n      add\n        /* \"#utility.yul\":6950:6991   */\n      mstore\n        /* \"#utility.yul\":6765:6998   */\n      pop\n      jump\t// out\n        /* \"#utility.yul\":7004:7370   */\n    tag_230:\n        /* \"#utility.yul\":7146:7149   */\n      0x00\n        /* \"#utility.yul\":7167:7234   */\n      tag_322\n        /* \"#utility.yul\":7231:7233   */\n      0x2e\n        /* \"#utility.yul\":7226:7229   */\n      dup4\n        /* \"#utility.yul\":7167:7234   */\n      tag_206\n      jump\t// in\n    tag_322:\n        /* \"#utility.yul\":7160:7234   */\n      swap2\n      pop\n        /* \"#utility.yul\":7243:7336   */\n      tag_323\n        /* \"#utility.yul\":7332:7335   */\n      dup3\n        /* \"#utility.yul\":7243:7336   */\n      tag_229\n      jump\t// in\n    tag_323:\n        /* \"#utility.yul\":7361:7363   */\n      0x40\n        /* \"#utility.yul\":7356:7359   */\n      dup3\n        /* \"#utility.yul\":7352:7364   */\n      add\n        /* \"#utility.yul\":7345:7364   */\n      swap1\n      pop\n        /* \"#utility.yul\":7004:7370   */\n      swap2\n      swap1\n      pop\n      jump\t// out\n        /* \"#utility.yul\":7376:7795   */\n    tag_110:\n        /* \"#utility.yul\":7542:7546   */\n      0x00\n        /* \"#utility.yul\":7580:7582   */\n      0x20\n        /* \"#utility.yul\":7569:7578   */\n      dup3\n        /* \"#utility.yul\":7565:7583   */\n      add\n        /* \"#utility.yul\":7557:7583   */\n      swap1\n      pop\n        /* \"#utility.yul\":7629:7638   */\n      dup2\n        /* \"#utility.yul\":7623:7627   */\n      dup2\n        /* \"#utility.yul\":7619:7639   */\n      sub\n        /* \"#utility.yul\":7615:7616   */\n      0x00\n        /* \"#utility.yul\":7604:7613   */\n      dup4\n        /* \"#utility.yul\":7600:7617   */\n      add\n        /* \"#utility.yul\":7593:7640   */\n      mstore\n        /* \"#utility.yul\":7657:7788   */\n      tag_325\n        /* \"#utility.yul\":7783:7787   */\n      dup2\n        /* \"#utility.yul\":7657:7788   */\n      tag_230\n      jump\t// in\n    tag_325:\n        /* \"#utility.yul\":7649:7788   */\n      swap1\n      pop\n        /* \"#utility.yul\":7376:7795   */\n      swap2\n      swap1\n      pop\n      jump\t// out\n        /* \"#utility.yul\":7801:8040   */\n    tag_231:\n        /* \"#utility.yul\":7941:7975   */\n      0x44617461436f6e747261637420686173206265656e20666c616767656420616e\n        /* \"#utility.yul\":7937:7938   */\n      0x00\n        /* \"#utility.yul\":7929:7935   */\n      dup3\n        /* \"#utility.yul\":7925:7939   */\n      add\n        /* \"#utility.yul\":7918:7976   */\n      mstore\n        /* \"#utility.yul\":8010:8032   */\n      0x64206973206e6f206c6f6e6765722076616c6964000000000000000000000000\n        /* \"#utility.yul\":8005:8007   */\n      0x20\n        /* \"#utility.yul\":7997:8003   */\n      dup3\n        /* \"#utility.yul\":7993:8008   */\n      add\n        /* \"#utility.yul\":7986:8033   */\n      mstore\n        /* \"#utility.yul\":7801:8040   */\n      pop\n      jump\t// out\n        /* \"#utility.yul\":8046:8412   */\n    tag_232:\n        /* \"#utility.yul\":8188:8191   */\n      0x00\n        /* \"#utility.yul\":8209:8276   */\n      tag_328\n        /* \"#utility.yul\":8273:8275   */\n      0x34\n        /* \"#utility.yul\":8268:8271   */\n      dup4\n        /* \"#utility.yul\":8209:8276   */\n      tag_206\n      jump\t// in\n    tag_328:\n        /* \"#utility.yul\":8202:8276   */\n      swap2\n      pop\n        /* \"#utility.yul\":8285:8378   */\n      tag_329\n        /* \"#utility.yul\":8374:8377   */\n      dup3\n        /* \"#utility.yul\":8285:8378   */\n      tag_231\n      jump\t// in\n    tag_329:\n        /* \"#utility.yul\":8403:8405   */\n      0x40\n        /* \"#utility.yul\":8398:8401   */\n      dup3\n        /* \"#utility.yul\":8394:8406   */\n      add\n        /* \"#utility.yul\":8387:8406   */\n      swap1\n      pop\n        /* \"#utility.yul\":8046:8412   */\n      swap2\n      swap1\n      pop\n      jump\t// out\n        /* \"#utility.yul\":8418:8837   */\n    tag_114:\n        /* \"#utility.yul\":8584:8588   */\n      0x00\n        /* \"#utility.yul\":8622:8624   */\n      0x20\n        /* \"#utility.yul\":8611:8620   */\n      dup3\n        /* \"#utility.yul\":8607:8625   */\n      add\n        /* \"#utility.yul\":8599:8625   */\n      swap1\n      pop\n        /* \"#utility.yul\":8671:8680   */\n      dup2\n        /* \"#utility.yul\":8665:8669   */\n      dup2\n        /* \"#utility.yul\":8661:8681   */\n      sub\n        /* \"#utility.yul\":8657:8658   */\n      0x00\n        /* \"#utility.yul\":8646:8655   */\n      dup4\n        /* \"#utility.yul\":8642:8659   */\n      add\n        /* \"#utility.yul\":8635:8682   */\n      mstore\n        /* \"#utility.yul\":8699:8830   */\n      tag_331\n        /* \"#utility.yul\":8825:8829   */\n      dup2\n        /* \"#utility.yul\":8699:8830   */\n      tag_232\n      jump\t// in\n    tag_331:\n        /* \"#utility.yul\":8691:8830   */\n      swap1\n      pop\n        /* \"#utility.yul\":8418:8837   */\n      swap2\n      swap1\n      pop\n      jump\t// out\n        /* \"#utility.yul\":8843:9070   */\n    tag_233:\n        /* \"#utility.yul\":8983:9017   */\n      0x496e636f727265637420616d6f756e74206f6e206d65737361676520666f7220\n        /* \"#utility.yul\":8979:8980   */\n      0x00\n        /* \"#utility.yul\":8971:8977   */\n      dup3\n        /* \"#utility.yul\":8967:8981   */\n      add\n        /* \"#utility.yul\":8960:9018   */\n      mstore\n        /* \"#utility.yul\":9052:9062   */\n      0x7075726368617365000000000000000000000000000000000000000000000000\n        /* \"#utility.yul\":9047:9049   */\n      0x20\n        /* \"#utility.yul\":9039:9045   */\n      dup3\n        /* \"#utility.yul\":9035:9050   */\n      add\n        /* \"#utility.yul\":9028:9063   */\n      mstore\n        /* \"#utility.yul\":8843:9070   */\n      pop\n      jump\t// out\n        /* \"#utility.yul\":9076:9442   */\n    tag_234:\n        /* \"#utility.yul\":9218:9221   */\n      0x00\n        /* \"#utility.yul\":9239:9306   */\n      tag_334\n        /* \"#utility.yul\":9303:9305   */\n      0x28\n        /* \"#utility.yul\":9298:9301   */\n      dup4\n        /* \"#utility.yul\":9239:9306   */\n      tag_206\n      jump\t// in\n    tag_334:\n        /* \"#utility.yul\":9232:9306   */\n      swap2\n      pop\n        /* \"#utility.yul\":9315:9408   */\n      tag_335\n        /* \"#utility.yul\":9404:9407   */\n      dup3\n        /* \"#utility.yul\":9315:9408   */\n      tag_233\n      jump\t// in\n    tag_335:\n        /* \"#utility.yul\":9433:9435   */\n      0x40\n        /* \"#utility.yul\":9428:9431   */\n      dup3\n        /* \"#utility.yul\":9424:9436   */\n      add\n        /* \"#utility.yul\":9417:9436   */\n      swap1\n      pop\n        /* \"#utility.yul\":9076:9442   */\n      swap2\n      swap1\n      pop\n      jump\t// out\n        /* \"#utility.yul\":9448:9867   */\n    tag_117:\n        /* \"#utility.yul\":9614:9618   */\n      0x00\n        /* \"#utility.yul\":9652:9654   */\n      0x20\n        /* \"#utility.yul\":9641:9650   */\n      dup3\n        /* \"#utility.yul\":9637:9655   */\n      add\n        /* \"#utility.yul\":9629:9655   */\n      swap1\n      pop\n        /* \"#utility.yul\":9701:9710   */\n      dup2\n        /* \"#utility.yul\":9695:9699   */\n      dup2\n        /* \"#utility.yul\":9691:9711   */\n      sub\n        /* \"#utility.yul\":9687:9688   */\n      0x00\n        /* \"#utility.yul\":9676:9685   */\n      dup4\n        /* \"#utility.yul\":9672:9689   */\n      add\n        /* \"#utility.yul\":9665:9712   */\n      mstore\n        /* \"#utility.yul\":9729:9860   */\n      tag_337\n        /* \"#utility.yul\":9855:9859   */\n      dup2\n        /* \"#utility.yul\":9729:9860   */\n      tag_234\n      jump\t// in\n    tag_337:\n        /* \"#utility.yul\":9721:9860   */\n      swap1\n      pop\n        /* \"#utility.yul\":9448:9867   */\n      swap2\n      swap1\n      pop\n      jump\t// out\n        /* \"#utility.yul\":9873:10053   */\n    tag_235:\n        /* \"#utility.yul\":9921:9998   */\n      0x4e487b7100000000000000000000000000000000000000000000000000000000\n        /* \"#utility.yul\":9918:9919   */\n      0x00\n        /* \"#utility.yul\":9911:9999   */\n      mstore\n        /* \"#utility.yul\":10018:10022   */\n      0x11\n        /* \"#utility.yul\":10015:10016   */\n      0x04\n        /* \"#utility.yul\":10008:10023   */\n      mstore\n        /* \"#utility.yul\":10042:10046   */\n      0x24\n        /* \"#utility.yul\":10039:10040   */\n      0x00\n        /* \"#utility.yul\":10032:10047   */\n      revert\n        /* \"#utility.yul\":10059:10250   */\n    tag_126:\n        /* \"#utility.yul\":10099:10102   */\n      0x00\n        /* \"#utility.yul\":10118:10138   */\n      tag_340\n        /* \"#utility.yul\":10136:10137   */\n      dup3\n        /* \"#utility.yul\":10118:10138   */\n      tag_210\n      jump\t// in\n    tag_340:\n        /* \"#utility.yul\":10113:10138   */\n      swap2\n      pop\n        /* \"#utility.yul\":10152:10172   */\n      tag_341\n        /* \"#utility.yul\":10170:10171   */\n      dup4\n        /* \"#utility.yul\":10152:10172   */\n      tag_210\n      jump\t// in\n    tag_341:\n        /* \"#utility.yul\":10147:10172   */\n      swap3\n      pop\n        /* \"#utility.yul\":10195:10196   */\n      dup3\n        /* \"#utility.yul\":10192:10193   */\n      dup3\n        /* \"#utility.yul\":10188:10197   */\n      add\n        /* \"#utility.yul\":10181:10197   */\n      swap1\n      pop\n        /* \"#utility.yul\":10216:10219   */\n      dup1\n        /* \"#utility.yul\":10213:10214   */\n      dup3\n        /* \"#utility.yul\":10210:10220   */\n      gt\n        /* \"#utility.yul\":10207:10243   */\n      iszero\n      tag_342\n      jumpi\n        /* \"#utility.yul\":10223:10241   */\n      tag_343\n      tag_235\n      jump\t// in\n    tag_343:\n        /* \"#utility.yul\":10207:10243   */\n    tag_342:\n        /* \"#utility.yul\":10059:10250   */\n      swap3\n      swap2\n      pop\n      pop\n      jump\t// out\n        /* \"#utility.yul\":10256:10477   */\n    tag_236:\n        /* \"#utility.yul\":10396:10430   */\n      0x596f75206861766520616c726561647920666c61676765642074686973207061\n        /* \"#utility.yul\":10392:10393   */\n      0x00\n        /* \"#utility.yul\":10384:10390   */\n      dup3\n        /* \"#utility.yul\":10380:10394   */\n      add\n        /* \"#utility.yul\":10373:10431   */\n      mstore\n        /* \"#utility.yul\":10465:10469   */\n      0x6765000000000000000000000000000000000000000000000000000000000000\n        /* \"#utility.yul\":10460:10462   */\n      0x20\n        /* \"#utility.yul\":10452:10458   */\n      dup3\n        /* \"#utility.yul\":10448:10463   */\n      add\n        /* \"#utility.yul\":10441:10470   */\n      mstore\n        /* \"#utility.yul\":10256:10477   */\n      pop\n      jump\t// out\n        /* \"#utility.yul\":10483:10849   */\n    tag_237:\n        /* \"#utility.yul\":10625:10628   */\n      0x00\n        /* \"#utility.yul\":10646:10713   */\n      tag_346\n        /* \"#utility.yul\":10710:10712   */\n      0x22\n        /* \"#utility.yul\":10705:10708   */\n      dup4\n        /* \"#utility.yul\":10646:10713   */\n      tag_206\n      jump\t// in\n    tag_346:\n        /* \"#utility.yul\":10639:10713   */\n      swap2\n      pop\n        /* \"#utility.yul\":10722:10815   */\n      tag_347\n        /* \"#utility.yul\":10811:10814   */\n      dup3\n        /* \"#utility.yul\":10722:10815   */\n      tag_236\n      jump\t// in\n    tag_347:\n        /* \"#utility.yul\":10840:10842   */\n      0x40\n        /* \"#utility.yul\":10835:10838   */\n      dup3\n        /* \"#utility.yul\":10831:10843   */\n      add\n        /* \"#utility.yul\":10824:10843   */\n      swap1\n      pop\n        /* \"#utility.yul\":10483:10849   */\n      swap2\n      swap1\n      pop\n      jump\t// out\n        /* \"#utility.yul\":10855:11274   */\n    tag_145:\n        /* \"#utility.yul\":11021:11025   */\n      0x00\n        /* \"#utility.yul\":11059:11061   */\n      0x20\n        /* \"#utility.yul\":11048:11057   */\n      dup3\n        /* \"#utility.yul\":11044:11062   */\n      add\n        /* \"#utility.yul\":11036:11062   */\n      swap1\n      pop\n        /* \"#utility.yul\":11108:11117   */\n      dup2\n        /* \"#utility.yul\":11102:11106   */\n      dup2\n        /* \"#utility.yul\":11098:11118   */\n      sub\n        /* \"#utility.yul\":11094:11095   */\n      0x00\n        /* \"#utility.yul\":11083:11092   */\n      dup4\n        /* \"#utility.yul\":11079:11096   */\n      add\n        /* \"#utility.yul\":11072:11119   */\n      mstore\n        /* \"#utility.yul\":11136:11267   */\n      tag_349\n        /* \"#utility.yul\":11262:11266   */\n      dup2\n        /* \"#utility.yul\":11136:11267   */\n      tag_237\n      jump\t// in\n    tag_349:\n        /* \"#utility.yul\":11128:11267   */\n      swap1\n      pop\n        /* \"#utility.yul\":10855:11274   */\n      swap2\n      swap1\n      pop\n      jump\t// out\n        /* \"#utility.yul\":11280:11428   */\n    tag_238:\n        /* \"#utility.yul\":11382:11393   */\n      0x00\n        /* \"#utility.yul\":11419:11422   */\n      dup2\n        /* \"#utility.yul\":11404:11422   */\n      swap1\n      pop\n        /* \"#utility.yul\":11280:11428   */\n      swap3\n      swap2\n      pop\n      pop\n      jump\t// out\n        /* \"#utility.yul\":11434:11575   */\n    tag_239:\n        /* \"#utility.yul\":11483:11487   */\n      0x00\n        /* \"#utility.yul\":11506:11509   */\n      dup2\n        /* \"#utility.yul\":11498:11509   */\n      swap1\n      pop\n        /* \"#utility.yul\":11529:11532   */\n      dup2\n        /* \"#utility.yul\":11526:11527   */\n      0x00\n        /* \"#utility.yul\":11519:11533   */\n      mstore\n        /* \"#utility.yul\":11563:11567   */\n      0x20\n        /* \"#utility.yul\":11560:11561   */\n      0x00\n        /* \"#utility.yul\":11550:11568   */\n      keccak256\n        /* \"#utility.yul\":11542:11568   */\n      swap1\n      pop\n        /* \"#utility.yul\":11434:11575   */\n      swap2\n      swap1\n      pop\n      jump\t// out\n        /* \"#utility.yul\":11605:12479   */\n    tag_240:\n        /* \"#utility.yul\":11708:11711   */\n      0x00\n        /* \"#utility.yul\":11745:11750   */\n      dup2\n        /* \"#utility.yul\":11739:11751   */\n      sload\n        /* \"#utility.yul\":11774:11810   */\n      tag_353\n        /* \"#utility.yul\":11800:11809   */\n      dup2\n        /* \"#utility.yul\":11774:11810   */\n      tag_96\n      jump\t// in\n    tag_353:\n        /* \"#utility.yul\":11826:11915   */\n      tag_354\n        /* \"#utility.yul\":11908:11914   */\n      dup2\n        /* \"#utility.yul\":11903:11906   */\n      dup7\n        /* \"#utility.yul\":11826:11915   */\n      tag_238\n      jump\t// in\n    tag_354:\n        /* \"#utility.yul\":11819:11915   */\n      swap5\n      pop\n        /* \"#utility.yul\":11946:11947   */\n      0x01\n        /* \"#utility.yul\":11935:11944   */\n      dup3\n        /* \"#utility.yul\":11931:11948   */\n      and\n        /* \"#utility.yul\":11962:11963   */\n      0x00\n        /* \"#utility.yul\":11957:12123   */\n      dup2\n      eq\n      tag_356\n      jumpi\n        /* \"#utility.yul\":12137:12138   */\n      0x01\n        /* \"#utility.yul\":12132:12473   */\n      dup2\n      eq\n      tag_357\n      jumpi\n        /* \"#utility.yul\":11924:12473   */\n      jump(tag_355)\n        /* \"#utility.yul\":11957:12123   */\n    tag_356:\n        /* \"#utility.yul\":12041:12045   */\n      0xff\n        /* \"#utility.yul\":12037:12046   */\n      not\n        /* \"#utility.yul\":12026:12035   */\n      dup4\n        /* \"#utility.yul\":12022:12047   */\n      and\n        /* \"#utility.yul\":12017:12020   */\n      dup7\n        /* \"#utility.yul\":12010:12048   */\n      mstore\n        /* \"#utility.yul\":12103:12109   */\n      dup2\n        /* \"#utility.yul\":12096:12110   */\n      iszero\n        /* \"#utility.yul\":12089:12111   */\n      iszero\n        /* \"#utility.yul\":12081:12087   */\n      dup3\n        /* \"#utility.yul\":12077:12112   */\n      mul\n        /* \"#utility.yul\":12072:12075   */\n      dup7\n        /* \"#utility.yul\":12068:12113   */\n      add\n        /* \"#utility.yul\":12061:12113   */\n      swap4\n      pop\n        /* \"#utility.yul\":11957:12123   */\n      jump(tag_355)\n        /* \"#utility.yul\":12132:12473   */\n    tag_357:\n        /* \"#utility.yul\":12199:12237   */\n      tag_358\n        /* \"#utility.yul\":12231:12236   */\n      dup6\n        /* \"#utility.yul\":12199:12237   */\n      tag_239\n      jump\t// in\n    tag_358:\n        /* \"#utility.yul\":12259:12260   */\n      0x00\n        /* \"#utility.yul\":12273:12427   */\n    tag_359:\n        /* \"#utility.yul\":12287:12293   */\n      dup4\n        /* \"#utility.yul\":12284:12285   */\n      dup2\n        /* \"#utility.yul\":12281:12294   */\n      lt\n        /* \"#utility.yul\":12273:12427   */\n      iszero\n      tag_361\n      jumpi\n        /* \"#utility.yul\":12361:12368   */\n      dup2\n        /* \"#utility.yul\":12355:12369   */\n      sload\n        /* \"#utility.yul\":12351:12352   */\n      dup2\n        /* \"#utility.yul\":12346:12349   */\n      dup10\n        /* \"#utility.yul\":12342:12353   */\n      add\n        /* \"#utility.yul\":12335:12370   */\n      mstore\n        /* \"#utility.yul\":12411:12412   */\n      0x01\n        /* \"#utility.yul\":12402:12409   */\n      dup3\n        /* \"#utility.yul\":12398:12413   */\n      add\n        /* \"#utility.yul\":12387:12413   */\n      swap2\n      pop\n        /* \"#utility.yul\":12309:12313   */\n      0x20\n        /* \"#utility.yul\":12306:12307   */\n      dup2\n        /* \"#utility.yul\":12302:12314   */\n      add\n        /* \"#utility.yul\":12297:12314   */\n      swap1\n      pop\n        /* \"#utility.yul\":12273:12427   */\n      jump(tag_359)\n    tag_361:\n        /* \"#utility.yul\":12456:12462   */\n      dup4\n        /* \"#utility.yul\":12451:12454   */\n      dup9\n        /* \"#utility.yul\":12447:12463   */\n      add\n        /* \"#utility.yul\":12440:12463   */\n      swap6\n      pop\n        /* \"#utility.yul\":12139:12473   */\n      pop\n      pop\n        /* \"#utility.yul\":11924:12473   */\n    tag_355:\n      pop\n        /* \"#utility.yul\":11712:12479   */\n      pop\n      pop\n        /* \"#utility.yul\":11605:12479   */\n      swap3\n      swap2\n      pop\n      pop\n      jump\t// out\n        /* \"#utility.yul\":12485:12663   */\n    tag_241:\n        /* \"#utility.yul\":12653:12656   */\n      0x7c00000000000000000000000000000000000000000000000000000000000000\n        /* \"#utility.yul\":12648:12651   */\n      dup2\n        /* \"#utility.yul\":12641:12657   */\n      mstore\n        /* \"#utility.yul\":12485:12663   */\n      pop\n      jump\t// out\n        /* \"#utility.yul\":12669:13059   */\n    tag_242:\n        /* \"#utility.yul\":12775:12778   */\n      0x00\n        /* \"#utility.yul\":12803:12842   */\n      tag_364\n        /* \"#utility.yul\":12836:12841   */\n      dup3\n        /* \"#utility.yul\":12803:12842   */\n      tag_205\n      jump\t// in\n    tag_364:\n        /* \"#utility.yul\":12858:12947   */\n      tag_365\n        /* \"#utility.yul\":12940:12946   */\n      dup2\n        /* \"#utility.yul\":12935:12938   */\n      dup6\n        /* \"#utility.yul\":12858:12947   */\n      tag_238\n      jump\t// in\n    tag_365:\n        /* \"#utility.yul\":12851:12947   */\n      swap4\n      pop\n        /* \"#utility.yul\":12956:13021   */\n      tag_366\n        /* \"#utility.yul\":13014:13020   */\n      dup2\n        /* \"#utility.yul\":13009:13012   */\n      dup6\n        /* \"#utility.yul\":13002:13006   */\n      0x20\n        /* \"#utility.yul\":12995:13000   */\n      dup7\n        /* \"#utility.yul\":12991:13007   */\n      add\n        /* \"#utility.yul\":12956:13021   */\n      tag_207\n      jump\t// in\n    tag_366:\n        /* \"#utility.yul\":13046:13052   */\n      dup1\n        /* \"#utility.yul\":13041:13044   */\n      dup5\n        /* \"#utility.yul\":13037:13053   */\n      add\n        /* \"#utility.yul\":13030:13053   */\n      swap2\n      pop\n        /* \"#utility.yul\":12779:13059   */\n      pop\n        /* \"#utility.yul\":12669:13059   */\n      swap3\n      swap2\n      pop\n      pop\n      jump\t// out\n        /* \"#utility.yul\":13065:16278   */\n    tag_164:\n        /* \"#utility.yul\":14148:14151   */\n      0x00\n        /* \"#utility.yul\":14170:14262   */\n      tag_368\n        /* \"#utility.yul\":14258:14261   */\n      dup3\n        /* \"#utility.yul\":14249:14255   */\n      dup12\n        /* \"#utility.yul\":14170:14262   */\n      tag_240\n      jump\t// in\n    tag_368:\n        /* \"#utility.yul\":14163:14262   */\n      swap2\n      pop\n        /* \"#utility.yul\":14272:14409   */\n      tag_369\n        /* \"#utility.yul\":14405:14408   */\n      dup3\n        /* \"#utility.yul\":14272:14409   */\n      tag_241\n      jump\t// in\n    tag_369:\n        /* \"#utility.yul\":14434:14435   */\n      0x01\n        /* \"#utility.yul\":14429:14432   */\n      dup3\n        /* \"#utility.yul\":14425:14436   */\n      add\n        /* \"#utility.yul\":14418:14436   */\n      swap2\n      pop\n        /* \"#utility.yul\":14453:14545   */\n      tag_370\n        /* \"#utility.yul\":14541:14544   */\n      dup3\n        /* \"#utility.yul\":14532:14538   */\n      dup11\n        /* \"#utility.yul\":14453:14545   */\n      tag_240\n      jump\t// in\n    tag_370:\n        /* \"#utility.yul\":14446:14545   */\n      swap2\n      pop\n        /* \"#utility.yul\":14555:14692   */\n      tag_371\n        /* \"#utility.yul\":14688:14691   */\n      dup3\n        /* \"#utility.yul\":14555:14692   */\n      tag_241\n      jump\t// in\n    tag_371:\n        /* \"#utility.yul\":14717:14718   */\n      0x01\n        /* \"#utility.yul\":14712:14715   */\n      dup3\n        /* \"#utility.yul\":14708:14719   */\n      add\n        /* \"#utility.yul\":14701:14719   */\n      swap2\n      pop\n        /* \"#utility.yul\":14736:14831   */\n      tag_372\n        /* \"#utility.yul\":14827:14830   */\n      dup3\n        /* \"#utility.yul\":14818:14824   */\n      dup10\n        /* \"#utility.yul\":14736:14831   */\n      tag_242\n      jump\t// in\n    tag_372:\n        /* \"#utility.yul\":14729:14831   */\n      swap2\n      pop\n        /* \"#utility.yul\":14841:14978   */\n      tag_373\n        /* \"#utility.yul\":14974:14977   */\n      dup3\n        /* \"#utility.yul\":14841:14978   */\n      tag_241\n      jump\t// in\n    tag_373:\n        /* \"#utility.yul\":15003:15004   */\n      0x01\n        /* \"#utility.yul\":14998:15001   */\n      dup3\n        /* \"#utility.yul\":14994:15005   */\n      add\n        /* \"#utility.yul\":14987:15005   */\n      swap2\n      pop\n        /* \"#utility.yul\":15022:15117   */\n      tag_374\n        /* \"#utility.yul\":15113:15116   */\n      dup3\n        /* \"#utility.yul\":15104:15110   */\n      dup9\n        /* \"#utility.yul\":15022:15117   */\n      tag_242\n      jump\t// in\n    tag_374:\n        /* \"#utility.yul\":15015:15117   */\n      swap2\n      pop\n        /* \"#utility.yul\":15127:15264   */\n      tag_375\n        /* \"#utility.yul\":15260:15263   */\n      dup3\n        /* \"#utility.yul\":15127:15264   */\n      tag_241\n      jump\t// in\n    tag_375:\n        /* \"#utility.yul\":15289:15290   */\n      0x01\n        /* \"#utility.yul\":15284:15287   */\n      dup3\n        /* \"#utility.yul\":15280:15291   */\n      add\n        /* \"#utility.yul\":15273:15291   */\n      swap2\n      pop\n        /* \"#utility.yul\":15308:15400   */\n      tag_376\n        /* \"#utility.yul\":15396:15399   */\n      dup3\n        /* \"#utility.yul\":15387:15393   */\n      dup8\n        /* \"#utility.yul\":15308:15400   */\n      tag_240\n      jump\t// in\n    tag_376:\n        /* \"#utility.yul\":15301:15400   */\n      swap2\n      pop\n        /* \"#utility.yul\":15410:15547   */\n      tag_377\n        /* \"#utility.yul\":15543:15546   */\n      dup3\n        /* \"#utility.yul\":15410:15547   */\n      tag_241\n      jump\t// in\n    tag_377:\n        /* \"#utility.yul\":15572:15573   */\n      0x01\n        /* \"#utility.yul\":15567:15570   */\n      dup3\n        /* \"#utility.yul\":15563:15574   */\n      add\n        /* \"#utility.yul\":15556:15574   */\n      swap2\n      pop\n        /* \"#utility.yul\":15591:15683   */\n      tag_378\n        /* \"#utility.yul\":15679:15682   */\n      dup3\n        /* \"#utility.yul\":15670:15676   */\n      dup7\n        /* \"#utility.yul\":15591:15683   */\n      tag_240\n      jump\t// in\n    tag_378:\n        /* \"#utility.yul\":15584:15683   */\n      swap2\n      pop\n        /* \"#utility.yul\":15693:15830   */\n      tag_379\n        /* \"#utility.yul\":15826:15829   */\n      dup3\n        /* \"#utility.yul\":15693:15830   */\n      tag_241\n      jump\t// in\n    tag_379:\n        /* \"#utility.yul\":15855:15856   */\n      0x01\n        /* \"#utility.yul\":15850:15853   */\n      dup3\n        /* \"#utility.yul\":15846:15857   */\n      add\n        /* \"#utility.yul\":15839:15857   */\n      swap2\n      pop\n        /* \"#utility.yul\":15874:15966   */\n      tag_380\n        /* \"#utility.yul\":15962:15965   */\n      dup3\n        /* \"#utility.yul\":15953:15959   */\n      dup6\n        /* \"#utility.yul\":15874:15966   */\n      tag_240\n      jump\t// in\n    tag_380:\n        /* \"#utility.yul\":15867:15966   */\n      swap2\n      pop\n        /* \"#utility.yul\":15976:16113   */\n      tag_381\n        /* \"#utility.yul\":16109:16112   */\n      dup3\n        /* \"#utility.yul\":15976:16113   */\n      tag_241\n      jump\t// in\n    tag_381:\n        /* \"#utility.yul\":16138:16139   */\n      0x01\n        /* \"#utility.yul\":16133:16136   */\n      dup3\n        /* \"#utility.yul\":16129:16140   */\n      add\n        /* \"#utility.yul\":16122:16140   */\n      swap2\n      pop\n        /* \"#utility.yul\":16157:16252   */\n      tag_382\n        /* \"#utility.yul\":16248:16251   */\n      dup3\n        /* \"#utility.yul\":16239:16245   */\n      dup5\n        /* \"#utility.yul\":16157:16252   */\n      tag_242\n      jump\t// in\n    tag_382:\n        /* \"#utility.yul\":16150:16252   */\n      swap2\n      pop\n        /* \"#utility.yul\":16269:16272   */\n      dup2\n        /* \"#utility.yul\":16262:16272   */\n      swap1\n      pop\n        /* \"#utility.yul\":13065:16278   */\n      swap10\n      swap9\n      pop\n      pop\n      pop\n      pop\n      pop\n      pop\n      pop\n      pop\n      pop\n      jump\t// out\n        /* \"#utility.yul\":16284:16464   */\n    tag_181:\n        /* \"#utility.yul\":16332:16409   */\n      0x4e487b7100000000000000000000000000000000000000000000000000000000\n        /* \"#utility.yul\":16329:16330   */\n      0x00\n        /* \"#utility.yul\":16322:16410   */\n      mstore\n        /* \"#utility.yul\":16429:16433   */\n      0x12\n        /* \"#utility.yul\":16426:16427   */\n      0x04\n        /* \"#utility.yul\":16419:16434   */\n      mstore\n        /* \"#utility.yul\":16453:16457   */\n      0x24\n        /* \"#utility.yul\":16450:16451   */\n      0x00\n        /* \"#utility.yul\":16443:16458   */\n      revert\n\n    auxdata: 0xa264697066735822122070c3fd1fecfb89032428b46a571a1d70fe552c6ed579f0d20dcd231b928e301a64736f6c634300081a0033\n}\n",
				"bytecode": {
					"linkReferences": {},
					"object": "608060405260036009556003600a55348015610019575f80fd5b50604051611e18380380611e18833981810160405281019061003b919061027e565b3360075f6101000a81548173ffffffffffffffffffffffffffffffffffffffff021916908373ffffffffffffffffffffffffffffffffffffffff160217905550855f90816100899190610597565b5084600190816100999190610597565b5083600890816100a99190610597565b508260038190555081600590816100c09190610597565b5080600690816100d09190610597565b505f6004819055506001600760146101000a81548160ff021916908315150217905550505050505050610666565b5f604051905090565b5f80fd5b5f80fd5b5f80fd5b5f80fd5b5f601f19601f8301169050919050565b7f4e487b71000000000000000000000000000000000000000000000000000000005f52604160045260245ffd5b61015d82610117565b810181811067ffffffffffffffff8211171561017c5761017b610127565b5b80604052505050565b5f61018e6100fe565b905061019a8282610154565b919050565b5f67ffffffffffffffff8211156101b9576101b8610127565b5b6101c282610117565b9050602081019050919050565b8281835e5f83830152505050565b5f6101ef6101ea8461019f565b610185565b90508281526020810184848401111561020b5761020a610113565b5b6102168482856101cf565b509392505050565b5f82601f8301126102325761023161010f565b5b81516102428482602086016101dd565b91505092915050565b5f819050919050565b61025d8161024b565b8114610267575f80fd5b50565b5f8151905061027881610254565b92915050565b5f805f805f8060c0878903121561029857610297610107565b5b5f87015167ffffffffffffffff8111156102b5576102b461010b565b5b6102c189828a0161021e565b965050602087015167ffffffffffffffff8111156102e2576102e161010b565b5b6102ee89828a0161021e565b955050604087015167ffffffffffffffff81111561030f5761030e61010b565b5b61031b89828a0161021e565b945050606061032c89828a0161026a565b935050608087015167ffffffffffffffff81111561034d5761034c61010b565b5b61035989828a0161021e565b92505060a087015167ffffffffffffffff81111561037a5761037961010b565b5b61038689828a0161021e565b9150509295509295509295565b5f81519050919050565b7f4e487b71000000000000000000000000000000000000000000000000000000005f52602260045260245ffd5b5f60028204905060018216806103e157607f821691505b6020821081036103f4576103f361039d565b5b50919050565b5f819050815f5260205f209050919050565b5f6020601f8301049050919050565b5f82821b905092915050565b5f600883026104567fffffffffffffffffffffffffffffffffffffffffffffffffffffffffffffffff8261041b565b610460868361041b565b95508019841693508086168417925050509392505050565b5f819050919050565b5f61049b6104966104918461024b565b610478565b61024b565b9050919050565b5f819050919050565b6104b483610481565b6104c86104c0826104a2565b848454610427565b825550505050565b5f90565b6104dc6104d0565b6104e78184846104ab565b505050565b5b8181101561050a576104ff5f826104d4565b6001810190506104ed565b5050565b601f82111561054f57610520816103fa565b6105298461040c565b81016020851015610538578190505b61054c6105448561040c565b8301826104ec565b50505b505050565b5f82821c905092915050565b5f61056f5f1984600802610554565b1980831691505092915050565b5f6105878383610560565b9150826002028217905092915050565b6105a082610393565b67ffffffffffffffff8111156105b9576105b8610127565b5b6105c382546103ca565b6105ce82828561050e565b5f60209050601f8311600181146105ff575f84156105ed578287015190505b6105f7858261057c565b86555061065e565b601f19841661060d866103fa565b5f5b828110156106345784890151825560018201915060208501945060208101905061060f565b86831015610651578489015161064d601f891682610560565b8355505b6001600288020188555050505b505050505050565b6117a5806106735f395ff3fe6080604052600436106100fd575f3560e01c806383784b0b11610094578063b7ec208611610063578063b7ec2086146102e9578063ca5dbfef14610313578063cf09e0d01461033d578063ee3def0e14610367578063fd48e8e314610391576100fd565b806383784b0b146102315780638da5cb5b1461026d57806391b7f5ed14610297578063949d225d146102bf576100fd565b806329c68dc1116100d057806329c68dc1146101a9578063551caa7c146101bf5780637284e416146101dd578063729acff414610207576100fd565b806302fb0c5e1461010157806306fdde031461012b5780631a0925411461015557806320c4fd311461017f575b5f80fd5b34801561010c575f80fd5b506101156103bb565b6040516101229190610f76565b60405180910390f35b348015610136575f80fd5b5061013f6103ce565b60405161014c9190610fff565b60405180910390f35b348015610160575f80fd5b50610169610459565b6040516101769190610fff565b60405180910390f35b34801561018a575f80fd5b506101936104e9565b6040516101a09190611037565b60405180910390f35b3480156101b4575f80fd5b506101bd6104ef565b005b6101c76105aa565b6040516101d49190610fff565b60405180910390f35b3480156101e8575f80fd5b506101f1610809565b6040516101fe9190610fff565b60405180910390f35b348015610212575f80fd5b5061021b610895565b6040516102289190610fff565b60405180910390f35b34801561023c575f80fd5b506102576004803603810190610252919061118d565b610921565b6040516102649190611037565b60405180910390f35b348015610278575f80fd5b50610281610a77565b60405161028e9190611213565b60405180910390f35b3480156102a2575f80fd5b506102bd60048036038101906102b89190611256565b610a9c565b005b3480156102ca575f80fd5b506102d3610b35565b6040516102e09190610fff565b60405180910390f35b3480156102f4575f80fd5b506102fd610bc1565b60405161030a9190611037565b60405180910390f35b34801561031e575f80fd5b50610327610bc7565b6040516103349190610fff565b60405180910390f35b348015610348575f80fd5b50610351610ca9565b60405161035e9190610fff565b60405180910390f35b348015610372575f80fd5b5061037b610d35565b6040516103889190611037565b60405180910390f35b34801561039c575f80fd5b506103a5610d3b565b6040516103b29190611037565b60405180910390f35b600760149054906101000a900460ff1681565b5f80546103da906112ae565b80601f0160208091040260200160405190810160405280929190818152602001828054610406906112ae565b80156104515780601f1061042857610100808354040283529160200191610451565b820191905f5260205f20905b81548152906001019060200180831161043457829003601f168201915b505050505081565b606060018054610468906112ae565b80601f0160208091040260200160405190810160405280929190818152602001828054610494906112ae565b80156104df5780601f106104b6576101008083540402835291602001916104df565b820191905f5260205f20905b8154815290600101906020018083116104c257829003601f168201915b5050505050905090565b600a5481565b60075f9054906101000a900473ffffffffffffffffffffffffffffffffffffffff1673ffffffffffffffffffffffffffffffffffffffff163373ffffffffffffffffffffffffffffffffffffffff161461057e576040517f08c379a00000000000000000000000000000000000000000000000000000000081526004016105759061134e565b60405180910390fd5b600760149054906101000a900460ff1615600760146101000a81548160ff021916908315150217905550565b6060600a54600b5411156105f3576040517f08c379a00000000000000000000000000000000000000000000000000000000081526004016105ea906113dc565b60405180910390fd5b6003543414610637576040517f08c379a000000000000000000000000000000000000000000000000000000000815260040161062e9061146a565b60405180910390fd5b600954600454036106ac5760075f9054906101000a900473ffffffffffffffffffffffffffffffffffffffff1673ffffffffffffffffffffffffffffffffffffffff166108fc4790811502906040515f60405180830381858888f193505050501580156106a6573d5f803e3d5ffd5b5061071f565b600954600454111561071e5760075f9054906101000a900473ffffffffffffffffffffffffffffffffffffffff1673ffffffffffffffffffffffffffffffffffffffff166108fc3490811502906040515f60405180830381858888f1935050505015801561071c573d5f803e3d5ffd5b505b5b600160045f82825461073191906114b5565b925050819055503373ffffffffffffffffffffffffffffffffffffffff167f4a017353a6a671c5595f31469f50dc962e14c1a712ba8971a058ac0460731bd160405160405180910390a260088054610788906112ae565b80601f01602080910402602001604051908101604052809291908181526020018280546107b4906112ae565b80156107ff5780601f106107d6576101008083540402835291602001916107ff565b820191905f5260205f20905b8154815290600101906020018083116107e257829003601f168201915b5050505050905090565b60018054610816906112ae565b80601f0160208091040260200160405190810160405280929190818152602001828054610842906112ae565b801561088d5780601f106108645761010080835404028352916020019161088d565b820191905f5260205f20905b81548152906001019060200180831161087057829003601f168201915b505050505081565b600580546108a2906112ae565b80601f01602080910402602001604051908101604052809291908181526020018280546108ce906112ae565b80156109195780601f106108f057610100808354040283529160200191610919565b820191905f5260205f20905b8154815290600101906020018083116108fc57829003601f168201915b505050505081565b5f80600c5f3373ffffffffffffffffffffffffffffffffffffffff1673ffffffffffffffffffffffffffffffffffffffff1681526020019081526020015f205f9054906101000a900460ff16905080156109b0576040517f08c379a00000000000000000000000000000000000000000000000000000000081526004016109a790611558565b60405180910390fd5b6001600c5f3373ffffffffffffffffffffffffffffffffffffffff1673ffffffffffffffffffffffffffffffffffffffff1681526020019081526020015f205f6101000a81548160ff0219169083151502179055506001600b5f828254610a1791906114b5565b925050819055503373ffffffffffffffffffffffffffffffffffffffff167fab041670eb9e6e047417d6b20c2560283f97944f712ed0fad739be1a8574b5cd84604051610a649190610fff565b60405180910390a2600b54915050919050565b60075f9054906101000a900473ffffffffffffffffffffffffffffffffffffffff1681565b60075f9054906101000a900473ffffffffffffffffffffffffffffffffffffffff1673ffffffffffffffffffffffffffffffffffffffff163373ffffffffffffffffffffffffffffffffffffffff1614610b2b576040517f08c379a0000000000000000000000000000000000000000000000000000000008152600401610b229061134e565b60405180910390fd5b8060038190555050565b60068054610b42906112ae565b80601f0160208091040260200160405190810160405280929190818152602001828054610b6e906112ae565b8015610bb95780601f10610b9057610100808354040283529160200191610bb9565b820191905f5260205f20905b815481529060010190602001808311610b9c57829003601f168201915b505050505081565b60035481565b60605f6001610bd7600354610d41565b610be2600454610d41565b600560066002600760149054906101000a900460ff168015610c085750600a54600b5411155b610c47576040518060400160405280600881526020017f696e616374697665000000000000000000000000000000000000000000000000815250610c7e565b6040518060400160405280600681526020017f61637469766500000000000000000000000000000000000000000000000000008152505b604051602001610c95989796959493929190611668565b604051602081830303815290604052905090565b60028054610cb6906112ae565b80601f0160208091040260200160405190810160405280929190818152602001828054610ce2906112ae565b8015610d2d5780601f10610d0457610100808354040283529160200191610d2d565b820191905f5260205f20905b815481529060010190602001808311610d1057829003601f168201915b505050505081565b60045481565b60095481565b60605f6001610d4f84610e0b565b0190505f8167ffffffffffffffff811115610d6d57610d6c611069565b5b6040519080825280601f01601f191660200182016040528015610d9f5781602001600182028036833780820191505090505b5090505f82602001820190505b600115610e00578080600190039150507f3031323334353637383961626364656600000000000000000000000000000000600a86061a8153600a8581610df557610df4611742565b5b0494505f8503610dac575b819350505050919050565b5f805f90507a184f03e93ff9f4daa797ed6e38ed64bf6a1f0100000000000000008310610e67577a184f03e93ff9f4daa797ed6e38ed64bf6a1f0100000000000000008381610e5d57610e5c611742565b5b0492506040810190505b6d04ee2d6d415b85acef81000000008310610ea4576d04ee2d6d415b85acef81000000008381610e9a57610e99611742565b5b0492506020810190505b662386f26fc100008310610ed357662386f26fc100008381610ec957610ec8611742565b5b0492506010810190505b6305f5e1008310610efc576305f5e1008381610ef257610ef1611742565b5b0492506008810190505b6127108310610f21576127108381610f1757610f16611742565b5b0492506004810190505b60648310610f445760648381610f3a57610f39611742565b5b0492506002810190505b600a8310610f53576001810190505b80915050919050565b5f8115159050919050565b610f7081610f5c565b82525050565b5f602082019050610f895f830184610f67565b92915050565b5f81519050919050565b5f82825260208201905092915050565b8281835e5f83830152505050565b5f601f19601f8301169050919050565b5f610fd182610f8f565b610fdb8185610f99565b9350610feb818560208601610fa9565b610ff481610fb7565b840191505092915050565b5f6020820190508181035f8301526110178184610fc7565b905092915050565b5f819050919050565b6110318161101f565b82525050565b5f60208201905061104a5f830184611028565b92915050565b5f604051905090565b5f80fd5b5f80fd5b5f80fd5b5f80fd5b7f4e487b71000000000000000000000000000000000000000000000000000000005f52604160045260245ffd5b61109f82610fb7565b810181811067ffffffffffffffff821117156110be576110bd611069565b5b80604052505050565b5f6110d0611050565b90506110dc8282611096565b919050565b5f67ffffffffffffffff8211156110fb576110fa611069565b5b61110482610fb7565b9050602081019050919050565b828183375f83830152505050565b5f61113161112c846110e1565b6110c7565b90508281526020810184848401111561114d5761114c611065565b5b611158848285611111565b509392505050565b5f82601f83011261117457611173611061565b5b813561118484826020860161111f565b91505092915050565b5f602082840312156111a2576111a1611059565b5b5f82013567ffffffffffffffff8111156111bf576111be61105d565b5b6111cb84828501611160565b91505092915050565b5f73ffffffffffffffffffffffffffffffffffffffff82169050919050565b5f6111fd826111d4565b9050919050565b61120d816111f3565b82525050565b5f6020820190506112265f830184611204565b92915050565b6112358161101f565b811461123f575f80fd5b50565b5f813590506112508161122c565b92915050565b5f6020828403121561126b5761126a611059565b5b5f61127884828501611242565b91505092915050565b7f4e487b71000000000000000000000000000000000000000000000000000000005f52602260045260245ffd5b5f60028204905060018216806112c557607f821691505b6020821081036112d8576112d7611281565b5b50919050565b7f4f6e6c792074686520636f6e7472616374206f776e6572206d61792063616c6c5f8201527f20746869732066756e6374696f6e000000000000000000000000000000000000602082015250565b5f611338602e83610f99565b9150611343826112de565b604082019050919050565b5f6020820190508181035f8301526113658161132c565b9050919050565b7f44617461436f6e747261637420686173206265656e20666c616767656420616e5f8201527f64206973206e6f206c6f6e6765722076616c6964000000000000000000000000602082015250565b5f6113c6603483610f99565b91506113d18261136c565b604082019050919050565b5f6020820190508181035f8301526113f3816113ba565b9050919050565b7f496e636f727265637420616d6f756e74206f6e206d65737361676520666f72205f8201527f7075726368617365000000000000000000000000000000000000000000000000602082015250565b5f611454602883610f99565b915061145f826113fa565b604082019050919050565b5f6020820190508181035f83015261148181611448565b9050919050565b7f4e487b71000000000000000000000000000000000000000000000000000000005f52601160045260245ffd5b5f6114bf8261101f565b91506114ca8361101f565b92508282019050808211156114e2576114e1611488565b5b92915050565b7f596f75206861766520616c726561647920666c616767656420746869732070615f8201527f6765000000000000000000000000000000000000000000000000000000000000602082015250565b5f611542602283610f99565b915061154d826114e8565b604082019050919050565b5f6020820190508181035f83015261156f81611536565b9050919050565b5f81905092915050565b5f819050815f5260205f209050919050565b5f815461159e816112ae565b6115a88186611576565b9450600182165f81146115c257600181146115d757611609565b60ff1983168652811515820286019350611609565b6115e085611580565b5f5b83811015611601578154818901526001820191506020810190506115e2565b838801955050505b50505092915050565b7f7c00000000000000000000000000000000000000000000000000000000000000815250565b5f61164282610f8f565b61164c8185611576565b935061165c818560208601610fa9565b80840191505092915050565b5f611673828b611592565b915061167e82611612565b60018201915061168e828a611592565b915061169982611612565b6001820191506116a98289611638565b91506116b482611612565b6001820191506116c48288611638565b91506116cf82611612565b6001820191506116df8287611592565b91506116ea82611612565b6001820191506116fa8286611592565b915061170582611612565b6001820191506117158285611592565b915061172082611612565b6001820191506117308284611638565b91508190509998505050505050505050565b7f4e487b71000000000000000000000000000000000000000000000000000000005f52601260045260245ffdfea264697066735822122070c3fd1fecfb89032428b46a571a1d70fe552c6ed579f0d20dcd231b928e301a64736f6c634300081a0033",
					"opcodes": "PUSH1 0x80 PUSH1 0x40 MSTORE PUSH1 0x3 PUSH1 0x9 SSTORE PUSH1 0x3 PUSH1 0xA SSTORE CALLVALUE DUP1 ISZERO PUSH2 0x19 JUMPI PUSH0 DUP1 REVERT JUMPDEST POP PUSH1 0x40 MLOAD PUSH2 0x1E18 CODESIZE SUB DUP1 PUSH2 0x1E18 DUP4 CODECOPY DUP2 DUP2 ADD PUSH1 0x40 MSTORE DUP2 ADD SWAP1 PUSH2 0x3B SWAP2 SWAP1 PUSH2 0x27E JUMP JUMPDEST CALLER PUSH1 0x7 PUSH0 PUSH2 0x100 EXP DUP2 SLOAD DUP2 PUSH20 0xFFFFFFFFFFFFFFFFFFFFFFFFFFFFFFFFFFFFFFFF MUL NOT AND SWAP1 DUP4 PUSH20 0xFFFFFFFFFFFFFFFFFFFFFFFFFFFFFFFFFFFFFFFF AND MUL OR SWAP1 SSTORE POP DUP6 PUSH0 SWAP1 DUP2 PUSH2 0x89 SWAP2 SWAP1 PUSH2 0x597 JUMP JUMPDEST POP DUP5 PUSH1 0x1 SWAP1 DUP2 PUSH2 0x99 SWAP2 SWAP1 PUSH2 0x597 JUMP JUMPDEST POP DUP4 PUSH1 0x8 SWAP1 DUP2 PUSH2 0xA9 SWAP2 SWAP1 PUSH2 0x597 JUMP JUMPDEST POP DUP3 PUSH1 0x3 DUP2 SWAP1 SSTORE POP DUP2 PUSH1 0x5 SWAP1 DUP2 PUSH2 0xC0 SWAP2 SWAP1 PUSH2 0x597 JUMP JUMPDEST POP DUP1 PUSH1 0x6 SWAP1 DUP2 PUSH2 0xD0 SWAP2 SWAP1 PUSH2 0x597 JUMP JUMPDEST POP PUSH0 PUSH1 0x4 DUP2 SWAP1 SSTORE POP PUSH1 0x1 PUSH1 0x7 PUSH1 0x14 PUSH2 0x100 EXP DUP2 SLOAD DUP2 PUSH1 0xFF MUL NOT AND SWAP1 DUP4 ISZERO ISZERO MUL OR SWAP1 SSTORE POP POP POP POP POP POP POP PUSH2 0x666 JUMP JUMPDEST PUSH0 PUSH1 0x40 MLOAD SWAP1 POP SWAP1 JUMP JUMPDEST PUSH0 DUP1 REVERT JUMPDEST PUSH0 DUP1 REVERT JUMPDEST PUSH0 DUP1 REVERT JUMPDEST PUSH0 DUP1 REVERT JUMPDEST PUSH0 PUSH1 0x1F NOT PUSH1 0x1F DUP4 ADD AND SWAP1 POP SWAP2 SWAP1 POP JUMP JUMPDEST PUSH32 0x4E487B7100000000000000000000000000000000000000000000000000000000 PUSH0 MSTORE PUSH1 0x41 PUSH1 0x4 MSTORE PUSH1 0x24 PUSH0 REVERT JUMPDEST PUSH2 0x15D DUP3 PUSH2 0x117 JUMP JUMPDEST DUP2 ADD DUP2 DUP2 LT PUSH8 0xFFFFFFFFFFFFFFFF DUP3 GT OR ISZERO PUSH2 0x17C JUMPI PUSH2 0x17B PUSH2 0x127 JUMP JUMPDEST JUMPDEST DUP1 PUSH1 0x40 MSTORE POP POP POP JUMP JUMPDEST PUSH0 PUSH2 0x18E PUSH2 0xFE JUMP JUMPDEST SWAP1 POP PUSH2 0x19A DUP3 DUP3 PUSH2 0x154 JUMP JUMPDEST SWAP2 SWAP1 POP JUMP JUMPDEST PUSH0 PUSH8 0xFFFFFFFFFFFFFFFF DUP3 GT ISZERO PUSH2 0x1B9 JUMPI PUSH2 0x1B8 PUSH2 0x127 JUMP JUMPDEST JUMPDEST PUSH2 0x1C2 DUP3 PUSH2 0x117 JUMP JUMPDEST SWAP1 POP PUSH1 0x20 DUP2 ADD SWAP1 POP SWAP2 SWAP1 POP JUMP JUMPDEST DUP3 DUP2 DUP4 MCOPY PUSH0 DUP4 DUP4 ADD MSTORE POP POP POP JUMP JUMPDEST PUSH0 PUSH2 0x1EF PUSH2 0x1EA DUP5 PUSH2 0x19F JUMP JUMPDEST PUSH2 0x185 JUMP JUMPDEST SWAP1 POP DUP3 DUP2 MSTORE PUSH1 0x20 DUP2 ADD DUP5 DUP5 DUP5 ADD GT ISZERO PUSH2 0x20B JUMPI PUSH2 0x20A PUSH2 0x113 JUMP JUMPDEST JUMPDEST PUSH2 0x216 DUP5 DUP3 DUP6 PUSH2 0x1CF JUMP JUMPDEST POP SWAP4 SWAP3 POP POP POP JUMP JUMPDEST PUSH0 DUP3 PUSH1 0x1F DUP4 ADD SLT PUSH2 0x232 JUMPI PUSH2 0x231 PUSH2 0x10F JUMP JUMPDEST JUMPDEST DUP2 MLOAD PUSH2 0x242 DUP5 DUP3 PUSH1 0x20 DUP7 ADD PUSH2 0x1DD JUMP JUMPDEST SWAP2 POP POP SWAP3 SWAP2 POP POP JUMP JUMPDEST PUSH0 DUP2 SWAP1 POP SWAP2 SWAP1 POP JUMP JUMPDEST PUSH2 0x25D DUP2 PUSH2 0x24B JUMP JUMPDEST DUP2 EQ PUSH2 0x267 JUMPI PUSH0 DUP1 REVERT JUMPDEST POP JUMP JUMPDEST PUSH0 DUP2 MLOAD SWAP1 POP PUSH2 0x278 DUP2 PUSH2 0x254 JUMP JUMPDEST SWAP3 SWAP2 POP POP JUMP JUMPDEST PUSH0 DUP1 PUSH0 DUP1 PUSH0 DUP1 PUSH1 0xC0 DUP8 DUP10 SUB SLT ISZERO PUSH2 0x298 JUMPI PUSH2 0x297 PUSH2 0x107 JUMP JUMPDEST JUMPDEST PUSH0 DUP8 ADD MLOAD PUSH8 0xFFFFFFFFFFFFFFFF DUP2 GT ISZERO PUSH2 0x2B5 JUMPI PUSH2 0x2B4 PUSH2 0x10B JUMP JUMPDEST JUMPDEST PUSH2 0x2C1 DUP10 DUP3 DUP11 ADD PUSH2 0x21E JUMP JUMPDEST SWAP7 POP POP PUSH1 0x20 DUP8 ADD MLOAD PUSH8 0xFFFFFFFFFFFFFFFF DUP2 GT ISZERO PUSH2 0x2E2 JUMPI PUSH2 0x2E1 PUSH2 0x10B JUMP JUMPDEST JUMPDEST PUSH2 0x2EE DUP10 DUP3 DUP11 ADD PUSH2 0x21E JUMP JUMPDEST SWAP6 POP POP PUSH1 0x40 DUP8 ADD MLOAD PUSH8 0xFFFFFFFFFFFFFFFF DUP2 GT ISZERO PUSH2 0x30F JUMPI PUSH2 0x30E PUSH2 0x10B JUMP JUMPDEST JUMPDEST PUSH2 0x31B DUP10 DUP3 DUP11 ADD PUSH2 0x21E JUMP JUMPDEST SWAP5 POP POP PUSH1 0x60 PUSH2 0x32C DUP10 DUP3 DUP11 ADD PUSH2 0x26A JUMP JUMPDEST SWAP4 POP POP PUSH1 0x80 DUP8 ADD MLOAD PUSH8 0xFFFFFFFFFFFFFFFF DUP2 GT ISZERO PUSH2 0x34D JUMPI PUSH2 0x34C PUSH2 0x10B JUMP JUMPDEST JUMPDEST PUSH2 0x359 DUP10 DUP3 DUP11 ADD PUSH2 0x21E JUMP JUMPDEST SWAP3 POP POP PUSH1 0xA0 DUP8 ADD MLOAD PUSH8 0xFFFFFFFFFFFFFFFF DUP2 GT ISZERO PUSH2 0x37A JUMPI PUSH2 0x379 PUSH2 0x10B JUMP JUMPDEST JUMPDEST PUSH2 0x386 DUP10 DUP3 DUP11 ADD PUSH2 0x21E JUMP JUMPDEST SWAP2 POP POP SWAP3 SWAP6 POP SWAP3 SWAP6 POP SWAP3 SWAP6 JUMP JUMPDEST PUSH0 DUP2 MLOAD SWAP1 POP SWAP2 SWAP1 POP JUMP JUMPDEST PUSH32 0x4E487B7100000000000000000000000000000000000000000000000000000000 PUSH0 MSTORE PUSH1 0x22 PUSH1 0x4 MSTORE PUSH1 0x24 PUSH0 REVERT JUMPDEST PUSH0 PUSH1 0x2 DUP3 DIV SWAP1 POP PUSH1 0x1 DUP3 AND DUP1 PUSH2 0x3E1 JUMPI PUSH1 0x7F DUP3 AND SWAP2 POP JUMPDEST PUSH1 0x20 DUP3 LT DUP2 SUB PUSH2 0x3F4 JUMPI PUSH2 0x3F3 PUSH2 0x39D JUMP JUMPDEST JUMPDEST POP SWAP2 SWAP1 POP JUMP JUMPDEST PUSH0 DUP2 SWAP1 POP DUP2 PUSH0 MSTORE PUSH1 0x20 PUSH0 KECCAK256 SWAP1 POP SWAP2 SWAP1 POP JUMP JUMPDEST PUSH0 PUSH1 0x20 PUSH1 0x1F DUP4 ADD DIV SWAP1 POP SWAP2 SWAP1 POP JUMP JUMPDEST PUSH0 DUP3 DUP3 SHL SWAP1 POP SWAP3 SWAP2 POP POP JUMP JUMPDEST PUSH0 PUSH1 0x8 DUP4 MUL PUSH2 0x456 PUSH32 0xFFFFFFFFFFFFFFFFFFFFFFFFFFFFFFFFFFFFFFFFFFFFFFFFFFFFFFFFFFFFFFFF DUP3 PUSH2 0x41B JUMP JUMPDEST PUSH2 0x460 DUP7 DUP4 PUSH2 0x41B JUMP JUMPDEST SWAP6 POP DUP1 NOT DUP5 AND SWAP4 POP DUP1 DUP7 AND DUP5 OR SWAP3 POP POP POP SWAP4 SWAP3 POP POP POP JUMP JUMPDEST PUSH0 DUP2 SWAP1 POP SWAP2 SWAP1 POP JUMP JUMPDEST PUSH0 PUSH2 0x49B PUSH2 0x496 PUSH2 0x491 DUP5 PUSH2 0x24B JUMP JUMPDEST PUSH2 0x478 JUMP JUMPDEST PUSH2 0x24B JUMP JUMPDEST SWAP1 POP SWAP2 SWAP1 POP JUMP JUMPDEST PUSH0 DUP2 SWAP1 POP SWAP2 SWAP1 POP JUMP JUMPDEST PUSH2 0x4B4 DUP4 PUSH2 0x481 JUMP JUMPDEST PUSH2 0x4C8 PUSH2 0x4C0 DUP3 PUSH2 0x4A2 JUMP JUMPDEST DUP5 DUP5 SLOAD PUSH2 0x427 JUMP JUMPDEST DUP3 SSTORE POP POP POP POP JUMP JUMPDEST PUSH0 SWAP1 JUMP JUMPDEST PUSH2 0x4DC PUSH2 0x4D0 JUMP JUMPDEST PUSH2 0x4E7 DUP2 DUP5 DUP5 PUSH2 0x4AB JUMP JUMPDEST POP POP POP JUMP JUMPDEST JUMPDEST DUP2 DUP2 LT ISZERO PUSH2 0x50A JUMPI PUSH2 0x4FF PUSH0 DUP3 PUSH2 0x4D4 JUMP JUMPDEST PUSH1 0x1 DUP2 ADD SWAP1 POP PUSH2 0x4ED JUMP JUMPDEST POP POP JUMP JUMPDEST PUSH1 0x1F DUP3 GT ISZERO PUSH2 0x54F JUMPI PUSH2 0x520 DUP2 PUSH2 0x3FA JUMP JUMPDEST PUSH2 0x529 DUP5 PUSH2 0x40C JUMP JUMPDEST DUP2 ADD PUSH1 0x20 DUP6 LT ISZERO PUSH2 0x538 JUMPI DUP2 SWAP1 POP JUMPDEST PUSH2 0x54C PUSH2 0x544 DUP6 PUSH2 0x40C JUMP JUMPDEST DUP4 ADD DUP3 PUSH2 0x4EC JUMP JUMPDEST POP POP JUMPDEST POP POP POP JUMP JUMPDEST PUSH0 DUP3 DUP3 SHR SWAP1 POP SWAP3 SWAP2 POP POP JUMP JUMPDEST PUSH0 PUSH2 0x56F PUSH0 NOT DUP5 PUSH1 0x8 MUL PUSH2 0x554 JUMP JUMPDEST NOT DUP1 DUP4 AND SWAP2 POP POP SWAP3 SWAP2 POP POP JUMP JUMPDEST PUSH0 PUSH2 0x587 DUP4 DUP4 PUSH2 0x560 JUMP JUMPDEST SWAP2 POP DUP3 PUSH1 0x2 MUL DUP3 OR SWAP1 POP SWAP3 SWAP2 POP POP JUMP JUMPDEST PUSH2 0x5A0 DUP3 PUSH2 0x393 JUMP JUMPDEST PUSH8 0xFFFFFFFFFFFFFFFF DUP2 GT ISZERO PUSH2 0x5B9 JUMPI PUSH2 0x5B8 PUSH2 0x127 JUMP JUMPDEST JUMPDEST PUSH2 0x5C3 DUP3 SLOAD PUSH2 0x3CA JUMP JUMPDEST PUSH2 0x5CE DUP3 DUP3 DUP6 PUSH2 0x50E JUMP JUMPDEST PUSH0 PUSH1 0x20 SWAP1 POP PUSH1 0x1F DUP4 GT PUSH1 0x1 DUP2 EQ PUSH2 0x5FF JUMPI PUSH0 DUP5 ISZERO PUSH2 0x5ED JUMPI DUP3 DUP8 ADD MLOAD SWAP1 POP JUMPDEST PUSH2 0x5F7 DUP6 DUP3 PUSH2 0x57C JUMP JUMPDEST DUP7 SSTORE POP PUSH2 0x65E JUMP JUMPDEST PUSH1 0x1F NOT DUP5 AND PUSH2 0x60D DUP7 PUSH2 0x3FA JUMP JUMPDEST PUSH0 JUMPDEST DUP3 DUP2 LT ISZERO PUSH2 0x634 JUMPI DUP5 DUP10 ADD MLOAD DUP3 SSTORE PUSH1 0x1 DUP3 ADD SWAP2 POP PUSH1 0x20 DUP6 ADD SWAP5 POP PUSH1 0x20 DUP2 ADD SWAP1 POP PUSH2 0x60F JUMP JUMPDEST DUP7 DUP4 LT ISZERO PUSH2 0x651 JUMPI DUP5 DUP10 ADD MLOAD PUSH2 0x64D PUSH1 0x1F DUP10 AND DUP3 PUSH2 0x560 JUMP JUMPDEST DUP4 SSTORE POP JUMPDEST PUSH1 0x1 PUSH1 0x2 DUP9 MUL ADD DUP9 SSTORE POP POP POP JUMPDEST POP POP POP POP POP POP JUMP JUMPDEST PUSH2 0x17A5 DUP1 PUSH2 0x673 PUSH0 CODECOPY PUSH0 RETURN INVALID PUSH1 0x80 PUSH1 0x40 MSTORE PUSH1 0x4 CALLDATASIZE LT PUSH2 0xFD JUMPI PUSH0 CALLDATALOAD PUSH1 0xE0 SHR DUP1 PUSH4 0x83784B0B GT PUSH2 0x94 JUMPI DUP1 PUSH4 0xB7EC2086 GT PUSH2 0x63 JUMPI DUP1 PUSH4 0xB7EC2086 EQ PUSH2 0x2E9 JUMPI DUP1 PUSH4 0xCA5DBFEF EQ PUSH2 0x313 JUMPI DUP1 PUSH4 0xCF09E0D0 EQ PUSH2 0x33D JUMPI DUP1 PUSH4 0xEE3DEF0E EQ PUSH2 0x367 JUMPI DUP1 PUSH4 0xFD48E8E3 EQ PUSH2 0x391 JUMPI PUSH2 0xFD JUMP JUMPDEST DUP1 PUSH4 0x83784B0B EQ PUSH2 0x231 JUMPI DUP1 PUSH4 0x8DA5CB5B EQ PUSH2 0x26D JUMPI DUP1 PUSH4 0x91B7F5ED EQ PUSH2 0x297 JUMPI DUP1 PUSH4 0x949D225D EQ PUSH2 0x2BF JUMPI PUSH2 0xFD JUMP JUMPDEST DUP1 PUSH4 0x29C68DC1 GT PUSH2 0xD0 JUMPI DUP1 PUSH4 0x29C68DC1 EQ PUSH2 0x1A9 JUMPI DUP1 PUSH4 0x551CAA7C EQ PUSH2 0x1BF JUMPI DUP1 PUSH4 0x7284E416 EQ PUSH2 0x1DD JUMPI DUP1 PUSH4 0x729ACFF4 EQ PUSH2 0x207 JUMPI PUSH2 0xFD JUMP JUMPDEST DUP1 PUSH4 0x2FB0C5E EQ PUSH2 0x101 JUMPI DUP1 PUSH4 0x6FDDE03 EQ PUSH2 0x12B JUMPI DUP1 PUSH4 0x1A092541 EQ PUSH2 0x155 JUMPI DUP1 PUSH4 0x20C4FD31 EQ PUSH2 0x17F JUMPI JUMPDEST PUSH0 DUP1 REVERT JUMPDEST CALLVALUE DUP1 ISZERO PUSH2 0x10C JUMPI PUSH0 DUP1 REVERT JUMPDEST POP PUSH2 0x115 PUSH2 0x3BB JUMP JUMPDEST PUSH1 0x40 MLOAD PUSH2 0x122 SWAP2 SWAP1 PUSH2 0xF76 JUMP JUMPDEST PUSH1 0x40 MLOAD DUP1 SWAP2 SUB SWAP1 RETURN JUMPDEST CALLVALUE DUP1 ISZERO PUSH2 0x136 JUMPI PUSH0 DUP1 REVERT JUMPDEST POP PUSH2 0x13F PUSH2 0x3CE JUMP JUMPDEST PUSH1 0x40 MLOAD PUSH2 0x14C SWAP2 SWAP1 PUSH2 0xFFF JUMP JUMPDEST PUSH1 0x40 MLOAD DUP1 SWAP2 SUB SWAP1 RETURN JUMPDEST CALLVALUE DUP1 ISZERO PUSH2 0x160 JUMPI PUSH0 DUP1 REVERT JUMPDEST POP PUSH2 0x169 PUSH2 0x459 JUMP JUMPDEST PUSH1 0x40 MLOAD PUSH2 0x176 SWAP2 SWAP1 PUSH2 0xFFF JUMP JUMPDEST PUSH1 0x40 MLOAD DUP1 SWAP2 SUB SWAP1 RETURN JUMPDEST CALLVALUE DUP1 ISZERO PUSH2 0x18A JUMPI PUSH0 DUP1 REVERT JUMPDEST POP PUSH2 0x193 PUSH2 0x4E9 JUMP JUMPDEST PUSH1 0x40 MLOAD PUSH2 0x1A0 SWAP2 SWAP1 PUSH2 0x1037 JUMP JUMPDEST PUSH1 0x40 MLOAD DUP1 SWAP2 SUB SWAP1 RETURN JUMPDEST CALLVALUE DUP1 ISZERO PUSH2 0x1B4 JUMPI PUSH0 DUP1 REVERT JUMPDEST POP PUSH2 0x1BD PUSH2 0x4EF JUMP JUMPDEST STOP JUMPDEST PUSH2 0x1C7 PUSH2 0x5AA JUMP JUMPDEST PUSH1 0x40 MLOAD PUSH2 0x1D4 SWAP2 SWAP1 PUSH2 0xFFF JUMP JUMPDEST PUSH1 0x40 MLOAD DUP1 SWAP2 SUB SWAP1 RETURN JUMPDEST CALLVALUE DUP1 ISZERO PUSH2 0x1E8 JUMPI PUSH0 DUP1 REVERT JUMPDEST POP PUSH2 0x1F1 PUSH2 0x809 JUMP JUMPDEST PUSH1 0x40 MLOAD PUSH2 0x1FE SWAP2 SWAP1 PUSH2 0xFFF JUMP JUMPDEST PUSH1 0x40 MLOAD DUP1 SWAP2 SUB SWAP1 RETURN JUMPDEST CALLVALUE DUP1 ISZERO PUSH2 0x212 JUMPI PUSH0 DUP1 REVERT JUMPDEST POP PUSH2 0x21B PUSH2 0x895 JUMP JUMPDEST PUSH1 0x40 MLOAD PUSH2 0x228 SWAP2 SWAP1 PUSH2 0xFFF JUMP JUMPDEST PUSH1 0x40 MLOAD DUP1 SWAP2 SUB SWAP1 RETURN JUMPDEST CALLVALUE DUP1 ISZERO PUSH2 0x23C JUMPI PUSH0 DUP1 REVERT JUMPDEST POP PUSH2 0x257 PUSH1 0x4 DUP1 CALLDATASIZE SUB DUP2 ADD SWAP1 PUSH2 0x252 SWAP2 SWAP1 PUSH2 0x118D JUMP JUMPDEST PUSH2 0x921 JUMP JUMPDEST PUSH1 0x40 MLOAD PUSH2 0x264 SWAP2 SWAP1 PUSH2 0x1037 JUMP JUMPDEST PUSH1 0x40 MLOAD DUP1 SWAP2 SUB SWAP1 RETURN JUMPDEST CALLVALUE DUP1 ISZERO PUSH2 0x278 JUMPI PUSH0 DUP1 REVERT JUMPDEST POP PUSH2 0x281 PUSH2 0xA77 JUMP JUMPDEST PUSH1 0x40 MLOAD PUSH2 0x28E SWAP2 SWAP1 PUSH2 0x1213 JUMP JUMPDEST PUSH1 0x40 MLOAD DUP1 SWAP2 SUB SWAP1 RETURN JUMPDEST CALLVALUE DUP1 ISZERO PUSH2 0x2A2 JUMPI PUSH0 DUP1 REVERT JUMPDEST POP PUSH2 0x2BD PUSH1 0x4 DUP1 CALLDATASIZE SUB DUP2 ADD SWAP1 PUSH2 0x2B8 SWAP2 SWAP1 PUSH2 0x1256 JUMP JUMPDEST PUSH2 0xA9C JUMP JUMPDEST STOP JUMPDEST CALLVALUE DUP1 ISZERO PUSH2 0x2CA JUMPI PUSH0 DUP1 REVERT JUMPDEST POP PUSH2 0x2D3 PUSH2 0xB35 JUMP JUMPDEST PUSH1 0x40 MLOAD PUSH2 0x2E0 SWAP2 SWAP1 PUSH2 0xFFF JUMP JUMPDEST PUSH1 0x40 MLOAD DUP1 SWAP2 SUB SWAP1 RETURN JUMPDEST CALLVALUE DUP1 ISZERO PUSH2 0x2F4 JUMPI PUSH0 DUP1 REVERT JUMPDEST POP PUSH2 0x2FD PUSH2 0xBC1 JUMP JUMPDEST PUSH1 0x40 MLOAD PUSH2 0x30A SWAP2 SWAP1 PUSH2 0x1037 JUMP JUMPDEST PUSH1 0x40 MLOAD DUP1 SWAP2 SUB SWAP1 RETURN JUMPDEST CALLVALUE DUP1 ISZERO PUSH2 0x31E JUMPI PUSH0 DUP1 REVERT JUMPDEST POP PUSH2 0x327 PUSH2 0xBC7 JUMP JUMPDEST PUSH1 0x40 MLOAD PUSH2 0x334 SWAP2 SWAP1 PUSH2 0xFFF JUMP JUMPDEST PUSH1 0x40 MLOAD DUP1 SWAP2 SUB SWAP1 RETURN JUMPDEST CALLVALUE DUP1 ISZERO PUSH2 0x348 JUMPI PUSH0 DUP1 REVERT JUMPDEST POP PUSH2 0x351 PUSH2 0xCA9 JUMP JUMPDEST PUSH1 0x40 MLOAD PUSH2 0x35E SWAP2 SWAP1 PUSH2 0xFFF JUMP JUMPDEST PUSH1 0x40 MLOAD DUP1 SWAP2 SUB SWAP1 RETURN JUMPDEST CALLVALUE DUP1 ISZERO PUSH2 0x372 JUMPI PUSH0 DUP1 REVERT JUMPDEST POP PUSH2 0x37B PUSH2 0xD35 JUMP JUMPDEST PUSH1 0x40 MLOAD PUSH2 0x388 SWAP2 SWAP1 PUSH2 0x1037 JUMP JUMPDEST PUSH1 0x40 MLOAD DUP1 SWAP2 SUB SWAP1 RETURN JUMPDEST CALLVALUE DUP1 ISZERO PUSH2 0x39C JUMPI PUSH0 DUP1 REVERT JUMPDEST POP PUSH2 0x3A5 PUSH2 0xD3B JUMP JUMPDEST PUSH1 0x40 MLOAD PUSH2 0x3B2 SWAP2 SWAP1 PUSH2 0x1037 JUMP JUMPDEST PUSH1 0x40 MLOAD DUP1 SWAP2 SUB SWAP1 RETURN JUMPDEST PUSH1 0x7 PUSH1 0x14 SWAP1 SLOAD SWAP1 PUSH2 0x100 EXP SWAP1 DIV PUSH1 0xFF AND DUP2 JUMP JUMPDEST PUSH0 DUP1 SLOAD PUSH2 0x3DA SWAP1 PUSH2 0x12AE JUMP JUMPDEST DUP1 PUSH1 0x1F ADD PUSH1 0x20 DUP1 SWAP2 DIV MUL PUSH1 0x20 ADD PUSH1 0x40 MLOAD SWAP1 DUP2 ADD PUSH1 0x40 MSTORE DUP1 SWAP3 SWAP2 SWAP1 DUP2 DUP2 MSTORE PUSH1 0x20 ADD DUP3 DUP1 SLOAD PUSH2 0x406 SWAP1 PUSH2 0x12AE JUMP JUMPDEST DUP1 ISZERO PUSH2 0x451 JUMPI DUP1 PUSH1 0x1F LT PUSH2 0x428 JUMPI PUSH2 0x100 DUP1 DUP4 SLOAD DIV MUL DUP4 MSTORE SWAP2 PUSH1 0x20 ADD SWAP2 PUSH2 0x451 JUMP JUMPDEST DUP3 ADD SWAP2 SWAP1 PUSH0 MSTORE PUSH1 0x20 PUSH0 KECCAK256 SWAP1 JUMPDEST DUP2 SLOAD DUP2 MSTORE SWAP1 PUSH1 0x1 ADD SWAP1 PUSH1 0x20 ADD DUP1 DUP4 GT PUSH2 0x434 JUMPI DUP3 SWAP1 SUB PUSH1 0x1F AND DUP3 ADD SWAP2 JUMPDEST POP POP POP POP POP DUP2 JUMP JUMPDEST PUSH1 0x60 PUSH1 0x1 DUP1 SLOAD PUSH2 0x468 SWAP1 PUSH2 0x12AE JUMP JUMPDEST DUP1 PUSH1 0x1F ADD PUSH1 0x20 DUP1 SWAP2 DIV MUL PUSH1 0x20 ADD PUSH1 0x40 MLOAD SWAP1 DUP2 ADD PUSH1 0x40 MSTORE DUP1 SWAP3 SWAP2 SWAP1 DUP2 DUP2 MSTORE PUSH1 0x20 ADD DUP3 DUP1 SLOAD PUSH2 0x494 SWAP1 PUSH2 0x12AE JUMP JUMPDEST DUP1 ISZERO PUSH2 0x4DF JUMPI DUP1 PUSH1 0x1F LT PUSH2 0x4B6 JUMPI PUSH2 0x100 DUP1 DUP4 SLOAD DIV MUL DUP4 MSTORE SWAP2 PUSH1 0x20 ADD SWAP2 PUSH2 0x4DF JUMP JUMPDEST DUP3 ADD SWAP2 SWAP1 PUSH0 MSTORE PUSH1 0x20 PUSH0 KECCAK256 SWAP1 JUMPDEST DUP2 SLOAD DUP2 MSTORE SWAP1 PUSH1 0x1 ADD SWAP1 PUSH1 0x20 ADD DUP1 DUP4 GT PUSH2 0x4C2 JUMPI DUP3 SWAP1 SUB PUSH1 0x1F AND DUP3 ADD SWAP2 JUMPDEST POP POP POP POP POP SWAP1 POP SWAP1 JUMP JUMPDEST PUSH1 0xA SLOAD DUP2 JUMP JUMPDEST PUSH1 0x7 PUSH0 SWAP1 SLOAD SWAP1 PUSH2 0x100 EXP SWAP1 DIV PUSH20 0xFFFFFFFFFFFFFFFFFFFFFFFFFFFFFFFFFFFFFFFF AND PUSH20 0xFFFFFFFFFFFFFFFFFFFFFFFFFFFFFFFFFFFFFFFF AND CALLER PUSH20 0xFFFFFFFFFFFFFFFFFFFFFFFFFFFFFFFFFFFFFFFF AND EQ PUSH2 0x57E JUMPI PUSH1 0x40 MLOAD PUSH32 0x8C379A000000000000000000000000000000000000000000000000000000000 DUP2 MSTORE PUSH1 0x4 ADD PUSH2 0x575 SWAP1 PUSH2 0x134E JUMP JUMPDEST PUSH1 0x40 MLOAD DUP1 SWAP2 SUB SWAP1 REVERT JUMPDEST PUSH1 0x7 PUSH1 0x14 SWAP1 SLOAD SWAP1 PUSH2 0x100 EXP SWAP1 DIV PUSH1 0xFF AND ISZERO PUSH1 0x7 PUSH1 0x14 PUSH2 0x100 EXP DUP2 SLOAD DUP2 PUSH1 0xFF MUL NOT AND SWAP1 DUP4 ISZERO ISZERO MUL OR SWAP1 SSTORE POP JUMP JUMPDEST PUSH1 0x60 PUSH1 0xA SLOAD PUSH1 0xB SLOAD GT ISZERO PUSH2 0x5F3 JUMPI PUSH1 0x40 MLOAD PUSH32 0x8C379A000000000000000000000000000000000000000000000000000000000 DUP2 MSTORE PUSH1 0x4 ADD PUSH2 0x5EA SWAP1 PUSH2 0x13DC JUMP JUMPDEST PUSH1 0x40 MLOAD DUP1 SWAP2 SUB SWAP1 REVERT JUMPDEST PUSH1 0x3 SLOAD CALLVALUE EQ PUSH2 0x637 JUMPI PUSH1 0x40 MLOAD PUSH32 0x8C379A000000000000000000000000000000000000000000000000000000000 DUP2 MSTORE PUSH1 0x4 ADD PUSH2 0x62E SWAP1 PUSH2 0x146A JUMP JUMPDEST PUSH1 0x40 MLOAD DUP1 SWAP2 SUB SWAP1 REVERT JUMPDEST PUSH1 0x9 SLOAD PUSH1 0x4 SLOAD SUB PUSH2 0x6AC JUMPI PUSH1 0x7 PUSH0 SWAP1 SLOAD SWAP1 PUSH2 0x100 EXP SWAP1 DIV PUSH20 0xFFFFFFFFFFFFFFFFFFFFFFFFFFFFFFFFFFFFFFFF AND PUSH20 0xFFFFFFFFFFFFFFFFFFFFFFFFFFFFFFFFFFFFFFFF AND PUSH2 0x8FC SELFBALANCE SWAP1 DUP2 ISZERO MUL SWAP1 PUSH1 0x40 MLOAD PUSH0 PUSH1 0x40 MLOAD DUP1 DUP4 SUB DUP2 DUP6 DUP9 DUP9 CALL SWAP4 POP POP POP POP ISZERO DUP1 ISZERO PUSH2 0x6A6 JUMPI RETURNDATASIZE PUSH0 DUP1 RETURNDATACOPY RETURNDATASIZE PUSH0 REVERT JUMPDEST POP PUSH2 0x71F JUMP JUMPDEST PUSH1 0x9 SLOAD PUSH1 0x4 SLOAD GT ISZERO PUSH2 0x71E JUMPI PUSH1 0x7 PUSH0 SWAP1 SLOAD SWAP1 PUSH2 0x100 EXP SWAP1 DIV PUSH20 0xFFFFFFFFFFFFFFFFFFFFFFFFFFFFFFFFFFFFFFFF AND PUSH20 0xFFFFFFFFFFFFFFFFFFFFFFFFFFFFFFFFFFFFFFFF AND PUSH2 0x8FC CALLVALUE SWAP1 DUP2 ISZERO MUL SWAP1 PUSH1 0x40 MLOAD PUSH0 PUSH1 0x40 MLOAD DUP1 DUP4 SUB DUP2 DUP6 DUP9 DUP9 CALL SWAP4 POP POP POP POP ISZERO DUP1 ISZERO PUSH2 0x71C JUMPI RETURNDATASIZE PUSH0 DUP1 RETURNDATACOPY RETURNDATASIZE PUSH0 REVERT JUMPDEST POP JUMPDEST JUMPDEST PUSH1 0x1 PUSH1 0x4 PUSH0 DUP3 DUP3 SLOAD PUSH2 0x731 SWAP2 SWAP1 PUSH2 0x14B5 JUMP JUMPDEST SWAP3 POP POP DUP2 SWAP1 SSTORE POP CALLER PUSH20 0xFFFFFFFFFFFFFFFFFFFFFFFFFFFFFFFFFFFFFFFF AND PUSH32 0x4A017353A6A671C5595F31469F50DC962E14C1A712BA8971A058AC0460731BD1 PUSH1 0x40 MLOAD PUSH1 0x40 MLOAD DUP1 SWAP2 SUB SWAP1 LOG2 PUSH1 0x8 DUP1 SLOAD PUSH2 0x788 SWAP1 PUSH2 0x12AE JUMP JUMPDEST DUP1 PUSH1 0x1F ADD PUSH1 0x20 DUP1 SWAP2 DIV MUL PUSH1 0x20 ADD PUSH1 0x40 MLOAD SWAP1 DUP2 ADD PUSH1 0x40 MSTORE DUP1 SWAP3 SWAP2 SWAP1 DUP2 DUP2 MSTORE PUSH1 0x20 ADD DUP3 DUP1 SLOAD PUSH2 0x7B4 SWAP1 PUSH2 0x12AE JUMP JUMPDEST DUP1 ISZERO PUSH2 0x7FF JUMPI DUP1 PUSH1 0x1F LT PUSH2 0x7D6 JUMPI PUSH2 0x100 DUP1 DUP4 SLOAD DIV MUL DUP4 MSTORE SWAP2 PUSH1 0x20 ADD SWAP2 PUSH2 0x7FF JUMP JUMPDEST DUP3 ADD SWAP2 SWAP1 PUSH0 MSTORE PUSH1 0x20 PUSH0 KECCAK256 SWAP1 JUMPDEST DUP2 SLOAD DUP2 MSTORE SWAP1 PUSH1 0x1 ADD SWAP1 PUSH1 0x20 ADD DUP1 DUP4 GT PUSH2 0x7E2 JUMPI DUP3 SWAP1 SUB PUSH1 0x1F AND DUP3 ADD SWAP2 JUMPDEST POP POP POP POP POP SWAP1 POP SWAP1 JUMP JUMPDEST PUSH1 0x1 DUP1 SLOAD PUSH2 0x816 SWAP1 PUSH2 0x12AE JUMP JUMPDEST DUP1 PUSH1 0x1F ADD PUSH1 0x20 DUP1 SWAP2 DIV MUL PUSH1 0x20 ADD PUSH1 0x40 MLOAD SWAP1 DUP2 ADD PUSH1 0x40 MSTORE DUP1 SWAP3 SWAP2 SWAP1 DUP2 DUP2 MSTORE PUSH1 0x20 ADD DUP3 DUP1 SLOAD PUSH2 0x842 SWAP1 PUSH2 0x12AE JUMP JUMPDEST DUP1 ISZERO PUSH2 0x88D JUMPI DUP1 PUSH1 0x1F LT PUSH2 0x864 JUMPI PUSH2 0x100 DUP1 DUP4 SLOAD DIV MUL DUP4 MSTORE SWAP2 PUSH1 0x20 ADD SWAP2 PUSH2 0x88D JUMP JUMPDEST DUP3 ADD SWAP2 SWAP1 PUSH0 MSTORE PUSH1 0x20 PUSH0 KECCAK256 SWAP1 JUMPDEST DUP2 SLOAD DUP2 MSTORE SWAP1 PUSH1 0x1 ADD SWAP1 PUSH1 0x20 ADD DUP1 DUP4 GT PUSH2 0x870 JUMPI DUP3 SWAP1 SUB PUSH1 0x1F AND DUP3 ADD SWAP2 JUMPDEST POP POP POP POP POP DUP2 JUMP JUMPDEST PUSH1 0x5 DUP1 SLOAD PUSH2 0x8A2 SWAP1 PUSH2 0x12AE JUMP JUMPDEST DUP1 PUSH1 0x1F ADD PUSH1 0x20 DUP1 SWAP2 DIV MUL PUSH1 0x20 ADD PUSH1 0x40 MLOAD SWAP1 DUP2 ADD PUSH1 0x40 MSTORE DUP1 SWAP3 SWAP2 SWAP1 DUP2 DUP2 MSTORE PUSH1 0x20 ADD DUP3 DUP1 SLOAD PUSH2 0x8CE SWAP1 PUSH2 0x12AE JUMP JUMPDEST DUP1 ISZERO PUSH2 0x919 JUMPI DUP1 PUSH1 0x1F LT PUSH2 0x8F0 JUMPI PUSH2 0x100 DUP1 DUP4 SLOAD DIV MUL DUP4 MSTORE SWAP2 PUSH1 0x20 ADD SWAP2 PUSH2 0x919 JUMP JUMPDEST DUP3 ADD SWAP2 SWAP1 PUSH0 MSTORE PUSH1 0x20 PUSH0 KECCAK256 SWAP1 JUMPDEST DUP2 SLOAD DUP2 MSTORE SWAP1 PUSH1 0x1 ADD SWAP1 PUSH1 0x20 ADD DUP1 DUP4 GT PUSH2 0x8FC JUMPI DUP3 SWAP1 SUB PUSH1 0x1F AND DUP3 ADD SWAP2 JUMPDEST POP POP POP POP POP DUP2 JUMP JUMPDEST PUSH0 DUP1 PUSH1 0xC PUSH0 CALLER PUSH20 0xFFFFFFFFFFFFFFFFFFFFFFFFFFFFFFFFFFFFFFFF AND PUSH20 0xFFFFFFFFFFFFFFFFFFFFFFFFFFFFFFFFFFFFFFFF AND DUP2 MSTORE PUSH1 0x20 ADD SWAP1 DUP2 MSTORE PUSH1 0x20 ADD PUSH0 KECCAK256 PUSH0 SWAP1 SLOAD SWAP1 PUSH2 0x100 EXP SWAP1 DIV PUSH1 0xFF AND SWAP1 POP DUP1 ISZERO PUSH2 0x9B0 JUMPI PUSH1 0x40 MLOAD PUSH32 0x8C379A000000000000000000000000000000000000000000000000000000000 DUP2 MSTORE PUSH1 0x4 ADD PUSH2 0x9A7 SWAP1 PUSH2 0x1558 JUMP JUMPDEST PUSH1 0x40 MLOAD DUP1 SWAP2 SUB SWAP1 REVERT JUMPDEST PUSH1 0x1 PUSH1 0xC PUSH0 CALLER PUSH20 0xFFFFFFFFFFFFFFFFFFFFFFFFFFFFFFFFFFFFFFFF AND PUSH20 0xFFFFFFFFFFFFFFFFFFFFFFFFFFFFFFFFFFFFFFFF AND DUP2 MSTORE PUSH1 0x20 ADD SWAP1 DUP2 MSTORE PUSH1 0x20 ADD PUSH0 KECCAK256 PUSH0 PUSH2 0x100 EXP DUP2 SLOAD DUP2 PUSH1 0xFF MUL NOT AND SWAP1 DUP4 ISZERO ISZERO MUL OR SWAP1 SSTORE POP PUSH1 0x1 PUSH1 0xB PUSH0 DUP3 DUP3 SLOAD PUSH2 0xA17 SWAP2 SWAP1 PUSH2 0x14B5 JUMP JUMPDEST SWAP3 POP POP DUP2 SWAP1 SSTORE POP CALLER PUSH20 0xFFFFFFFFFFFFFFFFFFFFFFFFFFFFFFFFFFFFFFFF AND PUSH32 0xAB041670EB9E6E047417D6B20C2560283F97944F712ED0FAD739BE1A8574B5CD DUP5 PUSH1 0x40 MLOAD PUSH2 0xA64 SWAP2 SWAP1 PUSH2 0xFFF JUMP JUMPDEST PUSH1 0x40 MLOAD DUP1 SWAP2 SUB SWAP1 LOG2 PUSH1 0xB SLOAD SWAP2 POP POP SWAP2 SWAP1 POP JUMP JUMPDEST PUSH1 0x7 PUSH0 SWAP1 SLOAD SWAP1 PUSH2 0x100 EXP SWAP1 DIV PUSH20 0xFFFFFFFFFFFFFFFFFFFFFFFFFFFFFFFFFFFFFFFF AND DUP2 JUMP JUMPDEST PUSH1 0x7 PUSH0 SWAP1 SLOAD SWAP1 PUSH2 0x100 EXP SWAP1 DIV PUSH20 0xFFFFFFFFFFFFFFFFFFFFFFFFFFFFFFFFFFFFFFFF AND PUSH20 0xFFFFFFFFFFFFFFFFFFFFFFFFFFFFFFFFFFFFFFFF AND CALLER PUSH20 0xFFFFFFFFFFFFFFFFFFFFFFFFFFFFFFFFFFFFFFFF AND EQ PUSH2 0xB2B JUMPI PUSH1 0x40 MLOAD PUSH32 0x8C379A000000000000000000000000000000000000000000000000000000000 DUP2 MSTORE PUSH1 0x4 ADD PUSH2 0xB22 SWAP1 PUSH2 0x134E JUMP JUMPDEST PUSH1 0x40 MLOAD DUP1 SWAP2 SUB SWAP1 REVERT JUMPDEST DUP1 PUSH1 0x3 DUP2 SWAP1 SSTORE POP POP JUMP JUMPDEST PUSH1 0x6 DUP1 SLOAD PUSH2 0xB42 SWAP1 PUSH2 0x12AE JUMP JUMPDEST DUP1 PUSH1 0x1F ADD PUSH1 0x20 DUP1 SWAP2 DIV MUL PUSH1 0x20 ADD PUSH1 0x40 MLOAD SWAP1 DUP2 ADD PUSH1 0x40 MSTORE DUP1 SWAP3 SWAP2 SWAP1 DUP2 DUP2 MSTORE PUSH1 0x20 ADD DUP3 DUP1 SLOAD PUSH2 0xB6E SWAP1 PUSH2 0x12AE JUMP JUMPDEST DUP1 ISZERO PUSH2 0xBB9 JUMPI DUP1 PUSH1 0x1F LT PUSH2 0xB90 JUMPI PUSH2 0x100 DUP1 DUP4 SLOAD DIV MUL DUP4 MSTORE SWAP2 PUSH1 0x20 ADD SWAP2 PUSH2 0xBB9 JUMP JUMPDEST DUP3 ADD SWAP2 SWAP1 PUSH0 MSTORE PUSH1 0x20 PUSH0 KECCAK256 SWAP1 JUMPDEST DUP2 SLOAD DUP2 MSTORE SWAP1 PUSH1 0x1 ADD SWAP1 PUSH1 0x20 ADD DUP1 DUP4 GT PUSH2 0xB9C JUMPI DUP3 SWAP1 SUB PUSH1 0x1F AND DUP3 ADD SWAP2 JUMPDEST POP POP POP POP POP DUP2 JUMP JUMPDEST PUSH1 0x3 SLOAD DUP2 JUMP JUMPDEST PUSH1 0x60 PUSH0 PUSH1 0x1 PUSH2 0xBD7 PUSH1 0x3 SLOAD PUSH2 0xD41 JUMP JUMPDEST PUSH2 0xBE2 PUSH1 0x4 SLOAD PUSH2 0xD41 JUMP JUMPDEST PUSH1 0x5 PUSH1 0x6 PUSH1 0x2 PUSH1 0x7 PUSH1 0x14 SWAP1 SLOAD SWAP1 PUSH2 0x100 EXP SWAP1 DIV PUSH1 0xFF AND DUP1 ISZERO PUSH2 0xC08 JUMPI POP PUSH1 0xA SLOAD PUSH1 0xB SLOAD GT ISZERO JUMPDEST PUSH2 0xC47 JUMPI PUSH1 0x40 MLOAD DUP1 PUSH1 0x40 ADD PUSH1 0x40 MSTORE DUP1 PUSH1 0x8 DUP2 MSTORE PUSH1 0x20 ADD PUSH32 0x696E616374697665000000000000000000000000000000000000000000000000 DUP2 MSTORE POP PUSH2 0xC7E JUMP JUMPDEST PUSH1 0x40 MLOAD DUP1 PUSH1 0x40 ADD PUSH1 0x40 MSTORE DUP1 PUSH1 0x6 DUP2 MSTORE PUSH1 0x20 ADD PUSH32 0x6163746976650000000000000000000000000000000000000000000000000000 DUP2 MSTORE POP JUMPDEST PUSH1 0x40 MLOAD PUSH1 0x20 ADD PUSH2 0xC95 SWAP9 SWAP8 SWAP7 SWAP6 SWAP5 SWAP4 SWAP3 SWAP2 SWAP1 PUSH2 0x1668 JUMP JUMPDEST PUSH1 0x40 MLOAD PUSH1 0x20 DUP2 DUP4 SUB SUB DUP2 MSTORE SWAP1 PUSH1 0x40 MSTORE SWAP1 POP SWAP1 JUMP JUMPDEST PUSH1 0x2 DUP1 SLOAD PUSH2 0xCB6 SWAP1 PUSH2 0x12AE JUMP JUMPDEST DUP1 PUSH1 0x1F ADD PUSH1 0x20 DUP1 SWAP2 DIV MUL PUSH1 0x20 ADD PUSH1 0x40 MLOAD SWAP1 DUP2 ADD PUSH1 0x40 MSTORE DUP1 SWAP3 SWAP2 SWAP1 DUP2 DUP2 MSTORE PUSH1 0x20 ADD DUP3 DUP1 SLOAD PUSH2 0xCE2 SWAP1 PUSH2 0x12AE JUMP JUMPDEST DUP1 ISZERO PUSH2 0xD2D JUMPI DUP1 PUSH1 0x1F LT PUSH2 0xD04 JUMPI PUSH2 0x100 DUP1 DUP4 SLOAD DIV MUL DUP4 MSTORE SWAP2 PUSH1 0x20 ADD SWAP2 PUSH2 0xD2D JUMP JUMPDEST DUP3 ADD SWAP2 SWAP1 PUSH0 MSTORE PUSH1 0x20 PUSH0 KECCAK256 SWAP1 JUMPDEST DUP2 SLOAD DUP2 MSTORE SWAP1 PUSH1 0x1 ADD SWAP1 PUSH1 0x20 ADD DUP1 DUP4 GT PUSH2 0xD10 JUMPI DUP3 SWAP1 SUB PUSH1 0x1F AND DUP3 ADD SWAP2 JUMPDEST POP POP POP POP POP DUP2 JUMP JUMPDEST PUSH1 0x4 SLOAD DUP2 JUMP JUMPDEST PUSH1 0x9 SLOAD DUP2 JUMP JUMPDEST PUSH1 0x60 PUSH0 PUSH1 0x1 PUSH2 0xD4F DUP5 PUSH2 0xE0B JUMP JUMPDEST ADD SWAP1 POP PUSH0 DUP2 PUSH8 0xFFFFFFFFFFFFFFFF DUP2 GT ISZERO PUSH2 0xD6D JUMPI PUSH2 0xD6C PUSH2 0x1069 JUMP JUMPDEST JUMPDEST PUSH1 0x40 MLOAD SWAP1 DUP1 DUP3 MSTORE DUP1 PUSH1 0x1F ADD PUSH1 0x1F NOT AND PUSH1 0x20 ADD DUP3 ADD PUSH1 0x40 MSTORE DUP1 ISZERO PUSH2 0xD9F JUMPI DUP2 PUSH1 0x20 ADD PUSH1 0x1 DUP3 MUL DUP1 CALLDATASIZE DUP4 CALLDATACOPY DUP1 DUP3 ADD SWAP2 POP POP SWAP1 POP JUMPDEST POP SWAP1 POP PUSH0 DUP3 PUSH1 0x20 ADD DUP3 ADD SWAP1 POP JUMPDEST PUSH1 0x1 ISZERO PUSH2 0xE00 JUMPI DUP1 DUP1 PUSH1 0x1 SWAP1 SUB SWAP2 POP POP PUSH32 0x3031323334353637383961626364656600000000000000000000000000000000 PUSH1 0xA DUP7 MOD BYTE DUP2 MSTORE8 PUSH1 0xA DUP6 DUP2 PUSH2 0xDF5 JUMPI PUSH2 0xDF4 PUSH2 0x1742 JUMP JUMPDEST JUMPDEST DIV SWAP5 POP PUSH0 DUP6 SUB PUSH2 0xDAC JUMPI JUMPDEST DUP2 SWAP4 POP POP POP POP SWAP2 SWAP1 POP JUMP JUMPDEST PUSH0 DUP1 PUSH0 SWAP1 POP PUSH27 0x184F03E93FF9F4DAA797ED6E38ED64BF6A1F010000000000000000 DUP4 LT PUSH2 0xE67 JUMPI PUSH27 0x184F03E93FF9F4DAA797ED6E38ED64BF6A1F010000000000000000 DUP4 DUP2 PUSH2 0xE5D JUMPI PUSH2 0xE5C PUSH2 0x1742 JUMP JUMPDEST JUMPDEST DIV SWAP3 POP PUSH1 0x40 DUP2 ADD SWAP1 POP JUMPDEST PUSH14 0x4EE2D6D415B85ACEF8100000000 DUP4 LT PUSH2 0xEA4 JUMPI PUSH14 0x4EE2D6D415B85ACEF8100000000 DUP4 DUP2 PUSH2 0xE9A JUMPI PUSH2 0xE99 PUSH2 0x1742 JUMP JUMPDEST JUMPDEST DIV SWAP3 POP PUSH1 0x20 DUP2 ADD SWAP1 POP JUMPDEST PUSH7 0x2386F26FC10000 DUP4 LT PUSH2 0xED3 JUMPI PUSH7 0x2386F26FC10000 DUP4 DUP2 PUSH2 0xEC9 JUMPI PUSH2 0xEC8 PUSH2 0x1742 JUMP JUMPDEST JUMPDEST DIV SWAP3 POP PUSH1 0x10 DUP2 ADD SWAP1 POP JUMPDEST PUSH4 0x5F5E100 DUP4 LT PUSH2 0xEFC JUMPI PUSH4 0x5F5E100 DUP4 DUP2 PUSH2 0xEF2 JUMPI PUSH2 0xEF1 PUSH2 0x1742 JUMP JUMPDEST JUMPDEST DIV SWAP3 POP PUSH1 0x8 DUP2 ADD SWAP1 POP JUMPDEST PUSH2 0x2710 DUP4 LT PUSH2 0xF21 JUMPI PUSH2 0x2710 DUP4 DUP2 PUSH2 0xF17 JUMPI PUSH2 0xF16 PUSH2 0x1742 JUMP JUMPDEST JUMPDEST DIV SWAP3 POP PUSH1 0x4 DUP2 ADD SWAP1 POP JUMPDEST PUSH1 0x64 DUP4 LT PUSH2 0xF44 JUMPI PUSH1 0x64 DUP4 DUP2 PUSH2 0xF3A JUMPI PUSH2 0xF39 PUSH2 0x1742 JUMP JUMPDEST JUMPDEST DIV SWAP3 POP PUSH1 0x2 DUP2 ADD SWAP1 POP JUMPDEST PUSH1 0xA DUP4 LT PUSH2 0xF53 JUMPI PUSH1 0x1 DUP2 ADD SWAP1 POP JUMPDEST DUP1 SWAP2 POP POP SWAP2 SWAP1 POP JUMP JUMPDEST PUSH0 DUP2 ISZERO ISZERO SWAP1 POP SWAP2 SWAP1 POP JUMP JUMPDEST PUSH2 0xF70 DUP2 PUSH2 0xF5C JUMP JUMPDEST DUP3 MSTORE POP POP JUMP JUMPDEST PUSH0 PUSH1 0x20 DUP3 ADD SWAP1 POP PUSH2 0xF89 PUSH0 DUP4 ADD DUP5 PUSH2 0xF67 JUMP JUMPDEST SWAP3 SWAP2 POP POP JUMP JUMPDEST PUSH0 DUP2 MLOAD SWAP1 POP SWAP2 SWAP1 POP JUMP JUMPDEST PUSH0 DUP3 DUP3 MSTORE PUSH1 0x20 DUP3 ADD SWAP1 POP SWAP3 SWAP2 POP POP JUMP JUMPDEST DUP3 DUP2 DUP4 MCOPY PUSH0 DUP4 DUP4 ADD MSTORE POP POP POP JUMP JUMPDEST PUSH0 PUSH1 0x1F NOT PUSH1 0x1F DUP4 ADD AND SWAP1 POP SWAP2 SWAP1 POP JUMP JUMPDEST PUSH0 PUSH2 0xFD1 DUP3 PUSH2 0xF8F JUMP JUMPDEST PUSH2 0xFDB DUP2 DUP6 PUSH2 0xF99 JUMP JUMPDEST SWAP4 POP PUSH2 0xFEB DUP2 DUP6 PUSH1 0x20 DUP7 ADD PUSH2 0xFA9 JUMP JUMPDEST PUSH2 0xFF4 DUP2 PUSH2 0xFB7 JUMP JUMPDEST DUP5 ADD SWAP2 POP POP SWAP3 SWAP2 POP POP JUMP JUMPDEST PUSH0 PUSH1 0x20 DUP3 ADD SWAP1 POP DUP2 DUP2 SUB PUSH0 DUP4 ADD MSTORE PUSH2 0x1017 DUP2 DUP5 PUSH2 0xFC7 JUMP JUMPDEST SWAP1 POP SWAP3 SWAP2 POP POP JUMP JUMPDEST PUSH0 DUP2 SWAP1 POP SWAP2 SWAP1 POP JUMP JUMPDEST PUSH2 0x1031 DUP2 PUSH2 0x101F JUMP JUMPDEST DUP3 MSTORE POP POP JUMP JUMPDEST PUSH0 PUSH1 0x20 DUP3 ADD SWAP1 POP PUSH2 0x104A PUSH0 DUP4 ADD DUP5 PUSH2 0x1028 JUMP JUMPDEST SWAP3 SWAP2 POP POP JUMP JUMPDEST PUSH0 PUSH1 0x40 MLOAD SWAP1 POP SWAP1 JUMP JUMPDEST PUSH0 DUP1 REVERT JUMPDEST PUSH0 DUP1 REVERT JUMPDEST PUSH0 DUP1 REVERT JUMPDEST PUSH0 DUP1 REVERT JUMPDEST PUSH32 0x4E487B7100000000000000000000000000000000000000000000000000000000 PUSH0 MSTORE PUSH1 0x41 PUSH1 0x4 MSTORE PUSH1 0x24 PUSH0 REVERT JUMPDEST PUSH2 0x109F DUP3 PUSH2 0xFB7 JUMP JUMPDEST DUP2 ADD DUP2 DUP2 LT PUSH8 0xFFFFFFFFFFFFFFFF DUP3 GT OR ISZERO PUSH2 0x10BE JUMPI PUSH2 0x10BD PUSH2 0x1069 JUMP JUMPDEST JUMPDEST DUP1 PUSH1 0x40 MSTORE POP POP POP JUMP JUMPDEST PUSH0 PUSH2 0x10D0 PUSH2 0x1050 JUMP JUMPDEST SWAP1 POP PUSH2 0x10DC DUP3 DUP3 PUSH2 0x1096 JUMP JUMPDEST SWAP2 SWAP1 POP JUMP JUMPDEST PUSH0 PUSH8 0xFFFFFFFFFFFFFFFF DUP3 GT ISZERO PUSH2 0x10FB JUMPI PUSH2 0x10FA PUSH2 0x1069 JUMP JUMPDEST JUMPDEST PUSH2 0x1104 DUP3 PUSH2 0xFB7 JUMP JUMPDEST SWAP1 POP PUSH1 0x20 DUP2 ADD SWAP1 POP SWAP2 SWAP1 POP JUMP JUMPDEST DUP3 DUP2 DUP4 CALLDATACOPY PUSH0 DUP4 DUP4 ADD MSTORE POP POP POP JUMP JUMPDEST PUSH0 PUSH2 0x1131 PUSH2 0x112C DUP5 PUSH2 0x10E1 JUMP JUMPDEST PUSH2 0x10C7 JUMP JUMPDEST SWAP1 POP DUP3 DUP2 MSTORE PUSH1 0x20 DUP2 ADD DUP5 DUP5 DUP5 ADD GT ISZERO PUSH2 0x114D JUMPI PUSH2 0x114C PUSH2 0x1065 JUMP JUMPDEST JUMPDEST PUSH2 0x1158 DUP5 DUP3 DUP6 PUSH2 0x1111 JUMP JUMPDEST POP SWAP4 SWAP3 POP POP POP JUMP JUMPDEST PUSH0 DUP3 PUSH1 0x1F DUP4 ADD SLT PUSH2 0x1174 JUMPI PUSH2 0x1173 PUSH2 0x1061 JUMP JUMPDEST JUMPDEST DUP2 CALLDATALOAD PUSH2 0x1184 DUP5 DUP3 PUSH1 0x20 DUP7 ADD PUSH2 0x111F JUMP JUMPDEST SWAP2 POP POP SWAP3 SWAP2 POP POP JUMP JUMPDEST PUSH0 PUSH1 0x20 DUP3 DUP5 SUB SLT ISZERO PUSH2 0x11A2 JUMPI PUSH2 0x11A1 PUSH2 0x1059 JUMP JUMPDEST JUMPDEST PUSH0 DUP3 ADD CALLDATALOAD PUSH8 0xFFFFFFFFFFFFFFFF DUP2 GT ISZERO PUSH2 0x11BF JUMPI PUSH2 0x11BE PUSH2 0x105D JUMP JUMPDEST JUMPDEST PUSH2 0x11CB DUP5 DUP3 DUP6 ADD PUSH2 0x1160 JUMP JUMPDEST SWAP2 POP POP SWAP3 SWAP2 POP POP JUMP JUMPDEST PUSH0 PUSH20 0xFFFFFFFFFFFFFFFFFFFFFFFFFFFFFFFFFFFFFFFF DUP3 AND SWAP1 POP SWAP2 SWAP1 POP JUMP JUMPDEST PUSH0 PUSH2 0x11FD DUP3 PUSH2 0x11D4 JUMP JUMPDEST SWAP1 POP SWAP2 SWAP1 POP JUMP JUMPDEST PUSH2 0x120D DUP2 PUSH2 0x11F3 JUMP JUMPDEST DUP3 MSTORE POP POP JUMP JUMPDEST PUSH0 PUSH1 0x20 DUP3 ADD SWAP1 POP PUSH2 0x1226 PUSH0 DUP4 ADD DUP5 PUSH2 0x1204 JUMP JUMPDEST SWAP3 SWAP2 POP POP JUMP JUMPDEST PUSH2 0x1235 DUP2 PUSH2 0x101F JUMP JUMPDEST DUP2 EQ PUSH2 0x123F JUMPI PUSH0 DUP1 REVERT JUMPDEST POP JUMP JUMPDEST PUSH0 DUP2 CALLDATALOAD SWAP1 POP PUSH2 0x1250 DUP2 PUSH2 0x122C JUMP JUMPDEST SWAP3 SWAP2 POP POP JUMP JUMPDEST PUSH0 PUSH1 0x20 DUP3 DUP5 SUB SLT ISZERO PUSH2 0x126B JUMPI PUSH2 0x126A PUSH2 0x1059 JUMP JUMPDEST JUMPDEST PUSH0 PUSH2 0x1278 DUP5 DUP3 DUP6 ADD PUSH2 0x1242 JUMP JUMPDEST SWAP2 POP POP SWAP3 SWAP2 POP POP JUMP JUMPDEST PUSH32 0x4E487B7100000000000000000000000000000000000000000000000000000000 PUSH0 MSTORE PUSH1 0x22 PUSH1 0x4 MSTORE PUSH1 0x24 PUSH0 REVERT JUMPDEST PUSH0 PUSH1 0x2 DUP3 DIV SWAP1 POP PUSH1 0x1 DUP3 AND DUP1 PUSH2 0x12C5 JUMPI PUSH1 0x7F DUP3 AND SWAP2 POP JUMPDEST PUSH1 0x20 DUP3 LT DUP2 SUB PUSH2 0x12D8 JUMPI PUSH2 0x12D7 PUSH2 0x1281 JUMP JUMPDEST JUMPDEST POP SWAP2 SWAP1 POP JUMP JUMPDEST PUSH32 0x4F6E6C792074686520636F6E7472616374206F776E6572206D61792063616C6C PUSH0 DUP3 ADD MSTORE PUSH32 0x20746869732066756E6374696F6E000000000000000000000000000000000000 PUSH1 0x20 DUP3 ADD MSTORE POP JUMP JUMPDEST PUSH0 PUSH2 0x1338 PUSH1 0x2E DUP4 PUSH2 0xF99 JUMP JUMPDEST SWAP2 POP PUSH2 0x1343 DUP3 PUSH2 0x12DE JUMP JUMPDEST PUSH1 0x40 DUP3 ADD SWAP1 POP SWAP2 SWAP1 POP JUMP JUMPDEST PUSH0 PUSH1 0x20 DUP3 ADD SWAP1 POP DUP2 DUP2 SUB PUSH0 DUP4 ADD MSTORE PUSH2 0x1365 DUP2 PUSH2 0x132C JUMP JUMPDEST SWAP1 POP SWAP2 SWAP1 POP JUMP JUMPDEST PUSH32 0x44617461436F6E747261637420686173206265656E20666C616767656420616E PUSH0 DUP3 ADD MSTORE PUSH32 0x64206973206E6F206C6F6E6765722076616C6964000000000000000000000000 PUSH1 0x20 DUP3 ADD MSTORE POP JUMP JUMPDEST PUSH0 PUSH2 0x13C6 PUSH1 0x34 DUP4 PUSH2 0xF99 JUMP JUMPDEST SWAP2 POP PUSH2 0x13D1 DUP3 PUSH2 0x136C JUMP JUMPDEST PUSH1 0x40 DUP3 ADD SWAP1 POP SWAP2 SWAP1 POP JUMP JUMPDEST PUSH0 PUSH1 0x20 DUP3 ADD SWAP1 POP DUP2 DUP2 SUB PUSH0 DUP4 ADD MSTORE PUSH2 0x13F3 DUP2 PUSH2 0x13BA JUMP JUMPDEST SWAP1 POP SWAP2 SWAP1 POP JUMP JUMPDEST PUSH32 0x496E636F727265637420616D6F756E74206F6E206D65737361676520666F7220 PUSH0 DUP3 ADD MSTORE PUSH32 0x7075726368617365000000000000000000000000000000000000000000000000 PUSH1 0x20 DUP3 ADD MSTORE POP JUMP JUMPDEST PUSH0 PUSH2 0x1454 PUSH1 0x28 DUP4 PUSH2 0xF99 JUMP JUMPDEST SWAP2 POP PUSH2 0x145F DUP3 PUSH2 0x13FA JUMP JUMPDEST PUSH1 0x40 DUP3 ADD SWAP1 POP SWAP2 SWAP1 POP JUMP JUMPDEST PUSH0 PUSH1 0x20 DUP3 ADD SWAP1 POP DUP2 DUP2 SUB PUSH0 DUP4 ADD MSTORE PUSH2 0x1481 DUP2 PUSH2 0x1448 JUMP JUMPDEST SWAP1 POP SWAP2 SWAP1 POP JUMP JUMPDEST PUSH32 0x4E487B7100000000000000000000000000000000000000000000000000000000 PUSH0 MSTORE PUSH1 0x11 PUSH1 0x4 MSTORE PUSH1 0x24 PUSH0 REVERT JUMPDEST PUSH0 PUSH2 0x14BF DUP3 PUSH2 0x101F JUMP JUMPDEST SWAP2 POP PUSH2 0x14CA DUP4 PUSH2 0x101F JUMP JUMPDEST SWAP3 POP DUP3 DUP3 ADD SWAP1 POP DUP1 DUP3 GT ISZERO PUSH2 0x14E2 JUMPI PUSH2 0x14E1 PUSH2 0x1488 JUMP JUMPDEST JUMPDEST SWAP3 SWAP2 POP POP JUMP JUMPDEST PUSH32 0x596F75206861766520616C726561647920666C61676765642074686973207061 PUSH0 DUP3 ADD MSTORE PUSH32 0x6765000000000000000000000000000000000000000000000000000000000000 PUSH1 0x20 DUP3 ADD MSTORE POP JUMP JUMPDEST PUSH0 PUSH2 0x1542 PUSH1 0x22 DUP4 PUSH2 0xF99 JUMP JUMPDEST SWAP2 POP PUSH2 0x154D DUP3 PUSH2 0x14E8 JUMP JUMPDEST PUSH1 0x40 DUP3 ADD SWAP1 POP SWAP2 SWAP1 POP JUMP JUMPDEST PUSH0 PUSH1 0x20 DUP3 ADD SWAP1 POP DUP2 DUP2 SUB PUSH0 DUP4 ADD MSTORE PUSH2 0x156F DUP2 PUSH2 0x1536 JUMP JUMPDEST SWAP1 POP SWAP2 SWAP1 POP JUMP JUMPDEST PUSH0 DUP2 SWAP1 POP SWAP3 SWAP2 POP POP JUMP JUMPDEST PUSH0 DUP2 SWAP1 POP DUP2 PUSH0 MSTORE PUSH1 0x20 PUSH0 KECCAK256 SWAP1 POP SWAP2 SWAP1 POP JUMP JUMPDEST PUSH0 DUP2 SLOAD PUSH2 0x159E DUP2 PUSH2 0x12AE JUMP JUMPDEST PUSH2 0x15A8 DUP2 DUP7 PUSH2 0x1576 JUMP JUMPDEST SWAP5 POP PUSH1 0x1 DUP3 AND PUSH0 DUP2 EQ PUSH2 0x15C2 JUMPI PUSH1 0x1 DUP2 EQ PUSH2 0x15D7 JUMPI PUSH2 0x1609 JUMP JUMPDEST PUSH1 0xFF NOT DUP4 AND DUP7 MSTORE DUP2 ISZERO ISZERO DUP3 MUL DUP7 ADD SWAP4 POP PUSH2 0x1609 JUMP JUMPDEST PUSH2 0x15E0 DUP6 PUSH2 0x1580 JUMP JUMPDEST PUSH0 JUMPDEST DUP4 DUP2 LT ISZERO PUSH2 0x1601 JUMPI DUP2 SLOAD DUP2 DUP10 ADD MSTORE PUSH1 0x1 DUP3 ADD SWAP2 POP PUSH1 0x20 DUP2 ADD SWAP1 POP PUSH2 0x15E2 JUMP JUMPDEST DUP4 DUP9 ADD SWAP6 POP POP POP JUMPDEST POP POP POP SWAP3 SWAP2 POP POP JUMP JUMPDEST PUSH32 0x7C00000000000000000000000000000000000000000000000000000000000000 DUP2 MSTORE POP JUMP JUMPDEST PUSH0 PUSH2 0x1642 DUP3 PUSH2 0xF8F JUMP JUMPDEST PUSH2 0x164C DUP2 DUP6 PUSH2 0x1576 JUMP JUMPDEST SWAP4 POP PUSH2 0x165C DUP2 DUP6 PUSH1 0x20 DUP7 ADD PUSH2 0xFA9 JUMP JUMPDEST DUP1 DUP5 ADD SWAP2 POP POP SWAP3 SWAP2 POP POP JUMP JUMPDEST PUSH0 PUSH2 0x1673 DUP3 DUP12 PUSH2 0x1592 JUMP JUMPDEST SWAP2 POP PUSH2 0x167E DUP3 PUSH2 0x1612 JUMP JUMPDEST PUSH1 0x1 DUP3 ADD SWAP2 POP PUSH2 0x168E DUP3 DUP11 PUSH2 0x1592 JUMP JUMPDEST SWAP2 POP PUSH2 0x1699 DUP3 PUSH2 0x1612 JUMP JUMPDEST PUSH1 0x1 DUP3 ADD SWAP2 POP PUSH2 0x16A9 DUP3 DUP10 PUSH2 0x1638 JUMP JUMPDEST SWAP2 POP PUSH2 0x16B4 DUP3 PUSH2 0x1612 JUMP JUMPDEST PUSH1 0x1 DUP3 ADD SWAP2 POP PUSH2 0x16C4 DUP3 DUP9 PUSH2 0x1638 JUMP JUMPDEST SWAP2 POP PUSH2 0x16CF DUP3 PUSH2 0x1612 JUMP JUMPDEST PUSH1 0x1 DUP3 ADD SWAP2 POP PUSH2 0x16DF DUP3 DUP8 PUSH2 0x1592 JUMP JUMPDEST SWAP2 POP PUSH2 0x16EA DUP3 PUSH2 0x1612 JUMP JUMPDEST PUSH1 0x1 DUP3 ADD SWAP2 POP PUSH2 0x16FA DUP3 DUP7 PUSH2 0x1592 JUMP JUMPDEST SWAP2 POP PUSH2 0x1705 DUP3 PUSH2 0x1612 JUMP JUMPDEST PUSH1 0x1 DUP3 ADD SWAP2 POP PUSH2 0x1715 DUP3 DUP6 PUSH2 0x1592 JUMP JUMPDEST SWAP2 POP PUSH2 0x1720 DUP3 PUSH2 0x1612 JUMP JUMPDEST PUSH1 0x1 DUP3 ADD SWAP2 POP PUSH2 0x1730 DUP3 DUP5 PUSH2 0x1638 JUMP JUMPDEST SWAP2 POP DUP2 SWAP1 POP SWAP10 SWAP9 POP POP POP POP POP POP POP POP POP JUMP JUMPDEST PUSH32 0x4E487B7100000000000000000000000000000000000000000000000000000000 PUSH0 MSTORE PUSH1 0x12 PUSH1 0x4 MSTORE PUSH1 0x24 PUSH0 REVERT INVALID LOG2 PUSH5 0x6970667358 0x22 SLT KECCAK256 PUSH17 0xC3FD1FECFB89032428B46A571A1D70FE55 0x2C PUSH15 0xD579F0D20DCD231B928E301A64736F PUSH13 0x634300081A0033000000000000 "
				},
				"gasEstimates": {
					"creation": {
						"codeDepositCost": "1210600",
						"executionCost": "infinite",
						"totalCost": "infinite"
					},
					"external": {
						"MAX_FLAGS()": "2515",
						"MIN_PURCHASES()": "2535",
						"active()": "2541",
						"createdAt()": "infinite",
						"description()": "infinite",
						"flagDataset(string)": "infinite",
						"getDescription()": "infinite",
						"getMetadataString()": "infinite",
						"keywords()": "infinite",
						"name()": "infinite",
						"owner()": "2553",
						"priceWei()": "2447",
						"purchaseData()": "infinite",
						"purchases()": "2513",
						"setPrice(uint256)": "24751",
						"size()": "infinite",
						"toggleActive()": "28841"
					}
				},
				"methodIdentifiers": {
					"MAX_FLAGS()": "20c4fd31",
					"MIN_PURCHASES()": "fd48e8e3",
					"active()": "02fb0c5e",
					"createdAt()": "cf09e0d0",
					"description()": "7284e416",
					"flagDataset(string)": "83784b0b",
					"getDescription()": "1a092541",
					"getMetadataString()": "ca5dbfef",
					"keywords()": "729acff4",
					"name()": "06fdde03",
					"owner()": "8da5cb5b",
					"priceWei()": "b7ec2086",
					"purchaseData()": "551caa7c",
					"purchases()": "ee3def0e",
					"setPrice(uint256)": "91b7f5ed",
					"size()": "949d225d",
					"toggleActive()": "29c68dc1"
				}
			},
			"storageLayout": {
				"storage": [
					{
						"astId": 1418,
						"contract": "contracts/DataContract.sol:DataContract",
						"label": "name",
						"offset": 0,
						"slot": "0",
						"type": "t_string_storage"
					},
					{
						"astId": 1420,
						"contract": "contracts/DataContract.sol:DataContract",
						"label": "description",
						"offset": 0,
						"slot": "1",
						"type": "t_string_storage"
					},
					{
						"astId": 1422,
						"contract": "contracts/DataContract.sol:DataContract",
						"label": "createdAt",
						"offset": 0,
						"slot": "2",
						"type": "t_string_storage"
					},
					{
						"astId": 1424,
						"contract": "contracts/DataContract.sol:DataContract",
						"label": "priceWei",
						"offset": 0,
						"slot": "3",
						"type": "t_uint256"
					},
					{
						"astId": 1426,
						"contract": "contracts/DataContract.sol:DataContract",
						"label": "purchases",
						"offset": 0,
						"slot": "4",
						"type": "t_uint256"
					},
					{
						"astId": 1428,
						"contract": "contracts/DataContract.sol:DataContract",
						"label": "keywords",
						"offset": 0,
						"slot": "5",
						"type": "t_string_storage"
					},
					{
						"astId": 1430,
						"contract": "contracts/DataContract.sol:DataContract",
						"label": "size",
						"offset": 0,
						"slot": "6",
						"type": "t_string_storage"
					},
					{
						"astId": 1432,
						"contract": "contracts/DataContract.sol:DataContract",
						"label": "owner",
						"offset": 0,
						"slot": "7",
						"type": "t_address"
					},
					{
						"astId": 1434,
						"contract": "contracts/DataContract.sol:DataContract",
						"label": "active",
						"offset": 20,
						"slot": "7",
						"type": "t_bool"
					},
					{
						"astId": 1436,
						"contract": "contracts/DataContract.sol:DataContract",
						"label": "dataUrl",
						"offset": 0,
						"slot": "8",
						"type": "t_string_storage"
					},
					{
						"astId": 1439,
						"contract": "contracts/DataContract.sol:DataContract",
						"label": "MIN_PURCHASES",
						"offset": 0,
						"slot": "9",
						"type": "t_uint256"
					},
					{
						"astId": 1442,
						"contract": "contracts/DataContract.sol:DataContract",
						"label": "MAX_FLAGS",
						"offset": 0,
						"slot": "10",
						"type": "t_uint256"
					},
					{
						"astId": 1444,
						"contract": "contracts/DataContract.sol:DataContract",
						"label": "flags",
						"offset": 0,
						"slot": "11",
						"type": "t_uint256"
					},
					{
						"astId": 1448,
						"contract": "contracts/DataContract.sol:DataContract",
						"label": "flaggedMap",
						"offset": 0,
						"slot": "12",
						"type": "t_mapping(t_address,t_bool)"
					}
				],
				"types": {
					"t_address": {
						"encoding": "inplace",
						"label": "address",
						"numberOfBytes": "20"
					},
					"t_bool": {
						"encoding": "inplace",
						"label": "bool",
						"numberOfBytes": "1"
					},
					"t_mapping(t_address,t_bool)": {
						"encoding": "mapping",
						"key": "t_address",
						"label": "mapping(address => bool)",
						"numberOfBytes": "32",
						"value": "t_bool"
					},
					"t_string_storage": {
						"encoding": "bytes",
						"label": "string",
						"numberOfBytes": "32"
					},
					"t_uint256": {
						"encoding": "inplace",
						"label": "uint256",
						"numberOfBytes": "32"
					}
				}
			},
			"userdoc": {
				"kind": "user",
				"methods": {},
				"version": 1
			}
		}
	}
}