{
  "_format": "hh-sol-artifact-1",
  "contractName": "DataContract",
  "sourceName": "contracts/DataContract.sol",
  "abi": [
    {
      "inputs": [
        {
          "internalType": "string",
          "name": "_name",
          "type": "string"
        },
        {
          "internalType": "string",
          "name": "_description",
          "type": "string"
        },
        {
          "internalType": "string",
          "name": "_dataUrl",
          "type": "string"
        },
        {
          "internalType": "uint256",
          "name": "_priceWei",
          "type": "uint256"
        },
        {
          "internalType": "string",
          "name": "_keywords",
          "type": "string"
        },
        {
          "internalType": "string",
          "name": "_size",
          "type": "string"
        }
      ],
      "stateMutability": "nonpayable",
      "type": "constructor"
    },
    {
      "anonymous": false,
      "inputs": [
        {
          "indexed": true,
          "internalType": "address",
          "name": "reporterAddress",
          "type": "address"
        },
        {
          "indexed": false,
          "internalType": "string",
          "name": "reason",
          "type": "string"
        }
      ],
      "name": "PageFlagged",
      "type": "event"
    },
    {
      "anonymous": false,
      "inputs": [
        {
          "indexed": true,
          "internalType": "address",
          "name": "purchaseAddress",
          "type": "address"
        }
      ],
      "name": "PurchaseCompleted",
      "type": "event"
    },
    {
      "inputs": [],
      "name": "MAX_FLAGS",
      "outputs": [
        {
          "internalType": "uint256",
          "name": "",
          "type": "uint256"
        }
      ],
      "stateMutability": "view",
      "type": "function"
    },
    {
      "inputs": [],
      "name": "MIN_PURCHASES",
      "outputs": [
        {
          "internalType": "uint256",
          "name": "",
          "type": "uint256"
        }
      ],
      "stateMutability": "view",
      "type": "function"
    },
    {
      "inputs": [],
      "name": "active",
      "outputs": [
        {
          "internalType": "bool",
          "name": "",
          "type": "bool"
        }
      ],
      "stateMutability": "view",
      "type": "function"
    },
    {
      "inputs": [],
      "name": "description",
      "outputs": [
        {
          "internalType": "string",
          "name": "",
          "type": "string"
        }
      ],
      "stateMutability": "view",
      "type": "function"
    },
    {
      "inputs": [
        {
          "internalType": "string",
          "name": "reason",
          "type": "string"
        }
      ],
      "name": "flagDataset",
      "outputs": [
        {
          "internalType": "uint256",
          "name": "",
          "type": "uint256"
        }
      ],
      "stateMutability": "nonpayable",
      "type": "function"
    },
    {
      "inputs": [],
      "name": "getDescription",
      "outputs": [
        {
          "internalType": "string",
          "name": "",
          "type": "string"
        }
      ],
      "stateMutability": "view",
      "type": "function"
    },
    {
      "inputs": [],
      "name": "getMetadataString",
      "outputs": [
        {
          "internalType": "string",
          "name": "",
          "type": "string"
        }
      ],
      "stateMutability": "view",
      "type": "function"
    },
    {
      "inputs": [],
      "name": "keywords",
      "outputs": [
        {
          "internalType": "string",
          "name": "",
          "type": "string"
        }
      ],
      "stateMutability": "view",
      "type": "function"
    },
    {
      "inputs": [],
      "name": "name",
      "outputs": [
        {
          "internalType": "string",
          "name": "",
          "type": "string"
        }
      ],
      "stateMutability": "view",
      "type": "function"
    },
    {
      "inputs": [],
      "name": "owner",
      "outputs": [
        {
          "internalType": "address",
          "name": "",
          "type": "address"
        }
      ],
      "stateMutability": "view",
      "type": "function"
    },
    {
      "inputs": [],
      "name": "priceWei",
      "outputs": [
        {
          "internalType": "uint256",
          "name": "",
          "type": "uint256"
        }
      ],
      "stateMutability": "view",
      "type": "function"
    },
    {
      "inputs": [],
      "name": "purchaseData",
      "outputs": [
        {
          "internalType": "string",
          "name": "",
          "type": "string"
        }
      ],
      "stateMutability": "payable",
      "type": "function"
    },
    {
      "inputs": [],
      "name": "purchases",
      "outputs": [
        {
          "internalType": "uint256",
          "name": "",
          "type": "uint256"
        }
      ],
      "stateMutability": "view",
      "type": "function"
    },
    {
      "inputs": [
        {
          "internalType": "uint256",
          "name": "_priceWei",
          "type": "uint256"
        }
      ],
      "name": "setPrice",
      "outputs": [],
      "stateMutability": "nonpayable",
      "type": "function"
    },
    {
      "inputs": [],
      "name": "size",
      "outputs": [
        {
          "internalType": "string",
          "name": "",
          "type": "string"
        }
      ],
      "stateMutability": "view",
      "type": "function"
    },
    {
      "inputs": [],
      "name": "toggleActive",
      "outputs": [],
      "stateMutability": "nonpayable",
      "type": "function"
    }
  ],
  "bytecode": "0x6080604052600360085560036009553480156200001b57600080fd5b5060405162001eac38038062001eac8339818101604052810190620000419190620002e0565b33600660006101000a81548173ffffffffffffffffffffffffffffffffffffffff021916908373ffffffffffffffffffffffffffffffffffffffff160217905550856000908162000093919062000658565b508460019081620000a5919062000658565b508360079081620000b7919062000658565b50826002819055508160049081620000d0919062000658565b508060059081620000e2919062000658565b5060006003819055506001600660146101000a81548160ff0219169083151502179055505050505050506200073f565b6000604051905090565b600080fd5b600080fd5b600080fd5b600080fd5b6000601f19601f8301169050919050565b7f4e487b7100000000000000000000000000000000000000000000000000000000600052604160045260246000fd5b6200017b8262000130565b810181811067ffffffffffffffff821117156200019d576200019c62000141565b5b80604052505050565b6000620001b262000112565b9050620001c0828262000170565b919050565b600067ffffffffffffffff821115620001e357620001e262000141565b5b620001ee8262000130565b9050602081019050919050565b60005b838110156200021b578082015181840152602081019050620001fe565b60008484015250505050565b60006200023e6200023884620001c5565b620001a6565b9050828152602081018484840111156200025d576200025c6200012b565b5b6200026a848285620001fb565b509392505050565b600082601f8301126200028a576200028962000126565b5b81516200029c84826020860162000227565b91505092915050565b6000819050919050565b620002ba81620002a5565b8114620002c657600080fd5b50565b600081519050620002da81620002af565b92915050565b60008060008060008060c087890312156200030057620002ff6200011c565b5b600087015167ffffffffffffffff81111562000321576200032062000121565b5b6200032f89828a0162000272565b965050602087015167ffffffffffffffff81111562000353576200035262000121565b5b6200036189828a0162000272565b955050604087015167ffffffffffffffff81111562000385576200038462000121565b5b6200039389828a0162000272565b9450506060620003a689828a01620002c9565b935050608087015167ffffffffffffffff811115620003ca57620003c962000121565b5b620003d889828a0162000272565b92505060a087015167ffffffffffffffff811115620003fc57620003fb62000121565b5b6200040a89828a0162000272565b9150509295509295509295565b600081519050919050565b7f4e487b7100000000000000000000000000000000000000000000000000000000600052602260045260246000fd5b600060028204905060018216806200046a57607f821691505b60208210810362000480576200047f62000422565b5b50919050565b60008190508160005260206000209050919050565b60006020601f8301049050919050565b600082821b905092915050565b600060088302620004ea7fffffffffffffffffffffffffffffffffffffffffffffffffffffffffffffffff82620004ab565b620004f68683620004ab565b95508019841693508086168417925050509392505050565b6000819050919050565b600062000539620005336200052d84620002a5565b6200050e565b620002a5565b9050919050565b6000819050919050565b620005558362000518565b6200056d620005648262000540565b848454620004b8565b825550505050565b600090565b6200058462000575565b620005918184846200054a565b505050565b5b81811015620005b957620005ad6000826200057a565b60018101905062000597565b5050565b601f8211156200060857620005d28162000486565b620005dd846200049b565b81016020851015620005ed578190505b62000605620005fc856200049b565b83018262000596565b50505b505050565b600082821c905092915050565b60006200062d600019846008026200060d565b1980831691505092915050565b60006200064883836200061a565b9150826002028217905092915050565b620006638262000417565b67ffffffffffffffff8111156200067f576200067e62000141565b5b6200068b825462000451565b62000698828285620005bd565b600060209050601f831160018114620006d05760008415620006bb578287015190505b620006c785826200063a565b86555062000737565b601f198416620006e08662000486565b60005b828110156200070a57848901518255600182019150602085019450602081019050620006e3565b868310156200072a578489015162000726601f8916826200061a565b8355505b6001600288020188555050505b505050505050565b61175d806200074f6000396000f3fe6080604052600436106100f35760003560e01c806383784b0b1161008a578063b7ec208611610059578063b7ec2086146102eb578063ca5dbfef14610316578063ee3def0e14610341578063fd48e8e31461036c576100f3565b806383784b0b1461022f5780638da5cb5b1461026c57806391b7f5ed14610297578063949d225d146102c0576100f3565b806329c68dc1116100c657806329c68dc1146101a4578063551caa7c146101bb5780637284e416146101d9578063729acff414610204576100f3565b806302fb0c5e146100f857806306fdde03146101235780631a0925411461014e57806320c4fd3114610179575b600080fd5b34801561010457600080fd5b5061010d610397565b60405161011a9190610eec565b60405180910390f35b34801561012f57600080fd5b506101386103aa565b6040516101459190610f97565b60405180910390f35b34801561015a57600080fd5b50610163610438565b6040516101709190610f97565b60405180910390f35b34801561018557600080fd5b5061018e6104ca565b60405161019b9190610fd2565b60405180910390f35b3480156101b057600080fd5b506101b96104d0565b005b6101c361058c565b6040516101d09190610f97565b60405180910390f35b3480156101e557600080fd5b506101ee6107f6565b6040516101fb9190610f97565b60405180910390f35b34801561021057600080fd5b50610219610884565b6040516102269190610f97565b60405180910390f35b34801561023b57600080fd5b5061025660048036038101906102519190611136565b610912565b6040516102639190610fd2565b60405180910390f35b34801561027857600080fd5b50610281610a70565b60405161028e91906111c0565b60405180910390f35b3480156102a357600080fd5b506102be60048036038101906102b99190611207565b610a96565b005b3480156102cc57600080fd5b506102d5610b30565b6040516102e29190610f97565b60405180910390f35b3480156102f757600080fd5b50610300610bbe565b60405161030d9190610fd2565b60405180910390f35b34801561032257600080fd5b5061032b610bc4565b6040516103389190610f97565b60405180910390f35b34801561034d57600080fd5b50610356610ca4565b6040516103639190610fd2565b60405180910390f35b34801561037857600080fd5b50610381610caa565b60405161038e9190610fd2565b60405180910390f35b600660149054906101000a900460ff1681565b600080546103b790611263565b80601f01602080910402602001604051908101604052809291908181526020018280546103e390611263565b80156104305780601f1061040557610100808354040283529160200191610430565b820191906000526020600020905b81548152906001019060200180831161041357829003601f168201915b505050505081565b60606001805461044790611263565b80601f016020809104026020016040519081016040528092919081815260200182805461047390611263565b80156104c05780601f10610495576101008083540402835291602001916104c0565b820191906000526020600020905b8154815290600101906020018083116104a357829003601f168201915b5050505050905090565b60095481565b600660009054906101000a900473ffffffffffffffffffffffffffffffffffffffff1673ffffffffffffffffffffffffffffffffffffffff163373ffffffffffffffffffffffffffffffffffffffff1614610560576040517f08c379a000000000000000000000000000000000000000000000000000000000815260040161055790611306565b60405180910390fd5b600660149054906101000a900460ff1615600660146101000a81548160ff021916908315150217905550565b6060600954600a5411156105d5576040517f08c379a00000000000000000000000000000000000000000000000000000000081526004016105cc90611398565b60405180910390fd5b6002543414610619576040517f08c379a00000000000000000000000000000000000000000000000000000000081526004016106109061142a565b60405180910390fd5b6008546003540361069257600660009054906101000a900473ffffffffffffffffffffffffffffffffffffffff1673ffffffffffffffffffffffffffffffffffffffff166108fc479081150290604051600060405180830381858888f1935050505015801561068c573d6000803e3d6000fd5b50610709565b600854600354111561070857600660009054906101000a900473ffffffffffffffffffffffffffffffffffffffff1673ffffffffffffffffffffffffffffffffffffffff166108fc349081150290604051600060405180830381858888f19350505050158015610706573d6000803e3d6000fd5b505b5b60016003600082825461071c9190611479565b925050819055503373ffffffffffffffffffffffffffffffffffffffff167f4a017353a6a671c5595f31469f50dc962e14c1a712ba8971a058ac0460731bd160405160405180910390a26007805461077390611263565b80601f016020809104026020016040519081016040528092919081815260200182805461079f90611263565b80156107ec5780601f106107c1576101008083540402835291602001916107ec565b820191906000526020600020905b8154815290600101906020018083116107cf57829003601f168201915b5050505050905090565b6001805461080390611263565b80601f016020809104026020016040519081016040528092919081815260200182805461082f90611263565b801561087c5780601f106108515761010080835404028352916020019161087c565b820191906000526020600020905b81548152906001019060200180831161085f57829003601f168201915b505050505081565b6004805461089190611263565b80601f01602080910402602001604051908101604052809291908181526020018280546108bd90611263565b801561090a5780601f106108df5761010080835404028352916020019161090a565b820191906000526020600020905b8154815290600101906020018083116108ed57829003601f168201915b505050505081565b600080600b60003373ffffffffffffffffffffffffffffffffffffffff1673ffffffffffffffffffffffffffffffffffffffff16815260200190815260200160002060009054906101000a900460ff16905080156109a5576040517f08c379a000000000000000000000000000000000000000000000000000000000815260040161099c9061151f565b60405180910390fd5b6001600b60003373ffffffffffffffffffffffffffffffffffffffff1673ffffffffffffffffffffffffffffffffffffffff16815260200190815260200160002060006101000a81548160ff0219169083151502179055506001600a6000828254610a109190611479565b925050819055503373ffffffffffffffffffffffffffffffffffffffff167fab041670eb9e6e047417d6b20c2560283f97944f712ed0fad739be1a8574b5cd84604051610a5d9190610f97565b60405180910390a2600a54915050919050565b600660009054906101000a900473ffffffffffffffffffffffffffffffffffffffff1681565b600660009054906101000a900473ffffffffffffffffffffffffffffffffffffffff1673ffffffffffffffffffffffffffffffffffffffff163373ffffffffffffffffffffffffffffffffffffffff1614610b26576040517f08c379a0000000000000000000000000000000000000000000000000000000008152600401610b1d90611306565b60405180910390fd5b8060028190555050565b60058054610b3d90611263565b80601f0160208091040260200160405190810160405280929190818152602001828054610b6990611263565b8015610bb65780601f10610b8b57610100808354040283529160200191610bb6565b820191906000526020600020905b815481529060010190602001808311610b9957829003601f168201915b505050505081565b60025481565b606060006001610bd5600254610cb0565b610be0600354610cb0565b60046005600660149054906101000a900460ff168015610c045750600954600a5411155b610c43576040518060400160405280600881526020017f696e616374697665000000000000000000000000000000000000000000000000815250610c7a565b6040518060400160405280600681526020017f61637469766500000000000000000000000000000000000000000000000000008152505b604051602001610c909796959493929190611639565b604051602081830303815290604052905090565b60035481565b60085481565b606060006001610cbf84610d7e565b01905060008167ffffffffffffffff811115610cde57610cdd61100b565b5b6040519080825280601f01601f191660200182016040528015610d105781602001600182028036833780820191505090505b509050600082602001820190505b600115610d73578080600190039150507f3031323334353637383961626364656600000000000000000000000000000000600a86061a8153600a8581610d6757610d666116f8565b5b04945060008503610d1e575b819350505050919050565b600080600090507a184f03e93ff9f4daa797ed6e38ed64bf6a1f0100000000000000008310610ddc577a184f03e93ff9f4daa797ed6e38ed64bf6a1f0100000000000000008381610dd257610dd16116f8565b5b0492506040810190505b6d04ee2d6d415b85acef81000000008310610e19576d04ee2d6d415b85acef81000000008381610e0f57610e0e6116f8565b5b0492506020810190505b662386f26fc100008310610e4857662386f26fc100008381610e3e57610e3d6116f8565b5b0492506010810190505b6305f5e1008310610e71576305f5e1008381610e6757610e666116f8565b5b0492506008810190505b6127108310610e96576127108381610e8c57610e8b6116f8565b5b0492506004810190505b60648310610eb95760648381610eaf57610eae6116f8565b5b0492506002810190505b600a8310610ec8576001810190505b80915050919050565b60008115159050919050565b610ee681610ed1565b82525050565b6000602082019050610f016000830184610edd565b92915050565b600081519050919050565b600082825260208201905092915050565b60005b83811015610f41578082015181840152602081019050610f26565b60008484015250505050565b6000601f19601f8301169050919050565b6000610f6982610f07565b610f738185610f12565b9350610f83818560208601610f23565b610f8c81610f4d565b840191505092915050565b60006020820190508181036000830152610fb18184610f5e565b905092915050565b6000819050919050565b610fcc81610fb9565b82525050565b6000602082019050610fe76000830184610fc3565b92915050565b6000604051905090565b600080fd5b600080fd5b600080fd5b600080fd5b7f4e487b7100000000000000000000000000000000000000000000000000000000600052604160045260246000fd5b61104382610f4d565b810181811067ffffffffffffffff821117156110625761106161100b565b5b80604052505050565b6000611075610fed565b9050611081828261103a565b919050565b600067ffffffffffffffff8211156110a1576110a061100b565b5b6110aa82610f4d565b9050602081019050919050565b82818337600083830152505050565b60006110d96110d484611086565b61106b565b9050828152602081018484840111156110f5576110f4611006565b5b6111008482856110b7565b509392505050565b600082601f83011261111d5761111c611001565b5b813561112d8482602086016110c6565b91505092915050565b60006020828403121561114c5761114b610ff7565b5b600082013567ffffffffffffffff81111561116a57611169610ffc565b5b61117684828501611108565b91505092915050565b600073ffffffffffffffffffffffffffffffffffffffff82169050919050565b60006111aa8261117f565b9050919050565b6111ba8161119f565b82525050565b60006020820190506111d560008301846111b1565b92915050565b6111e481610fb9565b81146111ef57600080fd5b50565b600081359050611201816111db565b92915050565b60006020828403121561121d5761121c610ff7565b5b600061122b848285016111f2565b91505092915050565b7f4e487b7100000000000000000000000000000000000000000000000000000000600052602260045260246000fd5b6000600282049050600182168061127b57607f821691505b60208210810361128e5761128d611234565b5b50919050565b7f4f6e6c792074686520636f6e7472616374206f776e6572206d61792063616c6c60008201527f20746869732066756e6374696f6e000000000000000000000000000000000000602082015250565b60006112f0602e83610f12565b91506112fb82611294565b604082019050919050565b6000602082019050818103600083015261131f816112e3565b9050919050565b7f44617461436f6e747261637420686173206265656e20666c616767656420616e60008201527f64206973206e6f206c6f6e6765722076616c6964000000000000000000000000602082015250565b6000611382603483610f12565b915061138d82611326565b604082019050919050565b600060208201905081810360008301526113b181611375565b9050919050565b7f496e636f727265637420616d6f756e74206f6e206d65737361676520666f722060008201527f7075726368617365000000000000000000000000000000000000000000000000602082015250565b6000611414602883610f12565b915061141f826113b8565b604082019050919050565b6000602082019050818103600083015261144381611407565b9050919050565b7f4e487b7100000000000000000000000000000000000000000000000000000000600052601160045260246000fd5b600061148482610fb9565b915061148f83610fb9565b92508282019050808211156114a7576114a661144a565b5b92915050565b7f596f75206861766520616c726561647920666c6167676564207468697320706160008201527f6765000000000000000000000000000000000000000000000000000000000000602082015250565b6000611509602283610f12565b9150611514826114ad565b604082019050919050565b60006020820190508181036000830152611538816114fc565b9050919050565b600081905092915050565b60008190508160005260206000209050919050565b6000815461156c81611263565b611576818661153f565b9450600182166000811461159157600181146115a6576115d9565b60ff19831686528115158202860193506115d9565b6115af8561154a565b60005b838110156115d1578154818901526001820191506020810190506115b2565b838801955050505b50505092915050565b7f7c00000000000000000000000000000000000000000000000000000000000000815250565b600061161382610f07565b61161d818561153f565b935061162d818560208601610f23565b80840191505092915050565b6000611645828a61155f565b9150611650826115e2565b600182019150611660828961155f565b915061166b826115e2565b60018201915061167b8288611608565b9150611686826115e2565b6001820191506116968287611608565b91506116a1826115e2565b6001820191506116b1828661155f565b91506116bc826115e2565b6001820191506116cc828561155f565b91506116d7826115e2565b6001820191506116e78284611608565b915081905098975050505050505050565b7f4e487b7100000000000000000000000000000000000000000000000000000000600052601260045260246000fdfea2646970667358221220939ec518688364b908726cb478e6fdcd1120ffd0130b7976eae77626b7118dbc64736f6c63430008180033",
  "linkReferences": {},
  "deployedLinkReferences": {}
}