{
  "_format": "hh-sol-artifact-1",
  "contractName": "DataContract",
  "sourceName": "contracts/DataContract.sol",
  "abi": [
    {
      "inputs": [
        {
          "internalType": "string",
          "name": "_name",
          "type": "string"
        },
        {
          "internalType": "string",
          "name": "_description",
          "type": "string"
        },
        {
          "internalType": "string",
          "name": "_dataUrl",
          "type": "string"
        },
        {
          "internalType": "uint256",
          "name": "_priceWei",
          "type": "uint256"
        },
        {
          "internalType": "string",
          "name": "_keywords",
          "type": "string"
        },
        {
          "internalType": "string",
          "name": "_size",
          "type": "string"
        }
      ],
      "stateMutability": "nonpayable",
      "type": "constructor"
    },
    {
      "anonymous": false,
      "inputs": [
        {
          "indexed": true,
          "internalType": "address",
          "name": "reporterAddress",
          "type": "address"
        },
        {
          "indexed": false,
          "internalType": "string",
          "name": "reason",
          "type": "string"
        }
      ],
      "name": "PageFlagged",
      "type": "event"
    },
    {
      "anonymous": false,
      "inputs": [
        {
          "indexed": true,
          "internalType": "address",
          "name": "purchaseAddress",
          "type": "address"
        }
      ],
      "name": "PurchaseCompleted",
      "type": "event"
    },
    {
      "inputs": [],
      "name": "MAX_FLAGS",
      "outputs": [
        {
          "internalType": "uint256",
          "name": "",
          "type": "uint256"
        }
      ],
      "stateMutability": "view",
      "type": "function"
    },
    {
      "inputs": [],
      "name": "MIN_PURCHASES",
      "outputs": [
        {
          "internalType": "uint256",
          "name": "",
          "type": "uint256"
        }
      ],
      "stateMutability": "view",
      "type": "function"
    },
    {
      "inputs": [],
      "name": "active",
      "outputs": [
        {
          "internalType": "bool",
          "name": "",
          "type": "bool"
        }
      ],
      "stateMutability": "view",
      "type": "function"
    },
    {
      "inputs": [],
      "name": "createdAt",
      "outputs": [
        {
          "internalType": "string",
          "name": "",
          "type": "string"
        }
      ],
      "stateMutability": "view",
      "type": "function"
    },
    {
      "inputs": [],
      "name": "dataUrl",
      "outputs": [
        {
          "internalType": "string",
          "name": "",
          "type": "string"
        }
      ],
      "stateMutability": "view",
      "type": "function"
    },
    {
      "inputs": [],
      "name": "description",
      "outputs": [
        {
          "internalType": "string",
          "name": "",
          "type": "string"
        }
      ],
      "stateMutability": "view",
      "type": "function"
    },
    {
      "inputs": [
        {
          "internalType": "string",
          "name": "reason",
          "type": "string"
        }
      ],
      "name": "flagDataset",
      "outputs": [
        {
          "internalType": "uint256",
          "name": "",
          "type": "uint256"
        }
      ],
      "stateMutability": "nonpayable",
      "type": "function"
    },
    {
      "inputs": [],
      "name": "getDescription",
      "outputs": [
        {
          "internalType": "string",
          "name": "",
          "type": "string"
        }
      ],
      "stateMutability": "view",
      "type": "function"
    },
    {
      "inputs": [],
      "name": "getMetadataString",
      "outputs": [
        {
          "internalType": "string",
          "name": "",
          "type": "string"
        }
      ],
      "stateMutability": "view",
      "type": "function"
    },
    {
      "inputs": [],
      "name": "keywords",
      "outputs": [
        {
          "internalType": "string",
          "name": "",
          "type": "string"
        }
      ],
      "stateMutability": "view",
      "type": "function"
    },
    {
      "inputs": [],
      "name": "name",
      "outputs": [
        {
          "internalType": "string",
          "name": "",
          "type": "string"
        }
      ],
      "stateMutability": "view",
      "type": "function"
    },
    {
      "inputs": [],
      "name": "owner",
      "outputs": [
        {
          "internalType": "address",
          "name": "",
          "type": "address"
        }
      ],
      "stateMutability": "view",
      "type": "function"
    },
    {
      "inputs": [],
      "name": "priceWei",
      "outputs": [
        {
          "internalType": "uint256",
          "name": "",
          "type": "uint256"
        }
      ],
      "stateMutability": "view",
      "type": "function"
    },
    {
      "inputs": [],
      "name": "purchaseData",
      "outputs": [
        {
          "internalType": "string",
          "name": "",
          "type": "string"
        }
      ],
      "stateMutability": "payable",
      "type": "function"
    },
    {
      "inputs": [],
      "name": "purchases",
      "outputs": [
        {
          "internalType": "uint256",
          "name": "",
          "type": "uint256"
        }
      ],
      "stateMutability": "view",
      "type": "function"
    },
    {
      "inputs": [
        {
          "internalType": "uint256",
          "name": "_priceWei",
          "type": "uint256"
        }
      ],
      "name": "setPrice",
      "outputs": [],
      "stateMutability": "nonpayable",
      "type": "function"
    },
    {
      "inputs": [],
      "name": "size",
      "outputs": [
        {
          "internalType": "string",
          "name": "",
          "type": "string"
        }
      ],
      "stateMutability": "view",
      "type": "function"
    },
    {
      "inputs": [],
      "name": "toggleActive",
      "outputs": [],
      "stateMutability": "nonpayable",
      "type": "function"
    }
  ],
  "bytecode": "0x608060405260036009556003600a553480156200001b57600080fd5b5060405162002053380380620020538339818101604052810190620000419190620002e0565b33600760006101000a81548173ffffffffffffffffffffffffffffffffffffffff021916908373ffffffffffffffffffffffffffffffffffffffff160217905550856000908162000093919062000658565b508460019081620000a5919062000658565b508360089081620000b7919062000658565b50826003819055508160059081620000d0919062000658565b508060069081620000e2919062000658565b5060006004819055506001600760146101000a81548160ff0219169083151502179055505050505050506200073f565b6000604051905090565b600080fd5b600080fd5b600080fd5b600080fd5b6000601f19601f8301169050919050565b7f4e487b7100000000000000000000000000000000000000000000000000000000600052604160045260246000fd5b6200017b8262000130565b810181811067ffffffffffffffff821117156200019d576200019c62000141565b5b80604052505050565b6000620001b262000112565b9050620001c0828262000170565b919050565b600067ffffffffffffffff821115620001e357620001e262000141565b5b620001ee8262000130565b9050602081019050919050565b60005b838110156200021b578082015181840152602081019050620001fe565b60008484015250505050565b60006200023e6200023884620001c5565b620001a6565b9050828152602081018484840111156200025d576200025c6200012b565b5b6200026a848285620001fb565b509392505050565b600082601f8301126200028a576200028962000126565b5b81516200029c84826020860162000227565b91505092915050565b6000819050919050565b620002ba81620002a5565b8114620002c657600080fd5b50565b600081519050620002da81620002af565b92915050565b60008060008060008060c087890312156200030057620002ff6200011c565b5b600087015167ffffffffffffffff81111562000321576200032062000121565b5b6200032f89828a0162000272565b965050602087015167ffffffffffffffff81111562000353576200035262000121565b5b6200036189828a0162000272565b955050604087015167ffffffffffffffff81111562000385576200038462000121565b5b6200039389828a0162000272565b9450506060620003a689828a01620002c9565b935050608087015167ffffffffffffffff811115620003ca57620003c962000121565b5b620003d889828a0162000272565b92505060a087015167ffffffffffffffff811115620003fc57620003fb62000121565b5b6200040a89828a0162000272565b9150509295509295509295565b600081519050919050565b7f4e487b7100000000000000000000000000000000000000000000000000000000600052602260045260246000fd5b600060028204905060018216806200046a57607f821691505b60208210810362000480576200047f62000422565b5b50919050565b60008190508160005260206000209050919050565b60006020601f8301049050919050565b600082821b905092915050565b600060088302620004ea7fffffffffffffffffffffffffffffffffffffffffffffffffffffffffffffffff82620004ab565b620004f68683620004ab565b95508019841693508086168417925050509392505050565b6000819050919050565b600062000539620005336200052d84620002a5565b6200050e565b620002a5565b9050919050565b6000819050919050565b620005558362000518565b6200056d620005648262000540565b848454620004b8565b825550505050565b600090565b6200058462000575565b620005918184846200054a565b505050565b5b81811015620005b957620005ad6000826200057a565b60018101905062000597565b5050565b601f8211156200060857620005d28162000486565b620005dd846200049b565b81016020851015620005ed578190505b62000605620005fc856200049b565b83018262000596565b50505b505050565b600082821c905092915050565b60006200062d600019846008026200060d565b1980831691505092915050565b60006200064883836200061a565b9150826002028217905092915050565b620006638262000417565b67ffffffffffffffff8111156200067f576200067e62000141565b5b6200068b825462000451565b62000698828285620005bd565b600060209050601f831160018114620006d05760008415620006bb578287015190505b620006c785826200063a565b86555062000737565b601f198416620006e08662000486565b60005b828110156200070a57848901518255600182019150602085019450602081019050620006e3565b868310156200072a578489015162000726601f8916826200061a565b8355505b6001600288020188555050505b505050505050565b611904806200074f6000396000f3fe6080604052600436106101095760003560e01c80638da5cb5b11610095578063ca5dbfef11610064578063ca5dbfef1461032c578063cf09e0d014610357578063ea600ae014610382578063ee3def0e146103ad578063fd48e8e3146103d857610109565b80638da5cb5b1461028257806391b7f5ed146102ad578063949d225d146102d6578063b7ec20861461030157610109565b806329c68dc1116100dc57806329c68dc1146101ba578063551caa7c146101d15780637284e416146101ef578063729acff41461021a57806383784b0b1461024557610109565b806302fb0c5e1461010e57806306fdde03146101395780631a0925411461016457806320c4fd311461018f575b600080fd5b34801561011a57600080fd5b50610123610403565b6040516101309190611077565b60405180910390f35b34801561014557600080fd5b5061014e610416565b60405161015b9190611122565b60405180910390f35b34801561017057600080fd5b506101796104a4565b6040516101869190611122565b60405180910390f35b34801561019b57600080fd5b506101a4610536565b6040516101b1919061115d565b60405180910390f35b3480156101c657600080fd5b506101cf61053c565b005b6101d96105f8565b6040516101e69190611122565b60405180910390f35b3480156101fb57600080fd5b50610204610862565b6040516102119190611122565b60405180910390f35b34801561022657600080fd5b5061022f6108f0565b60405161023c9190611122565b60405180910390f35b34801561025157600080fd5b5061026c600480360381019061026791906112c1565b61097e565b604051610279919061115d565b60405180910390f35b34801561028e57600080fd5b50610297610adc565b6040516102a4919061134b565b60405180910390f35b3480156102b957600080fd5b506102d460048036038101906102cf9190611392565b610b02565b005b3480156102e257600080fd5b506102eb610b9c565b6040516102f89190611122565b60405180910390f35b34801561030d57600080fd5b50610316610c2a565b604051610323919061115d565b60405180910390f35b34801561033857600080fd5b50610341610c30565b60405161034e9190611122565b60405180910390f35b34801561036357600080fd5b5061036c610d13565b6040516103799190611122565b60405180910390f35b34801561038e57600080fd5b50610397610da1565b6040516103a49190611122565b60405180910390f35b3480156103b957600080fd5b506103c2610e2f565b6040516103cf919061115d565b60405180910390f35b3480156103e457600080fd5b506103ed610e35565b6040516103fa919061115d565b60405180910390f35b600760149054906101000a900460ff1681565b60008054610423906113ee565b80601f016020809104026020016040519081016040528092919081815260200182805461044f906113ee565b801561049c5780601f106104715761010080835404028352916020019161049c565b820191906000526020600020905b81548152906001019060200180831161047f57829003601f168201915b505050505081565b6060600180546104b3906113ee565b80601f01602080910402602001604051908101604052809291908181526020018280546104df906113ee565b801561052c5780601f106105015761010080835404028352916020019161052c565b820191906000526020600020905b81548152906001019060200180831161050f57829003601f168201915b5050505050905090565b600a5481565b600760009054906101000a900473ffffffffffffffffffffffffffffffffffffffff1673ffffffffffffffffffffffffffffffffffffffff163373ffffffffffffffffffffffffffffffffffffffff16146105cc576040517f08c379a00000000000000000000000000000000000000000000000000000000081526004016105c390611491565b60405180910390fd5b600760149054906101000a900460ff1615600760146101000a81548160ff021916908315150217905550565b6060600a54600b541115610641576040517f08c379a000000000000000000000000000000000000000000000000000000000815260040161063890611523565b60405180910390fd5b6003543414610685576040517f08c379a000000000000000000000000000000000000000000000000000000000815260040161067c906115b5565b60405180910390fd5b600954600454036106fe57600760009054906101000a900473ffffffffffffffffffffffffffffffffffffffff1673ffffffffffffffffffffffffffffffffffffffff166108fc479081150290604051600060405180830381858888f193505050501580156106f8573d6000803e3d6000fd5b50610775565b600954600454111561077457600760009054906101000a900473ffffffffffffffffffffffffffffffffffffffff1673ffffffffffffffffffffffffffffffffffffffff166108fc349081150290604051600060405180830381858888f19350505050158015610772573d6000803e3d6000fd5b505b5b6001600460008282546107889190611604565b925050819055503373ffffffffffffffffffffffffffffffffffffffff167f4a017353a6a671c5595f31469f50dc962e14c1a712ba8971a058ac0460731bd160405160405180910390a2600880546107df906113ee565b80601f016020809104026020016040519081016040528092919081815260200182805461080b906113ee565b80156108585780601f1061082d57610100808354040283529160200191610858565b820191906000526020600020905b81548152906001019060200180831161083b57829003601f168201915b5050505050905090565b6001805461086f906113ee565b80601f016020809104026020016040519081016040528092919081815260200182805461089b906113ee565b80156108e85780601f106108bd576101008083540402835291602001916108e8565b820191906000526020600020905b8154815290600101906020018083116108cb57829003601f168201915b505050505081565b600580546108fd906113ee565b80601f0160208091040260200160405190810160405280929190818152602001828054610929906113ee565b80156109765780601f1061094b57610100808354040283529160200191610976565b820191906000526020600020905b81548152906001019060200180831161095957829003601f168201915b505050505081565b600080600c60003373ffffffffffffffffffffffffffffffffffffffff1673ffffffffffffffffffffffffffffffffffffffff16815260200190815260200160002060009054906101000a900460ff1690508015610a11576040517f08c379a0000000000000000000000000000000000000000000000000000000008152600401610a08906116aa565b60405180910390fd5b6001600c60003373ffffffffffffffffffffffffffffffffffffffff1673ffffffffffffffffffffffffffffffffffffffff16815260200190815260200160002060006101000a81548160ff0219169083151502179055506001600b6000828254610a7c9190611604565b925050819055503373ffffffffffffffffffffffffffffffffffffffff167fab041670eb9e6e047417d6b20c2560283f97944f712ed0fad739be1a8574b5cd84604051610ac99190611122565b60405180910390a2600b54915050919050565b600760009054906101000a900473ffffffffffffffffffffffffffffffffffffffff1681565b600760009054906101000a900473ffffffffffffffffffffffffffffffffffffffff1673ffffffffffffffffffffffffffffffffffffffff163373ffffffffffffffffffffffffffffffffffffffff1614610b92576040517f08c379a0000000000000000000000000000000000000000000000000000000008152600401610b8990611491565b60405180910390fd5b8060038190555050565b60068054610ba9906113ee565b80601f0160208091040260200160405190810160405280929190818152602001828054610bd5906113ee565b8015610c225780601f10610bf757610100808354040283529160200191610c22565b820191906000526020600020905b815481529060010190602001808311610c0557829003601f168201915b505050505081565b60035481565b606060006001610c41600354610e3b565b610c4c600454610e3b565b600560066002600760149054906101000a900460ff168015610c725750600a54600b5411155b610cb1576040518060400160405280600881526020017f696e616374697665000000000000000000000000000000000000000000000000815250610ce8565b6040518060400160405280600681526020017f61637469766500000000000000000000000000000000000000000000000000008152505b604051602001610cff9897969594939291906117c4565b604051602081830303815290604052905090565b60028054610d20906113ee565b80601f0160208091040260200160405190810160405280929190818152602001828054610d4c906113ee565b8015610d995780601f10610d6e57610100808354040283529160200191610d99565b820191906000526020600020905b815481529060010190602001808311610d7c57829003601f168201915b505050505081565b60088054610dae906113ee565b80601f0160208091040260200160405190810160405280929190818152602001828054610dda906113ee565b8015610e275780601f10610dfc57610100808354040283529160200191610e27565b820191906000526020600020905b815481529060010190602001808311610e0a57829003601f168201915b505050505081565b60045481565b60095481565b606060006001610e4a84610f09565b01905060008167ffffffffffffffff811115610e6957610e68611196565b5b6040519080825280601f01601f191660200182016040528015610e9b5781602001600182028036833780820191505090505b509050600082602001820190505b600115610efe578080600190039150507f3031323334353637383961626364656600000000000000000000000000000000600a86061a8153600a8581610ef257610ef161189f565b5b04945060008503610ea9575b819350505050919050565b600080600090507a184f03e93ff9f4daa797ed6e38ed64bf6a1f0100000000000000008310610f67577a184f03e93ff9f4daa797ed6e38ed64bf6a1f0100000000000000008381610f5d57610f5c61189f565b5b0492506040810190505b6d04ee2d6d415b85acef81000000008310610fa4576d04ee2d6d415b85acef81000000008381610f9a57610f9961189f565b5b0492506020810190505b662386f26fc100008310610fd357662386f26fc100008381610fc957610fc861189f565b5b0492506010810190505b6305f5e1008310610ffc576305f5e1008381610ff257610ff161189f565b5b0492506008810190505b61271083106110215761271083816110175761101661189f565b5b0492506004810190505b60648310611044576064838161103a5761103961189f565b5b0492506002810190505b600a8310611053576001810190505b80915050919050565b60008115159050919050565b6110718161105c565b82525050565b600060208201905061108c6000830184611068565b92915050565b600081519050919050565b600082825260208201905092915050565b60005b838110156110cc5780820151818401526020810190506110b1565b60008484015250505050565b6000601f19601f8301169050919050565b60006110f482611092565b6110fe818561109d565b935061110e8185602086016110ae565b611117816110d8565b840191505092915050565b6000602082019050818103600083015261113c81846110e9565b905092915050565b6000819050919050565b61115781611144565b82525050565b6000602082019050611172600083018461114e565b92915050565b6000604051905090565b600080fd5b600080fd5b600080fd5b600080fd5b7f4e487b7100000000000000000000000000000000000000000000000000000000600052604160045260246000fd5b6111ce826110d8565b810181811067ffffffffffffffff821117156111ed576111ec611196565b5b80604052505050565b6000611200611178565b905061120c82826111c5565b919050565b600067ffffffffffffffff82111561122c5761122b611196565b5b611235826110d8565b9050602081019050919050565b82818337600083830152505050565b600061126461125f84611211565b6111f6565b9050828152602081018484840111156112805761127f611191565b5b61128b848285611242565b509392505050565b600082601f8301126112a8576112a761118c565b5b81356112b8848260208601611251565b91505092915050565b6000602082840312156112d7576112d6611182565b5b600082013567ffffffffffffffff8111156112f5576112f4611187565b5b61130184828501611293565b91505092915050565b600073ffffffffffffffffffffffffffffffffffffffff82169050919050565b60006113358261130a565b9050919050565b6113458161132a565b82525050565b6000602082019050611360600083018461133c565b92915050565b61136f81611144565b811461137a57600080fd5b50565b60008135905061138c81611366565b92915050565b6000602082840312156113a8576113a7611182565b5b60006113b68482850161137d565b91505092915050565b7f4e487b7100000000000000000000000000000000000000000000000000000000600052602260045260246000fd5b6000600282049050600182168061140657607f821691505b602082108103611419576114186113bf565b5b50919050565b7f4f6e6c792074686520636f6e7472616374206f776e6572206d61792063616c6c60008201527f20746869732066756e6374696f6e000000000000000000000000000000000000602082015250565b600061147b602e8361109d565b91506114868261141f565b604082019050919050565b600060208201905081810360008301526114aa8161146e565b9050919050565b7f44617461436f6e747261637420686173206265656e20666c616767656420616e60008201527f64206973206e6f206c6f6e6765722076616c6964000000000000000000000000602082015250565b600061150d60348361109d565b9150611518826114b1565b604082019050919050565b6000602082019050818103600083015261153c81611500565b9050919050565b7f496e636f727265637420616d6f756e74206f6e206d65737361676520666f722060008201527f7075726368617365000000000000000000000000000000000000000000000000602082015250565b600061159f60288361109d565b91506115aa82611543565b604082019050919050565b600060208201905081810360008301526115ce81611592565b9050919050565b7f4e487b7100000000000000000000000000000000000000000000000000000000600052601160045260246000fd5b600061160f82611144565b915061161a83611144565b9250828201905080821115611632576116316115d5565b5b92915050565b7f596f75206861766520616c726561647920666c6167676564207468697320706160008201527f6765000000000000000000000000000000000000000000000000000000000000602082015250565b600061169460228361109d565b915061169f82611638565b604082019050919050565b600060208201905081810360008301526116c381611687565b9050919050565b600081905092915050565b60008190508160005260206000209050919050565b600081546116f7816113ee565b61170181866116ca565b9450600182166000811461171c576001811461173157611764565b60ff1983168652811515820286019350611764565b61173a856116d5565b60005b8381101561175c5781548189015260018201915060208101905061173d565b838801955050505b50505092915050565b7f7c00000000000000000000000000000000000000000000000000000000000000815250565b600061179e82611092565b6117a881856116ca565b93506117b88185602086016110ae565b80840191505092915050565b60006117d0828b6116ea565b91506117db8261176d565b6001820191506117eb828a6116ea565b91506117f68261176d565b6001820191506118068289611793565b91506118118261176d565b6001820191506118218288611793565b915061182c8261176d565b60018201915061183c82876116ea565b91506118478261176d565b60018201915061185782866116ea565b91506118628261176d565b60018201915061187282856116ea565b915061187d8261176d565b60018201915061188d8284611793565b91508190509998505050505050505050565b7f4e487b7100000000000000000000000000000000000000000000000000000000600052601260045260246000fdfea2646970667358221220b74afaad5d1fec9df67f2f54a448900221309990e35fe2c30ea166588c523da064736f6c63430008180033",
  "linkReferences": {},
  "deployedLinkReferences": {}
}