{
  "_format": "hh-sol-artifact-1",
  "contractName": "Lock",
  "sourceName": "contracts/Lock.sol",
  "abi": [
    {
      "inputs": [
        {
          "internalType": "uint256",
          "name": "_unlockTime",
          "type": "uint256"
        }
      ],
      "stateMutability": "payable",
      "type": "constructor"
    },
    {
      "anonymous": false,
      "inputs": [
        {
          "indexed": false,
          "internalType": "uint256",
          "name": "amount",
          "type": "uint256"
        },
        {
          "indexed": false,
          "internalType": "uint256",
          "name": "when",
          "type": "uint256"
        }
      ],
      "name": "Withdrawal",
      "type": "event"
    },
    {
      "inputs": [],
      "name": "owner",
      "outputs": [
        {
          "internalType": "address payable",
          "name": "",
          "type": "address"
        }
      ],
      "stateMutability": "view",
      "type": "function"
    },
    {
      "inputs": [],
      "name": "unlockTime",
      "outputs": [
        {
          "internalType": "uint256",
          "name": "",
          "type": "uint256"
        }
      ],
      "stateMutability": "view",
      "type": "function"
    },
    {
      "inputs": [],
      "name": "withdraw",
      "outputs": [],
      "stateMutability": "nonpayable",
      "type": "function"
    }
  ],
  "bytecode": "0x60806040526040518060600160405280602181526020016200097360219139600090816200002e919062000362565b50604051620009943803806200099483398181016040528101906200005491906200047f565b80421062000099576040517f08c379a0000000000000000000000000000000000000000000000000000000008152600401620000909062000538565b60405180910390fd5b8060018190555033600260006101000a81548173ffffffffffffffffffffffffffffffffffffffff021916908373ffffffffffffffffffffffffffffffffffffffff160217905550506200055a565b600081519050919050565b7f4e487b7100000000000000000000000000000000000000000000000000000000600052604160045260246000fd5b7f4e487b7100000000000000000000000000000000000000000000000000000000600052602260045260246000fd5b600060028204905060018216806200016a57607f821691505b60208210810362000180576200017f62000122565b5b50919050565b60008190508160005260206000209050919050565b60006020601f8301049050919050565b600082821b905092915050565b600060088302620001ea7fffffffffffffffffffffffffffffffffffffffffffffffffffffffffffffffff82620001ab565b620001f68683620001ab565b95508019841693508086168417925050509392505050565b6000819050919050565b6000819050919050565b6000620002436200023d62000237846200020e565b62000218565b6200020e565b9050919050565b6000819050919050565b6200025f8362000222565b620002776200026e826200024a565b848454620001b8565b825550505050565b600090565b6200028e6200027f565b6200029b81848462000254565b505050565b5b81811015620002c357620002b760008262000284565b600181019050620002a1565b5050565b601f8211156200031257620002dc8162000186565b620002e7846200019b565b81016020851015620002f7578190505b6200030f62000306856200019b565b830182620002a0565b50505b505050565b600082821c905092915050565b6000620003376000198460080262000317565b1980831691505092915050565b600062000352838362000324565b9150826002028217905092915050565b6200036d82620000e8565b67ffffffffffffffff811115620003895762000388620000f3565b5b62000395825462000151565b620003a2828285620002c7565b600060209050601f831160018114620003da5760008415620003c5578287015190505b620003d1858262000344565b86555062000441565b601f198416620003ea8662000186565b60005b828110156200041457848901518255600182019150602085019450602081019050620003ed565b8683101562000434578489015162000430601f89168262000324565b8355505b6001600288020188555050505b505050505050565b600080fd5b62000459816200020e565b81146200046557600080fd5b50565b60008151905062000479816200044e565b92915050565b60006020828403121562000498576200049762000449565b5b6000620004a88482850162000468565b91505092915050565b600082825260208201905092915050565b7f556e6c6f636b2074696d652073686f756c6420626520696e207468652066757460008201527f7572650000000000000000000000000000000000000000000000000000000000602082015250565b600062000520602383620004b1565b91506200052d82620004c2565b604082019050919050565b60006020820190508181036000830152620005538162000511565b9050919050565b610409806200056a6000396000f3fe608060405234801561001057600080fd5b50600436106100415760003560e01c8063251c1aa3146100465780633ccfd60b146100645780638da5cb5b1461006e575b600080fd5b61004e61008c565b60405161005b919061024a565b60405180910390f35b61006c610092565b005b61007661020b565b60405161008391906102a6565b60405180910390f35b60015481565b6001544210156100d7576040517f08c379a00000000000000000000000000000000000000000000000000000000081526004016100ce9061031e565b60405180910390fd5b600260009054906101000a900473ffffffffffffffffffffffffffffffffffffffff1673ffffffffffffffffffffffffffffffffffffffff163373ffffffffffffffffffffffffffffffffffffffff1614610167576040517f08c379a000000000000000000000000000000000000000000000000000000000815260040161015e9061038a565b60405180910390fd5b7fbf2ed60bd5b5965d685680c01195c9514e4382e28e3a5a2d2d5244bf59411b9347426040516101989291906103aa565b60405180910390a1600260009054906101000a900473ffffffffffffffffffffffffffffffffffffffff1673ffffffffffffffffffffffffffffffffffffffff166108fc479081150290604051600060405180830381858888f19350505050158015610208573d6000803e3d6000fd5b50565b600260009054906101000a900473ffffffffffffffffffffffffffffffffffffffff1681565b6000819050919050565b61024481610231565b82525050565b600060208201905061025f600083018461023b565b92915050565b600073ffffffffffffffffffffffffffffffffffffffff82169050919050565b600061029082610265565b9050919050565b6102a081610285565b82525050565b60006020820190506102bb6000830184610297565b92915050565b600082825260208201905092915050565b7f596f752063616e27742077697468647261772079657400000000000000000000600082015250565b60006103086016836102c1565b9150610313826102d2565b602082019050919050565b60006020820190508181036000830152610337816102fb565b9050919050565b7f596f75206172656e277420746865206f776e6572000000000000000000000000600082015250565b60006103746014836102c1565b915061037f8261033e565b602082019050919050565b600060208201905081810360008301526103a381610367565b9050919050565b60006040820190506103bf600083018561023b565b6103cc602083018461023b565b939250505056fea2646970667358221220cf8e4f68e84ed830bf836fea2e8d727455cb995ee7e6dfb29cc88632de80297364736f6c6343000818003368747470733a2f2f7270632d73746f726167652d746573746e65742e30672e6169",
  "linkReferences": {},
  "deployedLinkReferences": {}
}